{
	"data": {
		"bytecode": {
			"linkReferences": {},
			"object": "6101406040523480156200001257600080fd5b506040518060400160405280600b81526020017f546f796f7461546f6b656e000000000000000000000000000000000000000000815250806040518060400160405280600181526020017f31000000000000000000000000000000000000000000000000000000000000008152506040518060400160405280600b81526020017f546f796f7461546f6b656e0000000000000000000000000000000000000000008152506040518060400160405280600381526020017f54545900000000000000000000000000000000000000000000000000000000008152508160039081620000fd9190620012cb565b5080600490816200010f9190620012cb565b50505062000132620001266200024560201b60201c565b6200024d60201b60201c565b6000600960146101000a81548160ff02191690831515021790555060008280519060200120905060008280519060200120905060007f8b73c3c69bb8fe3d512ecc4cf759cc79239f7b179b0ffacaa9a75d522b39400f90508260e081815250508161010081815250504660a08181525050620001b68184846200031360201b60201c565b608081815250503073ffffffffffffffffffffffffffffffffffffffff1660c08173ffffffffffffffffffffffffffffffffffffffff16815250508061012081815250505050505050506200023f33620002156200034f60201b60201c565b600a62000223919062001542565b620186a062000233919062001593565b6200035860201b60201c565b62001a58565b600033905090565b6000600960009054906101000a900473ffffffffffffffffffffffffffffffffffffffff16905081600960006101000a81548173ffffffffffffffffffffffffffffffffffffffff021916908373ffffffffffffffffffffffffffffffffffffffff1602179055508173ffffffffffffffffffffffffffffffffffffffff168173ffffffffffffffffffffffffffffffffffffffff167f8be0079c531659141344cd1fd0a4f28419497f9722a3daafe3b4186f6b6457e060405160405180910390a35050565b60008383834630604051602001620003309594939291906200164f565b6040516020818303038152906040528051906020012090509392505050565b60006012905090565b6200036f82826200037360201b620016041760201c565b5050565b6200038a82826200043160201b620016911760201c565b6200039a6200059e60201b60201c565b7bffffffffffffffffffffffffffffffffffffffffffffffffffffffff16620003c8620005c260201b60201c565b11156200040c576040517f08c379a0000000000000000000000000000000000000000000000000000000008152600401620004039062001733565b60405180910390fd5b6200042b600e620005cc60201b620017e71783620005e460201b60201c565b50505050565b600073ffffffffffffffffffffffffffffffffffffffff168273ffffffffffffffffffffffffffffffffffffffff1603620004a3576040517f08c379a00000000000000000000000000000000000000000000000000000000081526004016200049a90620017a5565b60405180910390fd5b620004b760008383620008f160201b60201c565b8060026000828254620004cb9190620017c7565b92505081905550806000808473ffffffffffffffffffffffffffffffffffffffff1673ffffffffffffffffffffffffffffffffffffffff168152602001908152602001600020600082825401925050819055508173ffffffffffffffffffffffffffffffffffffffff16600073ffffffffffffffffffffffffffffffffffffffff167fddf252ad1be2c89b69c2b068fc378daa952ba7f163c4a11628f55a4df523b3ef836040516200057e919062001802565b60405180910390a36200059a600083836200091e60201b60201c565b5050565b60007bffffffffffffffffffffffffffffffffffffffffffffffffffffffff905090565b6000600254905090565b60008183620005dc9190620017c7565b905092915050565b6000806000858054905090506000808214620006bf576200061a876001846200060e91906200181f565b6200093b60201b60201c565b6040518060400160405290816000820160009054906101000a900463ffffffff1663ffffffff1663ffffffff1681526020016000820160049054906101000a90047bffffffffffffffffffffffffffffffffffffffffffffffffffffffff167bffffffffffffffffffffffffffffffffffffffffffffffffffffffff167bffffffffffffffffffffffffffffffffffffffffffffffffffffffff1681525050620006fb565b6040518060400160405280600063ffffffff16815260200160007bffffffffffffffffffffffffffffffffffffffffffffffffffffffff168152505b905080602001517bffffffffffffffffffffffffffffffffffffffffffffffffffffffff1693506200072e84868860201c565b92506000821180156200074a575043816000015163ffffffff16145b15620007dd5762000766836200095060201b620017fd1760201c565b62000786886001856200077a91906200181f565b6200093b60201b60201c565b60000160046101000a8154817bffffffffffffffffffffffffffffffffffffffffffffffffffffffff02191690837bffffffffffffffffffffffffffffffffffffffffffffffffffffffff160217905550620008e7565b866040518060400160405280620007ff43620009be60201b620018681760201c565b63ffffffff16815260200162000820866200095060201b620017fd1760201c565b7bffffffffffffffffffffffffffffffffffffffffffffffffffffffff168152509080600181540180825580915050600190039060005260206000200160009091909190915060008201518160000160006101000a81548163ffffffff021916908363ffffffff16021790555060208201518160000160046101000a8154817bffffffffffffffffffffffffffffffffffffffffffffffffffffffff02191690837bffffffffffffffffffffffffffffffffffffffffffffffffffffffff16021790555050505b5050935093915050565b6200090162000a1460201b60201c565b6200091983838362000a6960201b620018bb1760201c565b505050565b6200093683838362000b6260201b620019731760201c565b505050565b60008260005281602060002001905092915050565b60007bffffffffffffffffffffffffffffffffffffffffffffffffffffffff8016821115620009b6576040517f08c379a0000000000000000000000000000000000000000000000000000000008152600401620009ad90620018d0565b60405180910390fd5b819050919050565b600063ffffffff801682111562000a0c576040517f08c379a000000000000000000000000000000000000000000000000000000000815260040162000a039062001968565b60405180910390fd5b819050919050565b62000a2462000bb260201b60201c565b1562000a67576040517f08c379a000000000000000000000000000000000000000000000000000000000815260040162000a5e90620019da565b60405180910390fd5b565b62000a8183838362000bc960201b6200199e1760201c565b600073ffffffffffffffffffffffffffffffffffffffff168373ffffffffffffffffffffffffffffffffffffffff160362000add5762000ac78262000bce60201b60201c565b62000ad762000c3160201b60201c565b62000b5d565b600073ffffffffffffffffffffffffffffffffffffffff168273ffffffffffffffffffffffffffffffffffffffff160362000b395762000b238362000bce60201b60201c565b62000b3362000c3160201b60201c565b62000b5c565b62000b4a8362000bce60201b60201c565b62000b5b8262000bce60201b60201c565b5b5b505050565b62000b7a83838362000c5560201b620019a31760201c565b62000bad62000b8f8462000c5a60201b60201c565b62000ba08462000c5a60201b60201c565b8362000cc360201b60201c565b505050565b6000600960149054906101000a900460ff16905090565b505050565b62000c2e600560008373ffffffffffffffffffffffffffffffffffffffff1673ffffffffffffffffffffffffffffffffffffffff16815260200190815260200160002062000c228362000ee660201b60201c565b62000f2e60201b60201c565b50565b62000c53600662000c47620005c260201b60201c565b62000f2e60201b60201c565b565b505050565b6000600c60008373ffffffffffffffffffffffffffffffffffffffff1673ffffffffffffffffffffffffffffffffffffffff16815260200190815260200160002060009054906101000a900473ffffffffffffffffffffffffffffffffffffffff169050919050565b8173ffffffffffffffffffffffffffffffffffffffff168373ffffffffffffffffffffffffffffffffffffffff161415801562000d005750600081115b1562000ee157600073ffffffffffffffffffffffffffffffffffffffff168373ffffffffffffffffffffffffffffffffffffffff161462000df35760008062000d9a600d60008773ffffffffffffffffffffffffffffffffffffffff1673ffffffffffffffffffffffffffffffffffffffff16815260200190815260200160002062000fba60201b620019a81785620005e460201b60201c565b915091508473ffffffffffffffffffffffffffffffffffffffff167fdec2bacdd2f05b59de34da9b523dff8be42e5e38e818c82fdb0bae774387a724838360405162000de8929190620019fc565b60405180910390a250505b600073ffffffffffffffffffffffffffffffffffffffff168273ffffffffffffffffffffffffffffffffffffffff161462000ee05760008062000e87600d60008673ffffffffffffffffffffffffffffffffffffffff1673ffffffffffffffffffffffffffffffffffffffff168152602001908152602001600020620005cc60201b620017e71785620005e460201b60201c565b915091508373ffffffffffffffffffffffffffffffffffffffff167fdec2bacdd2f05b59de34da9b523dff8be42e5e38e818c82fdb0bae774387a724838360405162000ed5929190620019fc565b60405180910390a250505b5b505050565b60008060008373ffffffffffffffffffffffffffffffffffffffff1673ffffffffffffffffffffffffffffffffffffffff168152602001908152602001600020549050919050565b600062000f4062000fd260201b60201c565b90508062000f578460000162000ff060201b60201c565b101562000fb55782600001819080600181540180825580915050600190039060005260206000200160009091909190915055826001018290806001815401808255809150506001900390600052602060002001600090919091909150555b505050565b6000818362000fca91906200181f565b905092915050565b600062000feb60086200104360201b620019be1760201c565b905090565b6000808280549050036200100857600090506200103e565b81600183805490506200101c91906200181f565b8154811062001030576200102f62001a29565b5b906000526020600020015490505b919050565b600081600001549050919050565b600081519050919050565b7f4e487b7100000000000000000000000000000000000000000000000000000000600052604160045260246000fd5b7f4e487b7100000000000000000000000000000000000000000000000000000000600052602260045260246000fd5b60006002820490506001821680620010d357607f821691505b602082108103620010e957620010e86200108b565b5b50919050565b60008190508160005260206000209050919050565b60006020601f8301049050919050565b600082821b905092915050565b600060088302620011537fffffffffffffffffffffffffffffffffffffffffffffffffffffffffffffffff8262001114565b6200115f868362001114565b95508019841693508086168417925050509392505050565b6000819050919050565b6000819050919050565b6000620011ac620011a6620011a08462001177565b62001181565b62001177565b9050919050565b6000819050919050565b620011c8836200118b565b620011e0620011d782620011b3565b84845462001121565b825550505050565b600090565b620011f7620011e8565b62001204818484620011bd565b505050565b5b818110156200122c5762001220600082620011ed565b6001810190506200120a565b5050565b601f8211156200127b576200124581620010ef565b620012508462001104565b8101602085101562001260578190505b620012786200126f8562001104565b83018262001209565b50505b505050565b600082821c905092915050565b6000620012a06000198460080262001280565b1980831691505092915050565b6000620012bb83836200128d565b9150826002028217905092915050565b620012d68262001051565b67ffffffffffffffff811115620012f257620012f16200105c565b5b620012fe8254620010ba565b6200130b82828562001230565b600060209050601f8311600181146200134357600084156200132e578287015190505b6200133a8582620012ad565b865550620013aa565b601f1984166200135386620010ef565b60005b828110156200137d5784890151825560018201915060208501945060208101905062001356565b868310156200139d578489015162001399601f8916826200128d565b8355505b6001600288020188555050505b505050505050565b7f4e487b7100000000000000000000000000000000000000000000000000000000600052601160045260246000fd5b60008160011c9050919050565b6000808291508390505b60018511156200144057808604811115620014185762001417620013b2565b5b6001851615620014285780820291505b80810290506200143885620013e1565b9450620013f8565b94509492505050565b6000826200145b57600190506200152e565b816200146b57600090506200152e565b81600181146200148457600281146200148f57620014c5565b60019150506200152e565b60ff841115620014a457620014a3620013b2565b5b8360020a915084821115620014be57620014bd620013b2565b5b506200152e565b5060208310610133831016604e8410600b8410161715620014ff5782820a905083811115620014f957620014f8620013b2565b5b6200152e565b6200150e8484846001620013ee565b92509050818404811115620015285762001527620013b2565b5b81810290505b9392505050565b600060ff82169050919050565b60006200154f8262001177565b91506200155c8362001535565b92506200158b7fffffffffffffffffffffffffffffffffffffffffffffffffffffffffffffffff848462001449565b905092915050565b6000620015a08262001177565b9150620015ad8362001177565b9250828202620015bd8162001177565b91508282048414831517620015d757620015d6620013b2565b5b5092915050565b6000819050919050565b620015f381620015de565b82525050565b620016048162001177565b82525050565b600073ffffffffffffffffffffffffffffffffffffffff82169050919050565b600062001637826200160a565b9050919050565b62001649816200162a565b82525050565b600060a082019050620016666000830188620015e8565b620016756020830187620015e8565b620016846040830186620015e8565b620016936060830185620015f9565b620016a260808301846200163e565b9695505050505050565b600082825260208201905092915050565b7f4552433230566f7465733a20746f74616c20737570706c79207269736b73206f60008201527f766572666c6f77696e6720766f74657300000000000000000000000000000000602082015250565b60006200171b603083620016ac565b91506200172882620016bd565b604082019050919050565b600060208201905081810360008301526200174e816200170c565b9050919050565b7f45524332303a206d696e7420746f20746865207a65726f206164647265737300600082015250565b60006200178d601f83620016ac565b91506200179a8262001755565b602082019050919050565b60006020820190508181036000830152620017c0816200177e565b9050919050565b6000620017d48262001177565b9150620017e18362001177565b9250828201905080821115620017fc57620017fb620013b2565b5b92915050565b6000602082019050620018196000830184620015f9565b92915050565b60006200182c8262001177565b9150620018398362001177565b9250828203905081811115620018545762001853620013b2565b5b92915050565b7f53616665436173743a2076616c756520646f65736e27742066697420696e203260008201527f3234206269747300000000000000000000000000000000000000000000000000602082015250565b6000620018b8602783620016ac565b9150620018c5826200185a565b604082019050919050565b60006020820190508181036000830152620018eb81620018a9565b9050919050565b7f53616665436173743a2076616c756520646f65736e27742066697420696e203360008201527f3220626974730000000000000000000000000000000000000000000000000000602082015250565b600062001950602683620016ac565b91506200195d82620018f2565b604082019050919050565b60006020820190508181036000830152620019838162001941565b9050919050565b7f5061757361626c653a2070617573656400000000000000000000000000000000600082015250565b6000620019c2601083620016ac565b9150620019cf826200198a565b602082019050919050565b60006020820190508181036000830152620019f581620019b3565b9050919050565b600060408201905062001a136000830185620015f9565b62001a226020830184620015f9565b9392505050565b7f4e487b7100000000000000000000000000000000000000000000000000000000600052603260045260246000fd5b60805160a05160c05160e051610100516101205161505a62001aa86000396000611f4d01526000611f8f01526000611f6e01526000611ea301526000611ef901526000611f22015261505a6000f3fe608060405234801561001057600080fd5b50600436106102275760003560e01c806370a0823111610130578063981b24d0116100b8578063d505accf1161007c578063d505accf146106b2578063d9d98ce4146106ce578063dd62ed3e146106fe578063f1127ed81461072e578063f2fde38b1461075e57610227565b8063981b24d0146105d65780639ab24eb014610606578063a457c2d714610636578063a9059cbb14610666578063c3cda5201461069657610227565b80638456cb59116100ff5780638456cb59146105565780638da5cb5b146105605780638e539e8c1461057e57806395d89b41146105ae5780639711715a146105cc57610227565b806370a08231146104d0578063715018a61461050057806379cc67901461050a5780637ecebe001461052657610227565b806340c10f19116101b35780635c19a95c116101825780635c19a95c146104065780635c975abb146104225780635cffe9de14610440578063613255ab146104705780636fcfff45146104a057610227565b806340c10f191461036e57806342966c681461038a5780634ee2cd7e146103a6578063587cde1e146103d657610227565b8063313ce567116101fa578063313ce567146102c85780633644e515146102e657806339509351146103045780633a46b1a8146103345780633f4ba83a1461036457610227565b806306fdde031461022c578063095ea7b31461024a57806318160ddd1461027a57806323b872dd14610298575b600080fd5b61023461077a565b60405161024191906135c2565b60405180910390f35b610264600480360381019061025f9190613682565b61080c565b60405161027191906136dd565b60405180910390f35b61028261082f565b60405161028f9190613707565b60405180910390f35b6102b260048036038101906102ad9190613722565b610839565b6040516102bf91906136dd565b60405180910390f35b6102d0610868565b6040516102dd9190613791565b60405180910390f35b6102ee610871565b6040516102fb91906137c5565b60405180910390f35b61031e60048036038101906103199190613682565b610880565b60405161032b91906136dd565b60405180910390f35b61034e60048036038101906103499190613682565b6108b7565b60405161035b9190613707565b60405180910390f35b61036c61094b565b005b61038860048036038101906103839190613682565b61095d565b005b6103a4600480360381019061039f91906137e0565b610973565b005b6103c060048036038101906103bb9190613682565b610987565b6040516103cd9190613707565b60405180910390f35b6103f060048036038101906103eb919061380d565b6109f7565b6040516103fd9190613849565b60405180910390f35b610420600480360381019061041b919061380d565b610a60565b005b61042a610a74565b60405161043791906136dd565b60405180910390f35b61045a60048036038101906104559190613907565b610a8b565b60405161046791906136dd565b60405180910390f35b61048a6004803603810190610485919061380d565b610c78565b6040516104979190613707565b60405180910390f35b6104ba60048036038101906104b5919061380d565b610cef565b6040516104c791906139ae565b60405180910390f35b6104ea60048036038101906104e5919061380d565b610d43565b6040516104f79190613707565b60405180910390f35b610508610d8b565b005b610524600480360381019061051f9190613682565b610d9f565b005b610540600480360381019061053b919061380d565b610dbf565b60405161054d9190613707565b60405180910390f35b61055e610e0f565b005b610568610e21565b6040516105759190613849565b60405180910390f35b610598600480360381019061059391906137e0565b610e4b565b6040516105a59190613707565b60405180910390f35b6105b6610ea1565b6040516105c391906135c2565b60405180910390f35b6105d4610f33565b005b6105f060048036038101906105eb91906137e0565b610f46565b6040516105fd9190613707565b60405180910390f35b610620600480360381019061061b919061380d565b610f77565b60405161062d9190613707565b60405180910390f35b610650600480360381019061064b9190613682565b611088565b60405161065d91906136dd565b60405180910390f35b610680600480360381019061067b9190613682565b6110ff565b60405161068d91906136dd565b60405180910390f35b6106b060048036038101906106ab9190613a21565b611122565b005b6106cc60048036038101906106c79190613aae565b611226565b005b6106e860048036038101906106e39190613682565b611368565b6040516106f59190613707565b60405180910390f35b61071860048036038101906107139190613b50565b6113ea565b6040516107259190613707565b60405180910390f35b61074860048036038101906107439190613bbc565b611471565b6040516107559190613c71565b60405180910390f35b6107786004803603810190610773919061380d565b611581565b005b60606003805461078990613cbb565b80601f01602080910402602001604051908101604052809291908181526020018280546107b590613cbb565b80156108025780601f106107d757610100808354040283529160200191610802565b820191906000526020600020905b8154815290600101906020018083116107e557829003601f168201915b5050505050905090565b6000806108176119cc565b90506108248185856119d4565b600191505092915050565b6000600254905090565b6000806108446119cc565b9050610851858285611b9d565b61085c858585611c29565b60019150509392505050565b60006012905090565b600061087b611e9f565b905090565b60008061088b6119cc565b90506108ac81858561089d85896113ea565b6108a79190613d1b565b6119d4565b600191505092915050565b60004382106108fb576040517f08c379a00000000000000000000000000000000000000000000000000000000081526004016108f290613d9b565b60405180910390fd5b610943600d60008573ffffffffffffffffffffffffffffffffffffffff1673ffffffffffffffffffffffffffffffffffffffff16815260200190815260200160002083611fb9565b905092915050565b61095361210a565b61095b612188565b565b61096561210a565b61096f82826121eb565b5050565b61098461097e6119cc565b826121f9565b50565b60008060006109d484600560008873ffffffffffffffffffffffffffffffffffffffff1673ffffffffffffffffffffffffffffffffffffffff168152602001908152602001600020612207565b91509150816109eb576109e685610d43565b6109ed565b805b9250505092915050565b6000600c60008373ffffffffffffffffffffffffffffffffffffffff1673ffffffffffffffffffffffffffffffffffffffff16815260200190815260200160002060009054906101000a900473ffffffffffffffffffffffffffffffffffffffff169050919050565b610a71610a6b6119cc565b826122fc565b50565b6000600960149054906101000a900460ff16905090565b6000610a9685610c78565b841115610ad8576040517f08c379a0000000000000000000000000000000000000000000000000000000008152600401610acf90613e2d565b60405180910390fd5b6000610ae48686611368565b9050610af087866121eb565b7f439148f0bbc682ca079e46d6e2c2f0c1e3b820f1a291b069d8882abf8cf18dd98773ffffffffffffffffffffffffffffffffffffffff166323e30c8b338989868a8a6040518763ffffffff1660e01b8152600401610b5496959493929190613e9a565b6020604051808303816000875af1158015610b73573d6000803e3d6000fd5b505050506040513d601f19601f82011682018060405250810190610b979190613f0b565b14610bd7576040517f08c379a0000000000000000000000000000000000000000000000000000000008152600401610bce90613faa565b60405180910390fd5b6000610be1612416565b9050610bf988308489610bf49190613d1b565b611b9d565b6000821480610c345750600073ffffffffffffffffffffffffffffffffffffffff168173ffffffffffffffffffffffffffffffffffffffff16145b15610c5357610c4e888388610c499190613d1b565b6121f9565b610c69565b610c5d88876121f9565b610c68888284611c29565b5b60019250505095945050505050565b60003073ffffffffffffffffffffffffffffffffffffffff168273ffffffffffffffffffffffffffffffffffffffff1614610cb4576000610ce8565b610cbc61082f565b7fffffffffffffffffffffffffffffffffffffffffffffffffffffffffffffffff610ce79190613fca565b5b9050919050565b6000610d3c600d60008473ffffffffffffffffffffffffffffffffffffffff1673ffffffffffffffffffffffffffffffffffffffff16815260200190815260200160002080549050611868565b9050919050565b60008060008373ffffffffffffffffffffffffffffffffffffffff1673ffffffffffffffffffffffffffffffffffffffff168152602001908152602001600020549050919050565b610d9361210a565b610d9d600061241b565b565b610db182610dab6119cc565b83611b9d565b610dbb82826121f9565b5050565b6000610e08600a60008473ffffffffffffffffffffffffffffffffffffffff1673ffffffffffffffffffffffffffffffffffffffff1681526020019081526020016000206119be565b9050919050565b610e1761210a565b610e1f6124e1565b565b6000600960009054906101000a900473ffffffffffffffffffffffffffffffffffffffff16905090565b6000438210610e8f576040517f08c379a0000000000000000000000000000000000000000000000000000000008152600401610e8690613d9b565b60405180910390fd5b610e9a600e83611fb9565b9050919050565b606060048054610eb090613cbb565b80601f0160208091040260200160405190810160405280929190818152602001828054610edc90613cbb565b8015610f295780601f10610efe57610100808354040283529160200191610f29565b820191906000526020600020905b815481529060010190602001808311610f0c57829003601f168201915b5050505050905090565b610f3b61210a565b610f43612544565b50565b6000806000610f56846006612207565b9150915081610f6c57610f6761082f565b610f6e565b805b92505050919050565b600080600d60008473ffffffffffffffffffffffffffffffffffffffff1673ffffffffffffffffffffffffffffffffffffffff1681526020019081526020016000208054905090506000811461105f57600d60008473ffffffffffffffffffffffffffffffffffffffff1673ffffffffffffffffffffffffffffffffffffffff1681526020019081526020016000206001826110139190613fca565b8154811061102457611023613ffe565b5b9060005260206000200160000160049054906101000a90047bffffffffffffffffffffffffffffffffffffffffffffffffffffffff16611062565b60005b7bffffffffffffffffffffffffffffffffffffffffffffffffffffffff16915050919050565b6000806110936119cc565b905060006110a182866113ea565b9050838110156110e6576040517f08c379a00000000000000000000000000000000000000000000000000000000081526004016110dd9061409f565b60405180910390fd5b6110f382868684036119d4565b60019250505092915050565b60008061110a6119cc565b9050611117818585611c29565b600191505092915050565b83421115611165576040517f08c379a000000000000000000000000000000000000000000000000000000000815260040161115c9061410b565b60405180910390fd5b60006111c76111bf7fe48329057bfd03d55e49b547132e39cffd9c1820ad7b9d4c5307691425d15adf8989896040516020016111a4949392919061412b565b6040516020818303038152906040528051906020012061259a565b8585856125b4565b90506111d2816125df565b8614611213576040517f08c379a000000000000000000000000000000000000000000000000000000000815260040161120a906141bc565b60405180910390fd5b61121d81886122fc565b50505050505050565b83421115611269576040517f08c379a000000000000000000000000000000000000000000000000000000000815260040161126090614228565b60405180910390fd5b60007f6e71edae12b1b97f4d1f60370fef10105fa2faae0126114a169c64845d6126c98888886112988c6125df565b896040516020016112ae96959493929190614248565b60405160208183030381529060405280519060200120905060006112d18261259a565b905060006112e1828787876125b4565b90508973ffffffffffffffffffffffffffffffffffffffff168173ffffffffffffffffffffffffffffffffffffffff1614611351576040517f08c379a0000000000000000000000000000000000000000000000000000000008152600401611348906142f5565b60405180910390fd5b61135c8a8a8a6119d4565b50505050505050505050565b60003073ffffffffffffffffffffffffffffffffffffffff168373ffffffffffffffffffffffffffffffffffffffff16146113d8576040517f08c379a00000000000000000000000000000000000000000000000000000000081526004016113cf90614361565b60405180910390fd5b6113e2838361263d565b905092915050565b6000600160008473ffffffffffffffffffffffffffffffffffffffff1673ffffffffffffffffffffffffffffffffffffffff16815260200190815260200160002060008373ffffffffffffffffffffffffffffffffffffffff1673ffffffffffffffffffffffffffffffffffffffff16815260200190815260200160002054905092915050565b6114796134f4565b600d60008473ffffffffffffffffffffffffffffffffffffffff1673ffffffffffffffffffffffffffffffffffffffff1681526020019081526020016000208263ffffffff16815481106114d0576114cf613ffe565b5b906000526020600020016040518060400160405290816000820160009054906101000a900463ffffffff1663ffffffff1663ffffffff1681526020016000820160049054906101000a90047bffffffffffffffffffffffffffffffffffffffffffffffffffffffff167bffffffffffffffffffffffffffffffffffffffffffffffffffffffff167bffffffffffffffffffffffffffffffffffffffffffffffffffffffff1681525050905092915050565b61158961210a565b600073ffffffffffffffffffffffffffffffffffffffff168173ffffffffffffffffffffffffffffffffffffffff16036115f8576040517f08c379a00000000000000000000000000000000000000000000000000000000081526004016115ef906143f3565b60405180910390fd5b6116018161241b565b50565b61160e8282611691565b611616612645565b7bffffffffffffffffffffffffffffffffffffffffffffffffffffffff1661163c61082f565b111561167d576040517f08c379a000000000000000000000000000000000000000000000000000000000815260040161167490614485565b60405180910390fd5b61168b600e6117e783612669565b50505050565b600073ffffffffffffffffffffffffffffffffffffffff168273ffffffffffffffffffffffffffffffffffffffff1603611700576040517f08c379a00000000000000000000000000000000000000000000000000000000081526004016116f7906144f1565b60405180910390fd5b61170c60008383612938565b806002600082825461171e9190613d1b565b92505081905550806000808473ffffffffffffffffffffffffffffffffffffffff1673ffffffffffffffffffffffffffffffffffffffff168152602001908152602001600020600082825401925050819055508173ffffffffffffffffffffffffffffffffffffffff16600073ffffffffffffffffffffffffffffffffffffffff167fddf252ad1be2c89b69c2b068fc378daa952ba7f163c4a11628f55a4df523b3ef836040516117cf9190613707565b60405180910390a36117e360008383612950565b5050565b600081836117f59190613d1b565b905092915050565b60007bffffffffffffffffffffffffffffffffffffffffffffffffffffffff8016821115611860576040517f08c379a000000000000000000000000000000000000000000000000000000000815260040161185790614583565b60405180910390fd5b819050919050565b600063ffffffff80168211156118b3576040517f08c379a00000000000000000000000000000000000000000000000000000000081526004016118aa90614615565b60405180910390fd5b819050919050565b6118c683838361199e565b600073ffffffffffffffffffffffffffffffffffffffff168373ffffffffffffffffffffffffffffffffffffffff16036119105761190382612960565b61190b6129b3565b61196e565b600073ffffffffffffffffffffffffffffffffffffffff168273ffffffffffffffffffffffffffffffffffffffff160361195a5761194d83612960565b6119556129b3565b61196d565b61196383612960565b61196c82612960565b5b5b505050565b61197e8383836119a3565b61199961198a846109f7565b611993846109f7565b836129c7565b505050565b505050565b505050565b600081836119b69190613fca565b905092915050565b600081600001549050919050565b600033905090565b600073ffffffffffffffffffffffffffffffffffffffff168373ffffffffffffffffffffffffffffffffffffffff1603611a43576040517f08c379a0000000000000000000000000000000000000000000000000000000008152600401611a3a906146a7565b60405180910390fd5b600073ffffffffffffffffffffffffffffffffffffffff168273ffffffffffffffffffffffffffffffffffffffff1603611ab2576040517f08c379a0000000000000000000000000000000000000000000000000000000008152600401611aa990614739565b60405180910390fd5b80600160008573ffffffffffffffffffffffffffffffffffffffff1673ffffffffffffffffffffffffffffffffffffffff16815260200190815260200160002060008473ffffffffffffffffffffffffffffffffffffffff1673ffffffffffffffffffffffffffffffffffffffff168152602001908152602001600020819055508173ffffffffffffffffffffffffffffffffffffffff168373ffffffffffffffffffffffffffffffffffffffff167f8c5be1e5ebec7d5bd14f71427d1e84f3dd0314c0f7b2291e5b200ac8c7c3b92583604051611b909190613707565b60405180910390a3505050565b6000611ba984846113ea565b90507fffffffffffffffffffffffffffffffffffffffffffffffffffffffffffffffff8114611c235781811015611c15576040517f08c379a0000000000000000000000000000000000000000000000000000000008152600401611c0c906147a5565b60405180910390fd5b611c2284848484036119d4565b5b50505050565b600073ffffffffffffffffffffffffffffffffffffffff168373ffffffffffffffffffffffffffffffffffffffff1603611c98576040517f08c379a0000000000000000000000000000000000000000000000000000000008152600401611c8f90614837565b60405180910390fd5b600073ffffffffffffffffffffffffffffffffffffffff168273ffffffffffffffffffffffffffffffffffffffff1603611d07576040517f08c379a0000000000000000000000000000000000000000000000000000000008152600401611cfe906148c9565b60405180910390fd5b611d12838383612938565b60008060008573ffffffffffffffffffffffffffffffffffffffff1673ffffffffffffffffffffffffffffffffffffffff16815260200190815260200160002054905081811015611d98576040517f08c379a0000000000000000000000000000000000000000000000000000000008152600401611d8f9061495b565b60405180910390fd5b8181036000808673ffffffffffffffffffffffffffffffffffffffff1673ffffffffffffffffffffffffffffffffffffffff16815260200190815260200160002081905550816000808573ffffffffffffffffffffffffffffffffffffffff1673ffffffffffffffffffffffffffffffffffffffff168152602001908152602001600020600082825401925050819055508273ffffffffffffffffffffffffffffffffffffffff168473ffffffffffffffffffffffffffffffffffffffff167fddf252ad1be2c89b69c2b068fc378daa952ba7f163c4a11628f55a4df523b3ef84604051611e869190613707565b60405180910390a3611e99848484612950565b50505050565b60007f000000000000000000000000000000000000000000000000000000000000000073ffffffffffffffffffffffffffffffffffffffff163073ffffffffffffffffffffffffffffffffffffffff16148015611f1b57507f000000000000000000000000000000000000000000000000000000000000000046145b15611f48577f00000000000000000000000000000000000000000000000000000000000000009050611fb6565b611fb37f00000000000000000000000000000000000000000000000000000000000000007f00000000000000000000000000000000000000000000000000000000000000007f0000000000000000000000000000000000000000000000000000000000000000612bc0565b90505b90565b60008083805490509050600080829050600583111561202f576000611fdd84612bfa565b84611fe89190613fca565b905085611ff58883612cf3565b60000160009054906101000a900463ffffffff1663ffffffff16111561201d5780915061202d565b60018161202a9190613d1b565b92505b505b5b8082101561208f5760006120448383612d08565b9050856120518883612cf3565b60000160009054906101000a900463ffffffff1663ffffffff16111561207957809150612089565b6001816120869190613d1b565b92505b50612030565b600081146120de576120ad866001836120a89190613fca565b612cf3565b60000160049054906101000a90047bffffffffffffffffffffffffffffffffffffffffffffffffffffffff166120e1565b60005b7bffffffffffffffffffffffffffffffffffffffffffffffffffffffff16935050505092915050565b6121126119cc565b73ffffffffffffffffffffffffffffffffffffffff16612130610e21565b73ffffffffffffffffffffffffffffffffffffffff1614612186576040517f08c379a000000000000000000000000000000000000000000000000000000000815260040161217d906149c7565b60405180910390fd5b565b612190612d2e565b6000600960146101000a81548160ff0219169083151502179055507f5db9ee0a495bf2e6ff9c91a7834c1ba4fdd244a5e8aa4e537bd38aeae4b073aa6121d46119cc565b6040516121e19190613849565b60405180910390a1565b6121f58282611604565b5050565b6122038282612d77565b5050565b6000806000841161224d576040517f08c379a000000000000000000000000000000000000000000000000000000000815260040161224490614a33565b60405180910390fd5b612255612d95565b841115612297576040517f08c379a000000000000000000000000000000000000000000000000000000000815260040161228e90614a9f565b60405180910390fd5b60006122af8585600001612da690919063ffffffff16565b9050836000018054905081036122cc5760008092509250506122f5565b60018460010182815481106122e4576122e3613ffe565b5b906000526020600020015492509250505b9250929050565b6000612307836109f7565b9050600061231484610d43565b905082600c60008673ffffffffffffffffffffffffffffffffffffffff1673ffffffffffffffffffffffffffffffffffffffff16815260200190815260200160002060006101000a81548173ffffffffffffffffffffffffffffffffffffffff021916908373ffffffffffffffffffffffffffffffffffffffff1602179055508273ffffffffffffffffffffffffffffffffffffffff168273ffffffffffffffffffffffffffffffffffffffff168573ffffffffffffffffffffffffffffffffffffffff167f3134e8a2e6d97e929a7e54011ea5485d7d196dd5f0ba4d4ef95803e8e3fc257f60405160405180910390a46124108284836129c7565b50505050565b600090565b6000600960009054906101000a900473ffffffffffffffffffffffffffffffffffffffff16905081600960006101000a81548173ffffffffffffffffffffffffffffffffffffffff021916908373ffffffffffffffffffffffffffffffffffffffff1602179055508173ffffffffffffffffffffffffffffffffffffffff168173ffffffffffffffffffffffffffffffffffffffff167f8be0079c531659141344cd1fd0a4f28419497f9722a3daafe3b4186f6b6457e060405160405180910390a35050565b6124e9612e5f565b6001600960146101000a81548160ff0219169083151502179055507f62e78cea01bee320cd4e420270b5ea74000d11b0c9f74754ebdbfc544b05a25861252d6119cc565b60405161253a9190613849565b60405180910390a1565b60006125506008612ea9565b600061255a612d95565b90507f8030e83b04d87bef53480e26263266d6ca66863aa8506aca6f2559d18aa1cb678160405161258b9190613707565b60405180910390a18091505090565b60006125ad6125a7611e9f565b83612ebf565b9050919050565b60008060006125c587878787612ef2565b915091506125d281612fd4565b8192505050949350505050565b600080600a60008473ffffffffffffffffffffffffffffffffffffffff1673ffffffffffffffffffffffffffffffffffffffff168152602001908152602001600020905061262c816119be565b915061263781612ea9565b50919050565b600092915050565b60007bffffffffffffffffffffffffffffffffffffffffffffffffffffffff905090565b6000806000858054905090506000808214612738576126948760018461268f9190613fca565b612cf3565b6040518060400160405290816000820160009054906101000a900463ffffffff1663ffffffff1663ffffffff1681526020016000820160049054906101000a90047bffffffffffffffffffffffffffffffffffffffffffffffffffffffff167bffffffffffffffffffffffffffffffffffffffffffffffffffffffff167bffffffffffffffffffffffffffffffffffffffffffffffffffffffff1681525050612774565b6040518060400160405280600063ffffffff16815260200160007bffffffffffffffffffffffffffffffffffffffffffffffffffffffff168152505b905080602001517bffffffffffffffffffffffffffffffffffffffffffffffffffffffff1693506127a984868863ffffffff16565b92506000821180156127c4575043816000015163ffffffff16145b1561283e576127d2836117fd565b6127e8886001856127e39190613fca565b612cf3565b60000160046101000a8154817bffffffffffffffffffffffffffffffffffffffffffffffffffffffff02191690837bffffffffffffffffffffffffffffffffffffffffffffffffffffffff16021790555061292e565b86604051806040016040528061285343611868565b63ffffffff168152602001612867866117fd565b7bffffffffffffffffffffffffffffffffffffffffffffffffffffffff168152509080600181540180825580915050600190039060005260206000200160009091909190915060008201518160000160006101000a81548163ffffffff021916908363ffffffff16021790555060208201518160000160046101000a8154817bffffffffffffffffffffffffffffffffffffffffffffffffffffffff02191690837bffffffffffffffffffffffffffffffffffffffffffffffffffffffff16021790555050505b5050935093915050565b612940612e5f565b61294b8383836118bb565b505050565b61295b838383611973565b505050565b6129b0600560008373ffffffffffffffffffffffffffffffffffffffff1673ffffffffffffffffffffffffffffffffffffffff1681526020019081526020016000206129ab83610d43565b61313a565b50565b6129c560066129c061082f565b61313a565b565b8173ffffffffffffffffffffffffffffffffffffffff168373ffffffffffffffffffffffffffffffffffffffff1614158015612a035750600081115b15612bbb57600073ffffffffffffffffffffffffffffffffffffffff168373ffffffffffffffffffffffffffffffffffffffff1614612ae157600080612a8a600d60008773ffffffffffffffffffffffffffffffffffffffff1673ffffffffffffffffffffffffffffffffffffffff1681526020019081526020016000206119a885612669565b915091508473ffffffffffffffffffffffffffffffffffffffff167fdec2bacdd2f05b59de34da9b523dff8be42e5e38e818c82fdb0bae774387a7248383604051612ad6929190614abf565b60405180910390a250505b600073ffffffffffffffffffffffffffffffffffffffff168273ffffffffffffffffffffffffffffffffffffffff1614612bba57600080612b63600d60008673ffffffffffffffffffffffffffffffffffffffff1673ffffffffffffffffffffffffffffffffffffffff1681526020019081526020016000206117e785612669565b915091508373ffffffffffffffffffffffffffffffffffffffff167fdec2bacdd2f05b59de34da9b523dff8be42e5e38e818c82fdb0bae774387a7248383604051612baf929190614abf565b60405180910390a250505b5b505050565b60008383834630604051602001612bdb959493929190614ae8565b6040516020818303038152906040528051906020012090509392505050565b6000808203612c0c5760009050612cee565b60006001612c19846131b5565b901c6001901b90506001818481612c3357612c32614b3b565b5b048201901c90506001818481612c4c57612c4b614b3b565b5b048201901c90506001818481612c6557612c64614b3b565b5b048201901c90506001818481612c7e57612c7d614b3b565b5b048201901c90506001818481612c9757612c96614b3b565b5b048201901c90506001818481612cb057612caf614b3b565b5b048201901c90506001818481612cc957612cc8614b3b565b5b048201901c9050612cea81828581612ce457612ce3614b3b565b5b04613296565b9150505b919050565b60008260005281602060002001905092915050565b60006002828418612d199190614b6a565b828416612d269190613d1b565b905092915050565b612d36610a74565b612d75576040517f08c379a0000000000000000000000000000000000000000000000000000000008152600401612d6c90614be7565b60405180910390fd5b565b612d8182826132af565b612d8f600e6119a883612669565b50505050565b6000612da160086119be565b905090565b600080838054905003612dbc5760009050612e59565b600080848054905090505b80821015612e10576000612ddb8383612d08565b905084612de8878361347c565b600001541115612dfa57809150612e0a565b600181612e079190613d1b565b92505b50612dc7565b600082118015612e38575083612e3286600185612e2d9190613fca565b61347c565b60000154145b15612e5357600182612e4a9190613fca565b92505050612e59565b81925050505b92915050565b612e67610a74565b15612ea7576040517f08c379a0000000000000000000000000000000000000000000000000000000008152600401612e9e90614c53565b60405180910390fd5b565b6001816000016000828254019250508190555050565b60008282604051602001612ed4929190614ceb565b60405160208183030381529060405280519060200120905092915050565b6000807f7fffffffffffffffffffffffffffffff5d576e7357a4501ddfe92f46681b20a08360001c1115612f2d576000600391509150612fcb565b600060018787878760405160008152602001604052604051612f529493929190614d22565b6020604051602081039080840390855afa158015612f74573d6000803e3d6000fd5b505050602060405103519050600073ffffffffffffffffffffffffffffffffffffffff168173ffffffffffffffffffffffffffffffffffffffff1603612fc257600060019250925050612fcb565b80600092509250505b94509492505050565b60006004811115612fe857612fe7614d67565b5b816004811115612ffb57612ffa614d67565b5b0315613137576001600481111561301557613014614d67565b5b81600481111561302857613027614d67565b5b03613068576040517f08c379a000000000000000000000000000000000000000000000000000000000815260040161305f90614de2565b60405180910390fd5b6002600481111561307c5761307b614d67565b5b81600481111561308f5761308e614d67565b5b036130cf576040517f08c379a00000000000000000000000000000000000000000000000000000000081526004016130c690614e4e565b60405180910390fd5b600360048111156130e3576130e2614d67565b5b8160048111156130f6576130f5614d67565b5b03613136576040517f08c379a000000000000000000000000000000000000000000000000000000000815260040161312d90614ee0565b60405180910390fd5b5b50565b6000613144612d95565b9050806131538460000161349e565b10156131b05782600001819080600181540180825580915050600190039060005260206000200160009091909190915055826001018290806001815401808255809150506001900390600052602060002001600090919091909150555b505050565b600080600090506000608084901c11156131d757608083901c92506080810190505b6000604084901c11156131f257604083901c92506040810190505b6000602084901c111561320d57602083901c92506020810190505b6000601084901c111561322857601083901c92506010810190505b6000600884901c111561324357600883901c92506008810190505b6000600484901c111561325e57600483901c92506004810190505b6000600284901c111561327957600283901c92506002810190505b6000600184901c111561328d576001810190505b80915050919050565b60008183106132a557816132a7565b825b905092915050565b600073ffffffffffffffffffffffffffffffffffffffff168273ffffffffffffffffffffffffffffffffffffffff160361331e576040517f08c379a000000000000000000000000000000000000000000000000000000000815260040161331590614f72565b60405180910390fd5b61332a82600083612938565b60008060008473ffffffffffffffffffffffffffffffffffffffff1673ffffffffffffffffffffffffffffffffffffffff168152602001908152602001600020549050818110156133b0576040517f08c379a00000000000000000000000000000000000000000000000000000000081526004016133a790615004565b60405180910390fd5b8181036000808573ffffffffffffffffffffffffffffffffffffffff1673ffffffffffffffffffffffffffffffffffffffff1681526020019081526020016000208190555081600260008282540392505081905550600073ffffffffffffffffffffffffffffffffffffffff168373ffffffffffffffffffffffffffffffffffffffff167fddf252ad1be2c89b69c2b068fc378daa952ba7f163c4a11628f55a4df523b3ef846040516134639190613707565b60405180910390a361347783600084612950565b505050565b60008083600052826020600020019050613495816134ea565b91505092915050565b6000808280549050036134b457600090506134e5565b81600183805490506134c69190613fca565b815481106134d7576134d6613ffe565b5b906000526020600020015490505b919050565b6000819050919050565b6040518060400160405280600063ffffffff16815260200160007bffffffffffffffffffffffffffffffffffffffffffffffffffffffff1681525090565b600081519050919050565b600082825260208201905092915050565b60005b8381101561356c578082015181840152602081019050613551565b60008484015250505050565b6000601f19601f8301169050919050565b600061359482613532565b61359e818561353d565b93506135ae81856020860161354e565b6135b781613578565b840191505092915050565b600060208201905081810360008301526135dc8184613589565b905092915050565b600080fd5b600080fd5b600073ffffffffffffffffffffffffffffffffffffffff82169050919050565b6000613619826135ee565b9050919050565b6136298161360e565b811461363457600080fd5b50565b60008135905061364681613620565b92915050565b6000819050919050565b61365f8161364c565b811461366a57600080fd5b50565b60008135905061367c81613656565b92915050565b60008060408385031215613699576136986135e4565b5b60006136a785828601613637565b92505060206136b88582860161366d565b9150509250929050565b60008115159050919050565b6136d7816136c2565b82525050565b60006020820190506136f260008301846136ce565b92915050565b6137018161364c565b82525050565b600060208201905061371c60008301846136f8565b92915050565b60008060006060848603121561373b5761373a6135e4565b5b600061374986828701613637565b935050602061375a86828701613637565b925050604061376b8682870161366d565b9150509250925092565b600060ff82169050919050565b61378b81613775565b82525050565b60006020820190506137a66000830184613782565b92915050565b6000819050919050565b6137bf816137ac565b82525050565b60006020820190506137da60008301846137b6565b92915050565b6000602082840312156137f6576137f56135e4565b5b60006138048482850161366d565b91505092915050565b600060208284031215613823576138226135e4565b5b600061383184828501613637565b91505092915050565b6138438161360e565b82525050565b600060208201905061385e600083018461383a565b92915050565b600061386f8261360e565b9050919050565b61387f81613864565b811461388a57600080fd5b50565b60008135905061389c81613876565b92915050565b600080fd5b600080fd5b600080fd5b60008083601f8401126138c7576138c66138a2565b5b8235905067ffffffffffffffff8111156138e4576138e36138a7565b5b602083019150836001820283011115613900576138ff6138ac565b5b9250929050565b600080600080600060808688031215613923576139226135e4565b5b60006139318882890161388d565b955050602061394288828901613637565b94505060406139538882890161366d565b935050606086013567ffffffffffffffff811115613974576139736135e9565b5b613980888289016138b1565b92509250509295509295909350565b600063ffffffff82169050919050565b6139a88161398f565b82525050565b60006020820190506139c3600083018461399f565b92915050565b6139d281613775565b81146139dd57600080fd5b50565b6000813590506139ef816139c9565b92915050565b6139fe816137ac565b8114613a0957600080fd5b50565b600081359050613a1b816139f5565b92915050565b60008060008060008060c08789031215613a3e57613a3d6135e4565b5b6000613a4c89828a01613637565b9650506020613a5d89828a0161366d565b9550506040613a6e89828a0161366d565b9450506060613a7f89828a016139e0565b9350506080613a9089828a01613a0c565b92505060a0613aa189828a01613a0c565b9150509295509295509295565b600080600080600080600060e0888a031215613acd57613acc6135e4565b5b6000613adb8a828b01613637565b9750506020613aec8a828b01613637565b9650506040613afd8a828b0161366d565b9550506060613b0e8a828b0161366d565b9450506080613b1f8a828b016139e0565b93505060a0613b308a828b01613a0c565b92505060c0613b418a828b01613a0c565b91505092959891949750929550565b60008060408385031215613b6757613b666135e4565b5b6000613b7585828601613637565b9250506020613b8685828601613637565b9150509250929050565b613b998161398f565b8114613ba457600080fd5b50565b600081359050613bb681613b90565b92915050565b60008060408385031215613bd357613bd26135e4565b5b6000613be185828601613637565b9250506020613bf285828601613ba7565b9150509250929050565b613c058161398f565b82525050565b60007bffffffffffffffffffffffffffffffffffffffffffffffffffffffff82169050919050565b613c3c81613c0b565b82525050565b604082016000820151613c586000850182613bfc565b506020820151613c6b6020850182613c33565b50505050565b6000604082019050613c866000830184613c42565b92915050565b7f4e487b7100000000000000000000000000000000000000000000000000000000600052602260045260246000fd5b60006002820490506001821680613cd357607f821691505b602082108103613ce657613ce5613c8c565b5b50919050565b7f4e487b7100000000000000000000000000000000000000000000000000000000600052601160045260246000fd5b6000613d268261364c565b9150613d318361364c565b9250828201905080821115613d4957613d48613cec565b5b92915050565b7f4552433230566f7465733a20626c6f636b206e6f7420796574206d696e656400600082015250565b6000613d85601f8361353d565b9150613d9082613d4f565b602082019050919050565b60006020820190508181036000830152613db481613d78565b9050919050565b7f4552433230466c6173684d696e743a20616d6f756e742065786365656473206d60008201527f6178466c6173684c6f616e000000000000000000000000000000000000000000602082015250565b6000613e17602b8361353d565b9150613e2282613dbb565b604082019050919050565b60006020820190508181036000830152613e4681613e0a565b9050919050565b600082825260208201905092915050565b82818337600083830152505050565b6000613e798385613e4d565b9350613e86838584613e5e565b613e8f83613578565b840190509392505050565b600060a082019050613eaf600083018961383a565b613ebc602083018861383a565b613ec960408301876136f8565b613ed660608301866136f8565b8181036080830152613ee9818486613e6d565b9050979650505050505050565b600081519050613f05816139f5565b92915050565b600060208284031215613f2157613f206135e4565b5b6000613f2f84828501613ef6565b91505092915050565b7f4552433230466c6173684d696e743a20696e76616c69642072657475726e207660008201527f616c756500000000000000000000000000000000000000000000000000000000602082015250565b6000613f9460248361353d565b9150613f9f82613f38565b604082019050919050565b60006020820190508181036000830152613fc381613f87565b9050919050565b6000613fd58261364c565b9150613fe08361364c565b9250828203905081811115613ff857613ff7613cec565b5b92915050565b7f4e487b7100000000000000000000000000000000000000000000000000000000600052603260045260246000fd5b7f45524332303a2064656372656173656420616c6c6f77616e63652062656c6f7760008201527f207a65726f000000000000000000000000000000000000000000000000000000602082015250565b600061408960258361353d565b91506140948261402d565b604082019050919050565b600060208201905081810360008301526140b88161407c565b9050919050565b7f4552433230566f7465733a207369676e61747572652065787069726564000000600082015250565b60006140f5601d8361353d565b9150614100826140bf565b602082019050919050565b60006020820190508181036000830152614124816140e8565b9050919050565b600060808201905061414060008301876137b6565b61414d602083018661383a565b61415a60408301856136f8565b61416760608301846136f8565b95945050505050565b7f4552433230566f7465733a20696e76616c6964206e6f6e636500000000000000600082015250565b60006141a660198361353d565b91506141b182614170565b602082019050919050565b600060208201905081810360008301526141d581614199565b9050919050565b7f45524332305065726d69743a206578706972656420646561646c696e65000000600082015250565b6000614212601d8361353d565b915061421d826141dc565b602082019050919050565b6000602082019050818103600083015261424181614205565b9050919050565b600060c08201905061425d60008301896137b6565b61426a602083018861383a565b614277604083018761383a565b61428460608301866136f8565b61429160808301856136f8565b61429e60a08301846136f8565b979650505050505050565b7f45524332305065726d69743a20696e76616c6964207369676e61747572650000600082015250565b60006142df601e8361353d565b91506142ea826142a9565b602082019050919050565b6000602082019050818103600083015261430e816142d2565b9050919050565b7f4552433230466c6173684d696e743a2077726f6e6720746f6b656e0000000000600082015250565b600061434b601b8361353d565b915061435682614315565b602082019050919050565b6000602082019050818103600083015261437a8161433e565b9050919050565b7f4f776e61626c653a206e6577206f776e657220697320746865207a65726f206160008201527f6464726573730000000000000000000000000000000000000000000000000000602082015250565b60006143dd60268361353d565b91506143e882614381565b604082019050919050565b6000602082019050818103600083015261440c816143d0565b9050919050565b7f4552433230566f7465733a20746f74616c20737570706c79207269736b73206f60008201527f766572666c6f77696e6720766f74657300000000000000000000000000000000602082015250565b600061446f60308361353d565b915061447a82614413565b604082019050919050565b6000602082019050818103600083015261449e81614462565b9050919050565b7f45524332303a206d696e7420746f20746865207a65726f206164647265737300600082015250565b60006144db601f8361353d565b91506144e6826144a5565b602082019050919050565b6000602082019050818103600083015261450a816144ce565b9050919050565b7f53616665436173743a2076616c756520646f65736e27742066697420696e203260008201527f3234206269747300000000000000000000000000000000000000000000000000602082015250565b600061456d60278361353d565b915061457882614511565b604082019050919050565b6000602082019050818103600083015261459c81614560565b9050919050565b7f53616665436173743a2076616c756520646f65736e27742066697420696e203360008201527f3220626974730000000000000000000000000000000000000000000000000000602082015250565b60006145ff60268361353d565b915061460a826145a3565b604082019050919050565b6000602082019050818103600083015261462e816145f2565b9050919050565b7f45524332303a20617070726f76652066726f6d20746865207a65726f2061646460008201527f7265737300000000000000000000000000000000000000000000000000000000602082015250565b600061469160248361353d565b915061469c82614635565b604082019050919050565b600060208201905081810360008301526146c081614684565b9050919050565b7f45524332303a20617070726f766520746f20746865207a65726f20616464726560008201527f7373000000000000000000000000000000000000000000000000000000000000602082015250565b600061472360228361353d565b915061472e826146c7565b604082019050919050565b6000602082019050818103600083015261475281614716565b9050919050565b7f45524332303a20696e73756666696369656e7420616c6c6f77616e6365000000600082015250565b600061478f601d8361353d565b915061479a82614759565b602082019050919050565b600060208201905081810360008301526147be81614782565b9050919050565b7f45524332303a207472616e736665722066726f6d20746865207a65726f20616460008201527f6472657373000000000000000000000000000000000000000000000000000000602082015250565b600061482160258361353d565b915061482c826147c5565b604082019050919050565b6000602082019050818103600083015261485081614814565b9050919050565b7f45524332303a207472616e7366657220746f20746865207a65726f206164647260008201527f6573730000000000000000000000000000000000000000000000000000000000602082015250565b60006148b360238361353d565b91506148be82614857565b604082019050919050565b600060208201905081810360008301526148e2816148a6565b9050919050565b7f45524332303a207472616e7366657220616d6f756e742065786365656473206260008201527f616c616e63650000000000000000000000000000000000000000000000000000602082015250565b600061494560268361353d565b9150614950826148e9565b604082019050919050565b6000602082019050818103600083015261497481614938565b9050919050565b7f4f776e61626c653a2063616c6c6572206973206e6f7420746865206f776e6572600082015250565b60006149b160208361353d565b91506149bc8261497b565b602082019050919050565b600060208201905081810360008301526149e0816149a4565b9050919050565b7f4552433230536e617073686f743a206964206973203000000000000000000000600082015250565b6000614a1d60168361353d565b9150614a28826149e7565b602082019050919050565b60006020820190508181036000830152614a4c81614a10565b9050919050565b7f4552433230536e617073686f743a206e6f6e6578697374656e74206964000000600082015250565b6000614a89601d8361353d565b9150614a9482614a53565b602082019050919050565b60006020820190508181036000830152614ab881614a7c565b9050919050565b6000604082019050614ad460008301856136f8565b614ae160208301846136f8565b9392505050565b600060a082019050614afd60008301886137b6565b614b0a60208301876137b6565b614b1760408301866137b6565b614b2460608301856136f8565b614b31608083018461383a565b9695505050505050565b7f4e487b7100000000000000000000000000000000000000000000000000000000600052601260045260246000fd5b6000614b758261364c565b9150614b808361364c565b925082614b9057614b8f614b3b565b5b828204905092915050565b7f5061757361626c653a206e6f7420706175736564000000000000000000000000600082015250565b6000614bd160148361353d565b9150614bdc82614b9b565b602082019050919050565b60006020820190508181036000830152614c0081614bc4565b9050919050565b7f5061757361626c653a2070617573656400000000000000000000000000000000600082015250565b6000614c3d60108361353d565b9150614c4882614c07565b602082019050919050565b60006020820190508181036000830152614c6c81614c30565b9050919050565b600081905092915050565b7f1901000000000000000000000000000000000000000000000000000000000000600082015250565b6000614cb4600283614c73565b9150614cbf82614c7e565b600282019050919050565b6000819050919050565b614ce5614ce0826137ac565b614cca565b82525050565b6000614cf682614ca7565b9150614d028285614cd4565b602082019150614d128284614cd4565b6020820191508190509392505050565b6000608082019050614d3760008301876137b6565b614d446020830186613782565b614d5160408301856137b6565b614d5e60608301846137b6565b95945050505050565b7f4e487b7100000000000000000000000000000000000000000000000000000000600052602160045260246000fd5b7f45434453413a20696e76616c6964207369676e61747572650000000000000000600082015250565b6000614dcc60188361353d565b9150614dd782614d96565b602082019050919050565b60006020820190508181036000830152614dfb81614dbf565b9050919050565b7f45434453413a20696e76616c6964207369676e6174757265206c656e67746800600082015250565b6000614e38601f8361353d565b9150614e4382614e02565b602082019050919050565b60006020820190508181036000830152614e6781614e2b565b9050919050565b7f45434453413a20696e76616c6964207369676e6174757265202773272076616c60008201527f7565000000000000000000000000000000000000000000000000000000000000602082015250565b6000614eca60228361353d565b9150614ed582614e6e565b604082019050919050565b60006020820190508181036000830152614ef981614ebd565b9050919050565b7f45524332303a206275726e2066726f6d20746865207a65726f2061646472657360008201527f7300000000000000000000000000000000000000000000000000000000000000602082015250565b6000614f5c60218361353d565b9150614f6782614f00565b604082019050919050565b60006020820190508181036000830152614f8b81614f4f565b9050919050565b7f45524332303a206275726e20616d6f756e7420657863656564732062616c616e60008201527f6365000000000000000000000000000000000000000000000000000000000000602082015250565b6000614fee60228361353d565b9150614ff982614f92565b604082019050919050565b6000602082019050818103600083015261501d81614fe1565b905091905056fea2646970667358221220ba6117b8ef3f5dc271317573fc2be24ab96eb76f7b9fe04de612e6193cc4a84a64736f6c63430008120033",
			"opcodes": "PUSH2 0x140 PUSH1 0x40 MSTORE CALLVALUE DUP1 ISZERO PUSH3 0x12 JUMPI PUSH1 0x0 DUP1 REVERT JUMPDEST POP PUSH1 0x40 MLOAD DUP1 PUSH1 0x40 ADD PUSH1 0x40 MSTORE DUP1 PUSH1 0xB DUP2 MSTORE PUSH1 0x20 ADD PUSH32 0x546F796F7461546F6B656E000000000000000000000000000000000000000000 DUP2 MSTORE POP DUP1 PUSH1 0x40 MLOAD DUP1 PUSH1 0x40 ADD PUSH1 0x40 MSTORE DUP1 PUSH1 0x1 DUP2 MSTORE PUSH1 0x20 ADD PUSH32 0x3100000000000000000000000000000000000000000000000000000000000000 DUP2 MSTORE POP PUSH1 0x40 MLOAD DUP1 PUSH1 0x40 ADD PUSH1 0x40 MSTORE DUP1 PUSH1 0xB DUP2 MSTORE PUSH1 0x20 ADD PUSH32 0x546F796F7461546F6B656E000000000000000000000000000000000000000000 DUP2 MSTORE POP PUSH1 0x40 MLOAD DUP1 PUSH1 0x40 ADD PUSH1 0x40 MSTORE DUP1 PUSH1 0x3 DUP2 MSTORE PUSH1 0x20 ADD PUSH32 0x5454590000000000000000000000000000000000000000000000000000000000 DUP2 MSTORE POP DUP2 PUSH1 0x3 SWAP1 DUP2 PUSH3 0xFD SWAP2 SWAP1 PUSH3 0x12CB JUMP JUMPDEST POP DUP1 PUSH1 0x4 SWAP1 DUP2 PUSH3 0x10F SWAP2 SWAP1 PUSH3 0x12CB JUMP JUMPDEST POP POP POP PUSH3 0x132 PUSH3 0x126 PUSH3 0x245 PUSH1 0x20 SHL PUSH1 0x20 SHR JUMP JUMPDEST PUSH3 0x24D PUSH1 0x20 SHL PUSH1 0x20 SHR JUMP JUMPDEST PUSH1 0x0 PUSH1 0x9 PUSH1 0x14 PUSH2 0x100 EXP DUP2 SLOAD DUP2 PUSH1 0xFF MUL NOT AND SWAP1 DUP4 ISZERO ISZERO MUL OR SWAP1 SSTORE POP PUSH1 0x0 DUP3 DUP1 MLOAD SWAP1 PUSH1 0x20 ADD KECCAK256 SWAP1 POP PUSH1 0x0 DUP3 DUP1 MLOAD SWAP1 PUSH1 0x20 ADD KECCAK256 SWAP1 POP PUSH1 0x0 PUSH32 0x8B73C3C69BB8FE3D512ECC4CF759CC79239F7B179B0FFACAA9A75D522B39400F SWAP1 POP DUP3 PUSH1 0xE0 DUP2 DUP2 MSTORE POP POP DUP2 PUSH2 0x100 DUP2 DUP2 MSTORE POP POP CHAINID PUSH1 0xA0 DUP2 DUP2 MSTORE POP POP PUSH3 0x1B6 DUP2 DUP5 DUP5 PUSH3 0x313 PUSH1 0x20 SHL PUSH1 0x20 SHR JUMP JUMPDEST PUSH1 0x80 DUP2 DUP2 MSTORE POP POP ADDRESS PUSH20 0xFFFFFFFFFFFFFFFFFFFFFFFFFFFFFFFFFFFFFFFF AND PUSH1 0xC0 DUP2 PUSH20 0xFFFFFFFFFFFFFFFFFFFFFFFFFFFFFFFFFFFFFFFF AND DUP2 MSTORE POP POP DUP1 PUSH2 0x120 DUP2 DUP2 MSTORE POP POP POP POP POP POP POP POP PUSH3 0x23F CALLER PUSH3 0x215 PUSH3 0x34F PUSH1 0x20 SHL PUSH1 0x20 SHR JUMP JUMPDEST PUSH1 0xA PUSH3 0x223 SWAP2 SWAP1 PUSH3 0x1542 JUMP JUMPDEST PUSH3 0x186A0 PUSH3 0x233 SWAP2 SWAP1 PUSH3 0x1593 JUMP JUMPDEST PUSH3 0x358 PUSH1 0x20 SHL PUSH1 0x20 SHR JUMP JUMPDEST PUSH3 0x1A58 JUMP JUMPDEST PUSH1 0x0 CALLER SWAP1 POP SWAP1 JUMP JUMPDEST PUSH1 0x0 PUSH1 0x9 PUSH1 0x0 SWAP1 SLOAD SWAP1 PUSH2 0x100 EXP SWAP1 DIV PUSH20 0xFFFFFFFFFFFFFFFFFFFFFFFFFFFFFFFFFFFFFFFF AND SWAP1 POP DUP2 PUSH1 0x9 PUSH1 0x0 PUSH2 0x100 EXP DUP2 SLOAD DUP2 PUSH20 0xFFFFFFFFFFFFFFFFFFFFFFFFFFFFFFFFFFFFFFFF MUL NOT AND SWAP1 DUP4 PUSH20 0xFFFFFFFFFFFFFFFFFFFFFFFFFFFFFFFFFFFFFFFF AND MUL OR SWAP1 SSTORE POP DUP2 PUSH20 0xFFFFFFFFFFFFFFFFFFFFFFFFFFFFFFFFFFFFFFFF AND DUP2 PUSH20 0xFFFFFFFFFFFFFFFFFFFFFFFFFFFFFFFFFFFFFFFF AND PUSH32 0x8BE0079C531659141344CD1FD0A4F28419497F9722A3DAAFE3B4186F6B6457E0 PUSH1 0x40 MLOAD PUSH1 0x40 MLOAD DUP1 SWAP2 SUB SWAP1 LOG3 POP POP JUMP JUMPDEST PUSH1 0x0 DUP4 DUP4 DUP4 CHAINID ADDRESS PUSH1 0x40 MLOAD PUSH1 0x20 ADD PUSH3 0x330 SWAP6 SWAP5 SWAP4 SWAP3 SWAP2 SWAP1 PUSH3 0x164F JUMP JUMPDEST PUSH1 0x40 MLOAD PUSH1 0x20 DUP2 DUP4 SUB SUB DUP2 MSTORE SWAP1 PUSH1 0x40 MSTORE DUP1 MLOAD SWAP1 PUSH1 0x20 ADD KECCAK256 SWAP1 POP SWAP4 SWAP3 POP POP POP JUMP JUMPDEST PUSH1 0x0 PUSH1 0x12 SWAP1 POP SWAP1 JUMP JUMPDEST PUSH3 0x36F DUP3 DUP3 PUSH3 0x373 PUSH1 0x20 SHL PUSH3 0x1604 OR PUSH1 0x20 SHR JUMP JUMPDEST POP POP JUMP JUMPDEST PUSH3 0x38A DUP3 DUP3 PUSH3 0x431 PUSH1 0x20 SHL PUSH3 0x1691 OR PUSH1 0x20 SHR JUMP JUMPDEST PUSH3 0x39A PUSH3 0x59E PUSH1 0x20 SHL PUSH1 0x20 SHR JUMP JUMPDEST PUSH28 0xFFFFFFFFFFFFFFFFFFFFFFFFFFFFFFFFFFFFFFFFFFFFFFFFFFFFFFFF AND PUSH3 0x3C8 PUSH3 0x5C2 PUSH1 0x20 SHL PUSH1 0x20 SHR JUMP JUMPDEST GT ISZERO PUSH3 0x40C JUMPI PUSH1 0x40 MLOAD PUSH32 0x8C379A000000000000000000000000000000000000000000000000000000000 DUP2 MSTORE PUSH1 0x4 ADD PUSH3 0x403 SWAP1 PUSH3 0x1733 JUMP JUMPDEST PUSH1 0x40 MLOAD DUP1 SWAP2 SUB SWAP1 REVERT JUMPDEST PUSH3 0x42B PUSH1 0xE PUSH3 0x5CC PUSH1 0x20 SHL PUSH3 0x17E7 OR DUP4 PUSH3 0x5E4 PUSH1 0x20 SHL PUSH1 0x20 SHR JUMP JUMPDEST POP POP POP POP JUMP JUMPDEST PUSH1 0x0 PUSH20 0xFFFFFFFFFFFFFFFFFFFFFFFFFFFFFFFFFFFFFFFF AND DUP3 PUSH20 0xFFFFFFFFFFFFFFFFFFFFFFFFFFFFFFFFFFFFFFFF AND SUB PUSH3 0x4A3 JUMPI PUSH1 0x40 MLOAD PUSH32 0x8C379A000000000000000000000000000000000000000000000000000000000 DUP2 MSTORE PUSH1 0x4 ADD PUSH3 0x49A SWAP1 PUSH3 0x17A5 JUMP JUMPDEST PUSH1 0x40 MLOAD DUP1 SWAP2 SUB SWAP1 REVERT JUMPDEST PUSH3 0x4B7 PUSH1 0x0 DUP4 DUP4 PUSH3 0x8F1 PUSH1 0x20 SHL PUSH1 0x20 SHR JUMP JUMPDEST DUP1 PUSH1 0x2 PUSH1 0x0 DUP3 DUP3 SLOAD PUSH3 0x4CB SWAP2 SWAP1 PUSH3 0x17C7 JUMP JUMPDEST SWAP3 POP POP DUP2 SWAP1 SSTORE POP DUP1 PUSH1 0x0 DUP1 DUP5 PUSH20 0xFFFFFFFFFFFFFFFFFFFFFFFFFFFFFFFFFFFFFFFF AND PUSH20 0xFFFFFFFFFFFFFFFFFFFFFFFFFFFFFFFFFFFFFFFF AND DUP2 MSTORE PUSH1 0x20 ADD SWAP1 DUP2 MSTORE PUSH1 0x20 ADD PUSH1 0x0 KECCAK256 PUSH1 0x0 DUP3 DUP3 SLOAD ADD SWAP3 POP POP DUP2 SWAP1 SSTORE POP DUP2 PUSH20 0xFFFFFFFFFFFFFFFFFFFFFFFFFFFFFFFFFFFFFFFF AND PUSH1 0x0 PUSH20 0xFFFFFFFFFFFFFFFFFFFFFFFFFFFFFFFFFFFFFFFF AND PUSH32 0xDDF252AD1BE2C89B69C2B068FC378DAA952BA7F163C4A11628F55A4DF523B3EF DUP4 PUSH1 0x40 MLOAD PUSH3 0x57E SWAP2 SWAP1 PUSH3 0x1802 JUMP JUMPDEST PUSH1 0x40 MLOAD DUP1 SWAP2 SUB SWAP1 LOG3 PUSH3 0x59A PUSH1 0x0 DUP4 DUP4 PUSH3 0x91E PUSH1 0x20 SHL PUSH1 0x20 SHR JUMP JUMPDEST POP POP JUMP JUMPDEST PUSH1 0x0 PUSH28 0xFFFFFFFFFFFFFFFFFFFFFFFFFFFFFFFFFFFFFFFFFFFFFFFFFFFFFFFF SWAP1 POP SWAP1 JUMP JUMPDEST PUSH1 0x0 PUSH1 0x2 SLOAD SWAP1 POP SWAP1 JUMP JUMPDEST PUSH1 0x0 DUP2 DUP4 PUSH3 0x5DC SWAP2 SWAP1 PUSH3 0x17C7 JUMP JUMPDEST SWAP1 POP SWAP3 SWAP2 POP POP JUMP JUMPDEST PUSH1 0x0 DUP1 PUSH1 0x0 DUP6 DUP1 SLOAD SWAP1 POP SWAP1 POP PUSH1 0x0 DUP1 DUP3 EQ PUSH3 0x6BF JUMPI PUSH3 0x61A DUP8 PUSH1 0x1 DUP5 PUSH3 0x60E SWAP2 SWAP1 PUSH3 0x181F JUMP JUMPDEST PUSH3 0x93B PUSH1 0x20 SHL PUSH1 0x20 SHR JUMP JUMPDEST PUSH1 0x40 MLOAD DUP1 PUSH1 0x40 ADD PUSH1 0x40 MSTORE SWAP1 DUP2 PUSH1 0x0 DUP3 ADD PUSH1 0x0 SWAP1 SLOAD SWAP1 PUSH2 0x100 EXP SWAP1 DIV PUSH4 0xFFFFFFFF AND PUSH4 0xFFFFFFFF AND PUSH4 0xFFFFFFFF AND DUP2 MSTORE PUSH1 0x20 ADD PUSH1 0x0 DUP3 ADD PUSH1 0x4 SWAP1 SLOAD SWAP1 PUSH2 0x100 EXP SWAP1 DIV PUSH28 0xFFFFFFFFFFFFFFFFFFFFFFFFFFFFFFFFFFFFFFFFFFFFFFFFFFFFFFFF AND PUSH28 0xFFFFFFFFFFFFFFFFFFFFFFFFFFFFFFFFFFFFFFFFFFFFFFFFFFFFFFFF AND PUSH28 0xFFFFFFFFFFFFFFFFFFFFFFFFFFFFFFFFFFFFFFFFFFFFFFFFFFFFFFFF AND DUP2 MSTORE POP POP PUSH3 0x6FB JUMP JUMPDEST PUSH1 0x40 MLOAD DUP1 PUSH1 0x40 ADD PUSH1 0x40 MSTORE DUP1 PUSH1 0x0 PUSH4 0xFFFFFFFF AND DUP2 MSTORE PUSH1 0x20 ADD PUSH1 0x0 PUSH28 0xFFFFFFFFFFFFFFFFFFFFFFFFFFFFFFFFFFFFFFFFFFFFFFFFFFFFFFFF AND DUP2 MSTORE POP JUMPDEST SWAP1 POP DUP1 PUSH1 0x20 ADD MLOAD PUSH28 0xFFFFFFFFFFFFFFFFFFFFFFFFFFFFFFFFFFFFFFFFFFFFFFFFFFFFFFFF AND SWAP4 POP PUSH3 0x72E DUP5 DUP7 DUP9 PUSH1 0x20 SHR JUMP JUMPDEST SWAP3 POP PUSH1 0x0 DUP3 GT DUP1 ISZERO PUSH3 0x74A JUMPI POP NUMBER DUP2 PUSH1 0x0 ADD MLOAD PUSH4 0xFFFFFFFF AND EQ JUMPDEST ISZERO PUSH3 0x7DD JUMPI PUSH3 0x766 DUP4 PUSH3 0x950 PUSH1 0x20 SHL PUSH3 0x17FD OR PUSH1 0x20 SHR JUMP JUMPDEST PUSH3 0x786 DUP9 PUSH1 0x1 DUP6 PUSH3 0x77A SWAP2 SWAP1 PUSH3 0x181F JUMP JUMPDEST PUSH3 0x93B PUSH1 0x20 SHL PUSH1 0x20 SHR JUMP JUMPDEST PUSH1 0x0 ADD PUSH1 0x4 PUSH2 0x100 EXP DUP2 SLOAD DUP2 PUSH28 0xFFFFFFFFFFFFFFFFFFFFFFFFFFFFFFFFFFFFFFFFFFFFFFFFFFFFFFFF MUL NOT AND SWAP1 DUP4 PUSH28 0xFFFFFFFFFFFFFFFFFFFFFFFFFFFFFFFFFFFFFFFFFFFFFFFFFFFFFFFF AND MUL OR SWAP1 SSTORE POP PUSH3 0x8E7 JUMP JUMPDEST DUP7 PUSH1 0x40 MLOAD DUP1 PUSH1 0x40 ADD PUSH1 0x40 MSTORE DUP1 PUSH3 0x7FF NUMBER PUSH3 0x9BE PUSH1 0x20 SHL PUSH3 0x1868 OR PUSH1 0x20 SHR JUMP JUMPDEST PUSH4 0xFFFFFFFF AND DUP2 MSTORE PUSH1 0x20 ADD PUSH3 0x820 DUP7 PUSH3 0x950 PUSH1 0x20 SHL PUSH3 0x17FD OR PUSH1 0x20 SHR JUMP JUMPDEST PUSH28 0xFFFFFFFFFFFFFFFFFFFFFFFFFFFFFFFFFFFFFFFFFFFFFFFFFFFFFFFF AND DUP2 MSTORE POP SWAP1 DUP1 PUSH1 0x1 DUP2 SLOAD ADD DUP1 DUP3 SSTORE DUP1 SWAP2 POP POP PUSH1 0x1 SWAP1 SUB SWAP1 PUSH1 0x0 MSTORE PUSH1 0x20 PUSH1 0x0 KECCAK256 ADD PUSH1 0x0 SWAP1 SWAP2 SWAP1 SWAP2 SWAP1 SWAP2 POP PUSH1 0x0 DUP3 ADD MLOAD DUP2 PUSH1 0x0 ADD PUSH1 0x0 PUSH2 0x100 EXP DUP2 SLOAD DUP2 PUSH4 0xFFFFFFFF MUL NOT AND SWAP1 DUP4 PUSH4 0xFFFFFFFF AND MUL OR SWAP1 SSTORE POP PUSH1 0x20 DUP3 ADD MLOAD DUP2 PUSH1 0x0 ADD PUSH1 0x4 PUSH2 0x100 EXP DUP2 SLOAD DUP2 PUSH28 0xFFFFFFFFFFFFFFFFFFFFFFFFFFFFFFFFFFFFFFFFFFFFFFFFFFFFFFFF MUL NOT AND SWAP1 DUP4 PUSH28 0xFFFFFFFFFFFFFFFFFFFFFFFFFFFFFFFFFFFFFFFFFFFFFFFFFFFFFFFF AND MUL OR SWAP1 SSTORE POP POP POP JUMPDEST POP POP SWAP4 POP SWAP4 SWAP2 POP POP JUMP JUMPDEST PUSH3 0x901 PUSH3 0xA14 PUSH1 0x20 SHL PUSH1 0x20 SHR JUMP JUMPDEST PUSH3 0x919 DUP4 DUP4 DUP4 PUSH3 0xA69 PUSH1 0x20 SHL PUSH3 0x18BB OR PUSH1 0x20 SHR JUMP JUMPDEST POP POP POP JUMP JUMPDEST PUSH3 0x936 DUP4 DUP4 DUP4 PUSH3 0xB62 PUSH1 0x20 SHL PUSH3 0x1973 OR PUSH1 0x20 SHR JUMP JUMPDEST POP POP POP JUMP JUMPDEST PUSH1 0x0 DUP3 PUSH1 0x0 MSTORE DUP2 PUSH1 0x20 PUSH1 0x0 KECCAK256 ADD SWAP1 POP SWAP3 SWAP2 POP POP JUMP JUMPDEST PUSH1 0x0 PUSH28 0xFFFFFFFFFFFFFFFFFFFFFFFFFFFFFFFFFFFFFFFFFFFFFFFFFFFFFFFF DUP1 AND DUP3 GT ISZERO PUSH3 0x9B6 JUMPI PUSH1 0x40 MLOAD PUSH32 0x8C379A000000000000000000000000000000000000000000000000000000000 DUP2 MSTORE PUSH1 0x4 ADD PUSH3 0x9AD SWAP1 PUSH3 0x18D0 JUMP JUMPDEST PUSH1 0x40 MLOAD DUP1 SWAP2 SUB SWAP1 REVERT JUMPDEST DUP2 SWAP1 POP SWAP2 SWAP1 POP JUMP JUMPDEST PUSH1 0x0 PUSH4 0xFFFFFFFF DUP1 AND DUP3 GT ISZERO PUSH3 0xA0C JUMPI PUSH1 0x40 MLOAD PUSH32 0x8C379A000000000000000000000000000000000000000000000000000000000 DUP2 MSTORE PUSH1 0x4 ADD PUSH3 0xA03 SWAP1 PUSH3 0x1968 JUMP JUMPDEST PUSH1 0x40 MLOAD DUP1 SWAP2 SUB SWAP1 REVERT JUMPDEST DUP2 SWAP1 POP SWAP2 SWAP1 POP JUMP JUMPDEST PUSH3 0xA24 PUSH3 0xBB2 PUSH1 0x20 SHL PUSH1 0x20 SHR JUMP JUMPDEST ISZERO PUSH3 0xA67 JUMPI PUSH1 0x40 MLOAD PUSH32 0x8C379A000000000000000000000000000000000000000000000000000000000 DUP2 MSTORE PUSH1 0x4 ADD PUSH3 0xA5E SWAP1 PUSH3 0x19DA JUMP JUMPDEST PUSH1 0x40 MLOAD DUP1 SWAP2 SUB SWAP1 REVERT JUMPDEST JUMP JUMPDEST PUSH3 0xA81 DUP4 DUP4 DUP4 PUSH3 0xBC9 PUSH1 0x20 SHL PUSH3 0x199E OR PUSH1 0x20 SHR JUMP JUMPDEST PUSH1 0x0 PUSH20 0xFFFFFFFFFFFFFFFFFFFFFFFFFFFFFFFFFFFFFFFF AND DUP4 PUSH20 0xFFFFFFFFFFFFFFFFFFFFFFFFFFFFFFFFFFFFFFFF AND SUB PUSH3 0xADD JUMPI PUSH3 0xAC7 DUP3 PUSH3 0xBCE PUSH1 0x20 SHL PUSH1 0x20 SHR JUMP JUMPDEST PUSH3 0xAD7 PUSH3 0xC31 PUSH1 0x20 SHL PUSH1 0x20 SHR JUMP JUMPDEST PUSH3 0xB5D JUMP JUMPDEST PUSH1 0x0 PUSH20 0xFFFFFFFFFFFFFFFFFFFFFFFFFFFFFFFFFFFFFFFF AND DUP3 PUSH20 0xFFFFFFFFFFFFFFFFFFFFFFFFFFFFFFFFFFFFFFFF AND SUB PUSH3 0xB39 JUMPI PUSH3 0xB23 DUP4 PUSH3 0xBCE PUSH1 0x20 SHL PUSH1 0x20 SHR JUMP JUMPDEST PUSH3 0xB33 PUSH3 0xC31 PUSH1 0x20 SHL PUSH1 0x20 SHR JUMP JUMPDEST PUSH3 0xB5C JUMP JUMPDEST PUSH3 0xB4A DUP4 PUSH3 0xBCE PUSH1 0x20 SHL PUSH1 0x20 SHR JUMP JUMPDEST PUSH3 0xB5B DUP3 PUSH3 0xBCE PUSH1 0x20 SHL PUSH1 0x20 SHR JUMP JUMPDEST JUMPDEST JUMPDEST POP POP POP JUMP JUMPDEST PUSH3 0xB7A DUP4 DUP4 DUP4 PUSH3 0xC55 PUSH1 0x20 SHL PUSH3 0x19A3 OR PUSH1 0x20 SHR JUMP JUMPDEST PUSH3 0xBAD PUSH3 0xB8F DUP5 PUSH3 0xC5A PUSH1 0x20 SHL PUSH1 0x20 SHR JUMP JUMPDEST PUSH3 0xBA0 DUP5 PUSH3 0xC5A PUSH1 0x20 SHL PUSH1 0x20 SHR JUMP JUMPDEST DUP4 PUSH3 0xCC3 PUSH1 0x20 SHL PUSH1 0x20 SHR JUMP JUMPDEST POP POP POP JUMP JUMPDEST PUSH1 0x0 PUSH1 0x9 PUSH1 0x14 SWAP1 SLOAD SWAP1 PUSH2 0x100 EXP SWAP1 DIV PUSH1 0xFF AND SWAP1 POP SWAP1 JUMP JUMPDEST POP POP POP JUMP JUMPDEST PUSH3 0xC2E PUSH1 0x5 PUSH1 0x0 DUP4 PUSH20 0xFFFFFFFFFFFFFFFFFFFFFFFFFFFFFFFFFFFFFFFF AND PUSH20 0xFFFFFFFFFFFFFFFFFFFFFFFFFFFFFFFFFFFFFFFF AND DUP2 MSTORE PUSH1 0x20 ADD SWAP1 DUP2 MSTORE PUSH1 0x20 ADD PUSH1 0x0 KECCAK256 PUSH3 0xC22 DUP4 PUSH3 0xEE6 PUSH1 0x20 SHL PUSH1 0x20 SHR JUMP JUMPDEST PUSH3 0xF2E PUSH1 0x20 SHL PUSH1 0x20 SHR JUMP JUMPDEST POP JUMP JUMPDEST PUSH3 0xC53 PUSH1 0x6 PUSH3 0xC47 PUSH3 0x5C2 PUSH1 0x20 SHL PUSH1 0x20 SHR JUMP JUMPDEST PUSH3 0xF2E PUSH1 0x20 SHL PUSH1 0x20 SHR JUMP JUMPDEST JUMP JUMPDEST POP POP POP JUMP JUMPDEST PUSH1 0x0 PUSH1 0xC PUSH1 0x0 DUP4 PUSH20 0xFFFFFFFFFFFFFFFFFFFFFFFFFFFFFFFFFFFFFFFF AND PUSH20 0xFFFFFFFFFFFFFFFFFFFFFFFFFFFFFFFFFFFFFFFF AND DUP2 MSTORE PUSH1 0x20 ADD SWAP1 DUP2 MSTORE PUSH1 0x20 ADD PUSH1 0x0 KECCAK256 PUSH1 0x0 SWAP1 SLOAD SWAP1 PUSH2 0x100 EXP SWAP1 DIV PUSH20 0xFFFFFFFFFFFFFFFFFFFFFFFFFFFFFFFFFFFFFFFF AND SWAP1 POP SWAP2 SWAP1 POP JUMP JUMPDEST DUP2 PUSH20 0xFFFFFFFFFFFFFFFFFFFFFFFFFFFFFFFFFFFFFFFF AND DUP4 PUSH20 0xFFFFFFFFFFFFFFFFFFFFFFFFFFFFFFFFFFFFFFFF AND EQ ISZERO DUP1 ISZERO PUSH3 0xD00 JUMPI POP PUSH1 0x0 DUP2 GT JUMPDEST ISZERO PUSH3 0xEE1 JUMPI PUSH1 0x0 PUSH20 0xFFFFFFFFFFFFFFFFFFFFFFFFFFFFFFFFFFFFFFFF AND DUP4 PUSH20 0xFFFFFFFFFFFFFFFFFFFFFFFFFFFFFFFFFFFFFFFF AND EQ PUSH3 0xDF3 JUMPI PUSH1 0x0 DUP1 PUSH3 0xD9A PUSH1 0xD PUSH1 0x0 DUP8 PUSH20 0xFFFFFFFFFFFFFFFFFFFFFFFFFFFFFFFFFFFFFFFF AND PUSH20 0xFFFFFFFFFFFFFFFFFFFFFFFFFFFFFFFFFFFFFFFF AND DUP2 MSTORE PUSH1 0x20 ADD SWAP1 DUP2 MSTORE PUSH1 0x20 ADD PUSH1 0x0 KECCAK256 PUSH3 0xFBA PUSH1 0x20 SHL PUSH3 0x19A8 OR DUP6 PUSH3 0x5E4 PUSH1 0x20 SHL PUSH1 0x20 SHR JUMP JUMPDEST SWAP2 POP SWAP2 POP DUP5 PUSH20 0xFFFFFFFFFFFFFFFFFFFFFFFFFFFFFFFFFFFFFFFF AND PUSH32 0xDEC2BACDD2F05B59DE34DA9B523DFF8BE42E5E38E818C82FDB0BAE774387A724 DUP4 DUP4 PUSH1 0x40 MLOAD PUSH3 0xDE8 SWAP3 SWAP2 SWAP1 PUSH3 0x19FC JUMP JUMPDEST PUSH1 0x40 MLOAD DUP1 SWAP2 SUB SWAP1 LOG2 POP POP JUMPDEST PUSH1 0x0 PUSH20 0xFFFFFFFFFFFFFFFFFFFFFFFFFFFFFFFFFFFFFFFF AND DUP3 PUSH20 0xFFFFFFFFFFFFFFFFFFFFFFFFFFFFFFFFFFFFFFFF AND EQ PUSH3 0xEE0 JUMPI PUSH1 0x0 DUP1 PUSH3 0xE87 PUSH1 0xD PUSH1 0x0 DUP7 PUSH20 0xFFFFFFFFFFFFFFFFFFFFFFFFFFFFFFFFFFFFFFFF AND PUSH20 0xFFFFFFFFFFFFFFFFFFFFFFFFFFFFFFFFFFFFFFFF AND DUP2 MSTORE PUSH1 0x20 ADD SWAP1 DUP2 MSTORE PUSH1 0x20 ADD PUSH1 0x0 KECCAK256 PUSH3 0x5CC PUSH1 0x20 SHL PUSH3 0x17E7 OR DUP6 PUSH3 0x5E4 PUSH1 0x20 SHL PUSH1 0x20 SHR JUMP JUMPDEST SWAP2 POP SWAP2 POP DUP4 PUSH20 0xFFFFFFFFFFFFFFFFFFFFFFFFFFFFFFFFFFFFFFFF AND PUSH32 0xDEC2BACDD2F05B59DE34DA9B523DFF8BE42E5E38E818C82FDB0BAE774387A724 DUP4 DUP4 PUSH1 0x40 MLOAD PUSH3 0xED5 SWAP3 SWAP2 SWAP1 PUSH3 0x19FC JUMP JUMPDEST PUSH1 0x40 MLOAD DUP1 SWAP2 SUB SWAP1 LOG2 POP POP JUMPDEST JUMPDEST POP POP POP JUMP JUMPDEST PUSH1 0x0 DUP1 PUSH1 0x0 DUP4 PUSH20 0xFFFFFFFFFFFFFFFFFFFFFFFFFFFFFFFFFFFFFFFF AND PUSH20 0xFFFFFFFFFFFFFFFFFFFFFFFFFFFFFFFFFFFFFFFF AND DUP2 MSTORE PUSH1 0x20 ADD SWAP1 DUP2 MSTORE PUSH1 0x20 ADD PUSH1 0x0 KECCAK256 SLOAD SWAP1 POP SWAP2 SWAP1 POP JUMP JUMPDEST PUSH1 0x0 PUSH3 0xF40 PUSH3 0xFD2 PUSH1 0x20 SHL PUSH1 0x20 SHR JUMP JUMPDEST SWAP1 POP DUP1 PUSH3 0xF57 DUP5 PUSH1 0x0 ADD PUSH3 0xFF0 PUSH1 0x20 SHL PUSH1 0x20 SHR JUMP JUMPDEST LT ISZERO PUSH3 0xFB5 JUMPI DUP3 PUSH1 0x0 ADD DUP2 SWAP1 DUP1 PUSH1 0x1 DUP2 SLOAD ADD DUP1 DUP3 SSTORE DUP1 SWAP2 POP POP PUSH1 0x1 SWAP1 SUB SWAP1 PUSH1 0x0 MSTORE PUSH1 0x20 PUSH1 0x0 KECCAK256 ADD PUSH1 0x0 SWAP1 SWAP2 SWAP1 SWAP2 SWAP1 SWAP2 POP SSTORE DUP3 PUSH1 0x1 ADD DUP3 SWAP1 DUP1 PUSH1 0x1 DUP2 SLOAD ADD DUP1 DUP3 SSTORE DUP1 SWAP2 POP POP PUSH1 0x1 SWAP1 SUB SWAP1 PUSH1 0x0 MSTORE PUSH1 0x20 PUSH1 0x0 KECCAK256 ADD PUSH1 0x0 SWAP1 SWAP2 SWAP1 SWAP2 SWAP1 SWAP2 POP SSTORE JUMPDEST POP POP POP JUMP JUMPDEST PUSH1 0x0 DUP2 DUP4 PUSH3 0xFCA SWAP2 SWAP1 PUSH3 0x181F JUMP JUMPDEST SWAP1 POP SWAP3 SWAP2 POP POP JUMP JUMPDEST PUSH1 0x0 PUSH3 0xFEB PUSH1 0x8 PUSH3 0x1043 PUSH1 0x20 SHL PUSH3 0x19BE OR PUSH1 0x20 SHR JUMP JUMPDEST SWAP1 POP SWAP1 JUMP JUMPDEST PUSH1 0x0 DUP1 DUP3 DUP1 SLOAD SWAP1 POP SUB PUSH3 0x1008 JUMPI PUSH1 0x0 SWAP1 POP PUSH3 0x103E JUMP JUMPDEST DUP2 PUSH1 0x1 DUP4 DUP1 SLOAD SWAP1 POP PUSH3 0x101C SWAP2 SWAP1 PUSH3 0x181F JUMP JUMPDEST DUP2 SLOAD DUP2 LT PUSH3 0x1030 JUMPI PUSH3 0x102F PUSH3 0x1A29 JUMP JUMPDEST JUMPDEST SWAP1 PUSH1 0x0 MSTORE PUSH1 0x20 PUSH1 0x0 KECCAK256 ADD SLOAD SWAP1 POP JUMPDEST SWAP2 SWAP1 POP JUMP JUMPDEST PUSH1 0x0 DUP2 PUSH1 0x0 ADD SLOAD SWAP1 POP SWAP2 SWAP1 POP JUMP JUMPDEST PUSH1 0x0 DUP2 MLOAD SWAP1 POP SWAP2 SWAP1 POP JUMP JUMPDEST PUSH32 0x4E487B7100000000000000000000000000000000000000000000000000000000 PUSH1 0x0 MSTORE PUSH1 0x41 PUSH1 0x4 MSTORE PUSH1 0x24 PUSH1 0x0 REVERT JUMPDEST PUSH32 0x4E487B7100000000000000000000000000000000000000000000000000000000 PUSH1 0x0 MSTORE PUSH1 0x22 PUSH1 0x4 MSTORE PUSH1 0x24 PUSH1 0x0 REVERT JUMPDEST PUSH1 0x0 PUSH1 0x2 DUP3 DIV SWAP1 POP PUSH1 0x1 DUP3 AND DUP1 PUSH3 0x10D3 JUMPI PUSH1 0x7F DUP3 AND SWAP2 POP JUMPDEST PUSH1 0x20 DUP3 LT DUP2 SUB PUSH3 0x10E9 JUMPI PUSH3 0x10E8 PUSH3 0x108B JUMP JUMPDEST JUMPDEST POP SWAP2 SWAP1 POP JUMP JUMPDEST PUSH1 0x0 DUP2 SWAP1 POP DUP2 PUSH1 0x0 MSTORE PUSH1 0x20 PUSH1 0x0 KECCAK256 SWAP1 POP SWAP2 SWAP1 POP JUMP JUMPDEST PUSH1 0x0 PUSH1 0x20 PUSH1 0x1F DUP4 ADD DIV SWAP1 POP SWAP2 SWAP1 POP JUMP JUMPDEST PUSH1 0x0 DUP3 DUP3 SHL SWAP1 POP SWAP3 SWAP2 POP POP JUMP JUMPDEST PUSH1 0x0 PUSH1 0x8 DUP4 MUL PUSH3 0x1153 PUSH32 0xFFFFFFFFFFFFFFFFFFFFFFFFFFFFFFFFFFFFFFFFFFFFFFFFFFFFFFFFFFFFFFFF DUP3 PUSH3 0x1114 JUMP JUMPDEST PUSH3 0x115F DUP7 DUP4 PUSH3 0x1114 JUMP JUMPDEST SWAP6 POP DUP1 NOT DUP5 AND SWAP4 POP DUP1 DUP7 AND DUP5 OR SWAP3 POP POP POP SWAP4 SWAP3 POP POP POP JUMP JUMPDEST PUSH1 0x0 DUP2 SWAP1 POP SWAP2 SWAP1 POP JUMP JUMPDEST PUSH1 0x0 DUP2 SWAP1 POP SWAP2 SWAP1 POP JUMP JUMPDEST PUSH1 0x0 PUSH3 0x11AC PUSH3 0x11A6 PUSH3 0x11A0 DUP5 PUSH3 0x1177 JUMP JUMPDEST PUSH3 0x1181 JUMP JUMPDEST PUSH3 0x1177 JUMP JUMPDEST SWAP1 POP SWAP2 SWAP1 POP JUMP JUMPDEST PUSH1 0x0 DUP2 SWAP1 POP SWAP2 SWAP1 POP JUMP JUMPDEST PUSH3 0x11C8 DUP4 PUSH3 0x118B JUMP JUMPDEST PUSH3 0x11E0 PUSH3 0x11D7 DUP3 PUSH3 0x11B3 JUMP JUMPDEST DUP5 DUP5 SLOAD PUSH3 0x1121 JUMP JUMPDEST DUP3 SSTORE POP POP POP POP JUMP JUMPDEST PUSH1 0x0 SWAP1 JUMP JUMPDEST PUSH3 0x11F7 PUSH3 0x11E8 JUMP JUMPDEST PUSH3 0x1204 DUP2 DUP5 DUP5 PUSH3 0x11BD JUMP JUMPDEST POP POP POP JUMP JUMPDEST JUMPDEST DUP2 DUP2 LT ISZERO PUSH3 0x122C JUMPI PUSH3 0x1220 PUSH1 0x0 DUP3 PUSH3 0x11ED JUMP JUMPDEST PUSH1 0x1 DUP2 ADD SWAP1 POP PUSH3 0x120A JUMP JUMPDEST POP POP JUMP JUMPDEST PUSH1 0x1F DUP3 GT ISZERO PUSH3 0x127B JUMPI PUSH3 0x1245 DUP2 PUSH3 0x10EF JUMP JUMPDEST PUSH3 0x1250 DUP5 PUSH3 0x1104 JUMP JUMPDEST DUP2 ADD PUSH1 0x20 DUP6 LT ISZERO PUSH3 0x1260 JUMPI DUP2 SWAP1 POP JUMPDEST PUSH3 0x1278 PUSH3 0x126F DUP6 PUSH3 0x1104 JUMP JUMPDEST DUP4 ADD DUP3 PUSH3 0x1209 JUMP JUMPDEST POP POP JUMPDEST POP POP POP JUMP JUMPDEST PUSH1 0x0 DUP3 DUP3 SHR SWAP1 POP SWAP3 SWAP2 POP POP JUMP JUMPDEST PUSH1 0x0 PUSH3 0x12A0 PUSH1 0x0 NOT DUP5 PUSH1 0x8 MUL PUSH3 0x1280 JUMP JUMPDEST NOT DUP1 DUP4 AND SWAP2 POP POP SWAP3 SWAP2 POP POP JUMP JUMPDEST PUSH1 0x0 PUSH3 0x12BB DUP4 DUP4 PUSH3 0x128D JUMP JUMPDEST SWAP2 POP DUP3 PUSH1 0x2 MUL DUP3 OR SWAP1 POP SWAP3 SWAP2 POP POP JUMP JUMPDEST PUSH3 0x12D6 DUP3 PUSH3 0x1051 JUMP JUMPDEST PUSH8 0xFFFFFFFFFFFFFFFF DUP2 GT ISZERO PUSH3 0x12F2 JUMPI PUSH3 0x12F1 PUSH3 0x105C JUMP JUMPDEST JUMPDEST PUSH3 0x12FE DUP3 SLOAD PUSH3 0x10BA JUMP JUMPDEST PUSH3 0x130B DUP3 DUP3 DUP6 PUSH3 0x1230 JUMP JUMPDEST PUSH1 0x0 PUSH1 0x20 SWAP1 POP PUSH1 0x1F DUP4 GT PUSH1 0x1 DUP2 EQ PUSH3 0x1343 JUMPI PUSH1 0x0 DUP5 ISZERO PUSH3 0x132E JUMPI DUP3 DUP8 ADD MLOAD SWAP1 POP JUMPDEST PUSH3 0x133A DUP6 DUP3 PUSH3 0x12AD JUMP JUMPDEST DUP7 SSTORE POP PUSH3 0x13AA JUMP JUMPDEST PUSH1 0x1F NOT DUP5 AND PUSH3 0x1353 DUP7 PUSH3 0x10EF JUMP JUMPDEST PUSH1 0x0 JUMPDEST DUP3 DUP2 LT ISZERO PUSH3 0x137D JUMPI DUP5 DUP10 ADD MLOAD DUP3 SSTORE PUSH1 0x1 DUP3 ADD SWAP2 POP PUSH1 0x20 DUP6 ADD SWAP5 POP PUSH1 0x20 DUP2 ADD SWAP1 POP PUSH3 0x1356 JUMP JUMPDEST DUP7 DUP4 LT ISZERO PUSH3 0x139D JUMPI DUP5 DUP10 ADD MLOAD PUSH3 0x1399 PUSH1 0x1F DUP10 AND DUP3 PUSH3 0x128D JUMP JUMPDEST DUP4 SSTORE POP JUMPDEST PUSH1 0x1 PUSH1 0x2 DUP9 MUL ADD DUP9 SSTORE POP POP POP JUMPDEST POP POP POP POP POP POP JUMP JUMPDEST PUSH32 0x4E487B7100000000000000000000000000000000000000000000000000000000 PUSH1 0x0 MSTORE PUSH1 0x11 PUSH1 0x4 MSTORE PUSH1 0x24 PUSH1 0x0 REVERT JUMPDEST PUSH1 0x0 DUP2 PUSH1 0x1 SHR SWAP1 POP SWAP2 SWAP1 POP JUMP JUMPDEST PUSH1 0x0 DUP1 DUP3 SWAP2 POP DUP4 SWAP1 POP JUMPDEST PUSH1 0x1 DUP6 GT ISZERO PUSH3 0x1440 JUMPI DUP1 DUP7 DIV DUP2 GT ISZERO PUSH3 0x1418 JUMPI PUSH3 0x1417 PUSH3 0x13B2 JUMP JUMPDEST JUMPDEST PUSH1 0x1 DUP6 AND ISZERO PUSH3 0x1428 JUMPI DUP1 DUP3 MUL SWAP2 POP JUMPDEST DUP1 DUP2 MUL SWAP1 POP PUSH3 0x1438 DUP6 PUSH3 0x13E1 JUMP JUMPDEST SWAP5 POP PUSH3 0x13F8 JUMP JUMPDEST SWAP5 POP SWAP5 SWAP3 POP POP POP JUMP JUMPDEST PUSH1 0x0 DUP3 PUSH3 0x145B JUMPI PUSH1 0x1 SWAP1 POP PUSH3 0x152E JUMP JUMPDEST DUP2 PUSH3 0x146B JUMPI PUSH1 0x0 SWAP1 POP PUSH3 0x152E JUMP JUMPDEST DUP2 PUSH1 0x1 DUP2 EQ PUSH3 0x1484 JUMPI PUSH1 0x2 DUP2 EQ PUSH3 0x148F JUMPI PUSH3 0x14C5 JUMP JUMPDEST PUSH1 0x1 SWAP2 POP POP PUSH3 0x152E JUMP JUMPDEST PUSH1 0xFF DUP5 GT ISZERO PUSH3 0x14A4 JUMPI PUSH3 0x14A3 PUSH3 0x13B2 JUMP JUMPDEST JUMPDEST DUP4 PUSH1 0x2 EXP SWAP2 POP DUP5 DUP3 GT ISZERO PUSH3 0x14BE JUMPI PUSH3 0x14BD PUSH3 0x13B2 JUMP JUMPDEST JUMPDEST POP PUSH3 0x152E JUMP JUMPDEST POP PUSH1 0x20 DUP4 LT PUSH2 0x133 DUP4 LT AND PUSH1 0x4E DUP5 LT PUSH1 0xB DUP5 LT AND OR ISZERO PUSH3 0x14FF JUMPI DUP3 DUP3 EXP SWAP1 POP DUP4 DUP2 GT ISZERO PUSH3 0x14F9 JUMPI PUSH3 0x14F8 PUSH3 0x13B2 JUMP JUMPDEST JUMPDEST PUSH3 0x152E JUMP JUMPDEST PUSH3 0x150E DUP5 DUP5 DUP5 PUSH1 0x1 PUSH3 0x13EE JUMP JUMPDEST SWAP3 POP SWAP1 POP DUP2 DUP5 DIV DUP2 GT ISZERO PUSH3 0x1528 JUMPI PUSH3 0x1527 PUSH3 0x13B2 JUMP JUMPDEST JUMPDEST DUP2 DUP2 MUL SWAP1 POP JUMPDEST SWAP4 SWAP3 POP POP POP JUMP JUMPDEST PUSH1 0x0 PUSH1 0xFF DUP3 AND SWAP1 POP SWAP2 SWAP1 POP JUMP JUMPDEST PUSH1 0x0 PUSH3 0x154F DUP3 PUSH3 0x1177 JUMP JUMPDEST SWAP2 POP PUSH3 0x155C DUP4 PUSH3 0x1535 JUMP JUMPDEST SWAP3 POP PUSH3 0x158B PUSH32 0xFFFFFFFFFFFFFFFFFFFFFFFFFFFFFFFFFFFFFFFFFFFFFFFFFFFFFFFFFFFFFFFF DUP5 DUP5 PUSH3 0x1449 JUMP JUMPDEST SWAP1 POP SWAP3 SWAP2 POP POP JUMP JUMPDEST PUSH1 0x0 PUSH3 0x15A0 DUP3 PUSH3 0x1177 JUMP JUMPDEST SWAP2 POP PUSH3 0x15AD DUP4 PUSH3 0x1177 JUMP JUMPDEST SWAP3 POP DUP3 DUP3 MUL PUSH3 0x15BD DUP2 PUSH3 0x1177 JUMP JUMPDEST SWAP2 POP DUP3 DUP3 DIV DUP5 EQ DUP4 ISZERO OR PUSH3 0x15D7 JUMPI PUSH3 0x15D6 PUSH3 0x13B2 JUMP JUMPDEST JUMPDEST POP SWAP3 SWAP2 POP POP JUMP JUMPDEST PUSH1 0x0 DUP2 SWAP1 POP SWAP2 SWAP1 POP JUMP JUMPDEST PUSH3 0x15F3 DUP2 PUSH3 0x15DE JUMP JUMPDEST DUP3 MSTORE POP POP JUMP JUMPDEST PUSH3 0x1604 DUP2 PUSH3 0x1177 JUMP JUMPDEST DUP3 MSTORE POP POP JUMP JUMPDEST PUSH1 0x0 PUSH20 0xFFFFFFFFFFFFFFFFFFFFFFFFFFFFFFFFFFFFFFFF DUP3 AND SWAP1 POP SWAP2 SWAP1 POP JUMP JUMPDEST PUSH1 0x0 PUSH3 0x1637 DUP3 PUSH3 0x160A JUMP JUMPDEST SWAP1 POP SWAP2 SWAP1 POP JUMP JUMPDEST PUSH3 0x1649 DUP2 PUSH3 0x162A JUMP JUMPDEST DUP3 MSTORE POP POP JUMP JUMPDEST PUSH1 0x0 PUSH1 0xA0 DUP3 ADD SWAP1 POP PUSH3 0x1666 PUSH1 0x0 DUP4 ADD DUP9 PUSH3 0x15E8 JUMP JUMPDEST PUSH3 0x1675 PUSH1 0x20 DUP4 ADD DUP8 PUSH3 0x15E8 JUMP JUMPDEST PUSH3 0x1684 PUSH1 0x40 DUP4 ADD DUP7 PUSH3 0x15E8 JUMP JUMPDEST PUSH3 0x1693 PUSH1 0x60 DUP4 ADD DUP6 PUSH3 0x15F9 JUMP JUMPDEST PUSH3 0x16A2 PUSH1 0x80 DUP4 ADD DUP5 PUSH3 0x163E JUMP JUMPDEST SWAP7 SWAP6 POP POP POP POP POP POP JUMP JUMPDEST PUSH1 0x0 DUP3 DUP3 MSTORE PUSH1 0x20 DUP3 ADD SWAP1 POP SWAP3 SWAP2 POP POP JUMP JUMPDEST PUSH32 0x4552433230566F7465733A20746F74616C20737570706C79207269736B73206F PUSH1 0x0 DUP3 ADD MSTORE PUSH32 0x766572666C6F77696E6720766F74657300000000000000000000000000000000 PUSH1 0x20 DUP3 ADD MSTORE POP JUMP JUMPDEST PUSH1 0x0 PUSH3 0x171B PUSH1 0x30 DUP4 PUSH3 0x16AC JUMP JUMPDEST SWAP2 POP PUSH3 0x1728 DUP3 PUSH3 0x16BD JUMP JUMPDEST PUSH1 0x40 DUP3 ADD SWAP1 POP SWAP2 SWAP1 POP JUMP JUMPDEST PUSH1 0x0 PUSH1 0x20 DUP3 ADD SWAP1 POP DUP2 DUP2 SUB PUSH1 0x0 DUP4 ADD MSTORE PUSH3 0x174E DUP2 PUSH3 0x170C JUMP JUMPDEST SWAP1 POP SWAP2 SWAP1 POP JUMP JUMPDEST PUSH32 0x45524332303A206D696E7420746F20746865207A65726F206164647265737300 PUSH1 0x0 DUP3 ADD MSTORE POP JUMP JUMPDEST PUSH1 0x0 PUSH3 0x178D PUSH1 0x1F DUP4 PUSH3 0x16AC JUMP JUMPDEST SWAP2 POP PUSH3 0x179A DUP3 PUSH3 0x1755 JUMP JUMPDEST PUSH1 0x20 DUP3 ADD SWAP1 POP SWAP2 SWAP1 POP JUMP JUMPDEST PUSH1 0x0 PUSH1 0x20 DUP3 ADD SWAP1 POP DUP2 DUP2 SUB PUSH1 0x0 DUP4 ADD MSTORE PUSH3 0x17C0 DUP2 PUSH3 0x177E JUMP JUMPDEST SWAP1 POP SWAP2 SWAP1 POP JUMP JUMPDEST PUSH1 0x0 PUSH3 0x17D4 DUP3 PUSH3 0x1177 JUMP JUMPDEST SWAP2 POP PUSH3 0x17E1 DUP4 PUSH3 0x1177 JUMP JUMPDEST SWAP3 POP DUP3 DUP3 ADD SWAP1 POP DUP1 DUP3 GT ISZERO PUSH3 0x17FC JUMPI PUSH3 0x17FB PUSH3 0x13B2 JUMP JUMPDEST JUMPDEST SWAP3 SWAP2 POP POP JUMP JUMPDEST PUSH1 0x0 PUSH1 0x20 DUP3 ADD SWAP1 POP PUSH3 0x1819 PUSH1 0x0 DUP4 ADD DUP5 PUSH3 0x15F9 JUMP JUMPDEST SWAP3 SWAP2 POP POP JUMP JUMPDEST PUSH1 0x0 PUSH3 0x182C DUP3 PUSH3 0x1177 JUMP JUMPDEST SWAP2 POP PUSH3 0x1839 DUP4 PUSH3 0x1177 JUMP JUMPDEST SWAP3 POP DUP3 DUP3 SUB SWAP1 POP DUP2 DUP2 GT ISZERO PUSH3 0x1854 JUMPI PUSH3 0x1853 PUSH3 0x13B2 JUMP JUMPDEST JUMPDEST SWAP3 SWAP2 POP POP JUMP JUMPDEST PUSH32 0x53616665436173743A2076616C756520646F65736E27742066697420696E2032 PUSH1 0x0 DUP3 ADD MSTORE PUSH32 0x3234206269747300000000000000000000000000000000000000000000000000 PUSH1 0x20 DUP3 ADD MSTORE POP JUMP JUMPDEST PUSH1 0x0 PUSH3 0x18B8 PUSH1 0x27 DUP4 PUSH3 0x16AC JUMP JUMPDEST SWAP2 POP PUSH3 0x18C5 DUP3 PUSH3 0x185A JUMP JUMPDEST PUSH1 0x40 DUP3 ADD SWAP1 POP SWAP2 SWAP1 POP JUMP JUMPDEST PUSH1 0x0 PUSH1 0x20 DUP3 ADD SWAP1 POP DUP2 DUP2 SUB PUSH1 0x0 DUP4 ADD MSTORE PUSH3 0x18EB DUP2 PUSH3 0x18A9 JUMP JUMPDEST SWAP1 POP SWAP2 SWAP1 POP JUMP JUMPDEST PUSH32 0x53616665436173743A2076616C756520646F65736E27742066697420696E2033 PUSH1 0x0 DUP3 ADD MSTORE PUSH32 0x3220626974730000000000000000000000000000000000000000000000000000 PUSH1 0x20 DUP3 ADD MSTORE POP JUMP JUMPDEST PUSH1 0x0 PUSH3 0x1950 PUSH1 0x26 DUP4 PUSH3 0x16AC JUMP JUMPDEST SWAP2 POP PUSH3 0x195D DUP3 PUSH3 0x18F2 JUMP JUMPDEST PUSH1 0x40 DUP3 ADD SWAP1 POP SWAP2 SWAP1 POP JUMP JUMPDEST PUSH1 0x0 PUSH1 0x20 DUP3 ADD SWAP1 POP DUP2 DUP2 SUB PUSH1 0x0 DUP4 ADD MSTORE PUSH3 0x1983 DUP2 PUSH3 0x1941 JUMP JUMPDEST SWAP1 POP SWAP2 SWAP1 POP JUMP JUMPDEST PUSH32 0x5061757361626C653A2070617573656400000000000000000000000000000000 PUSH1 0x0 DUP3 ADD MSTORE POP JUMP JUMPDEST PUSH1 0x0 PUSH3 0x19C2 PUSH1 0x10 DUP4 PUSH3 0x16AC JUMP JUMPDEST SWAP2 POP PUSH3 0x19CF DUP3 PUSH3 0x198A JUMP JUMPDEST PUSH1 0x20 DUP3 ADD SWAP1 POP SWAP2 SWAP1 POP JUMP JUMPDEST PUSH1 0x0 PUSH1 0x20 DUP3 ADD SWAP1 POP DUP2 DUP2 SUB PUSH1 0x0 DUP4 ADD MSTORE PUSH3 0x19F5 DUP2 PUSH3 0x19B3 JUMP JUMPDEST SWAP1 POP SWAP2 SWAP1 POP JUMP JUMPDEST PUSH1 0x0 PUSH1 0x40 DUP3 ADD SWAP1 POP PUSH3 0x1A13 PUSH1 0x0 DUP4 ADD DUP6 PUSH3 0x15F9 JUMP JUMPDEST PUSH3 0x1A22 PUSH1 0x20 DUP4 ADD DUP5 PUSH3 0x15F9 JUMP JUMPDEST SWAP4 SWAP3 POP POP POP JUMP JUMPDEST PUSH32 0x4E487B7100000000000000000000000000000000000000000000000000000000 PUSH1 0x0 MSTORE PUSH1 0x32 PUSH1 0x4 MSTORE PUSH1 0x24 PUSH1 0x0 REVERT JUMPDEST PUSH1 0x80 MLOAD PUSH1 0xA0 MLOAD PUSH1 0xC0 MLOAD PUSH1 0xE0 MLOAD PUSH2 0x100 MLOAD PUSH2 0x120 MLOAD PUSH2 0x505A PUSH3 0x1AA8 PUSH1 0x0 CODECOPY PUSH1 0x0 PUSH2 0x1F4D ADD MSTORE PUSH1 0x0 PUSH2 0x1F8F ADD MSTORE PUSH1 0x0 PUSH2 0x1F6E ADD MSTORE PUSH1 0x0 PUSH2 0x1EA3 ADD MSTORE PUSH1 0x0 PUSH2 0x1EF9 ADD MSTORE PUSH1 0x0 PUSH2 0x1F22 ADD MSTORE PUSH2 0x505A PUSH1 0x0 RETURN INVALID PUSH1 0x80 PUSH1 0x40 MSTORE CALLVALUE DUP1 ISZERO PUSH2 0x10 JUMPI PUSH1 0x0 DUP1 REVERT JUMPDEST POP PUSH1 0x4 CALLDATASIZE LT PUSH2 0x227 JUMPI PUSH1 0x0 CALLDATALOAD PUSH1 0xE0 SHR DUP1 PUSH4 0x70A08231 GT PUSH2 0x130 JUMPI DUP1 PUSH4 0x981B24D0 GT PUSH2 0xB8 JUMPI DUP1 PUSH4 0xD505ACCF GT PUSH2 0x7C JUMPI DUP1 PUSH4 0xD505ACCF EQ PUSH2 0x6B2 JUMPI DUP1 PUSH4 0xD9D98CE4 EQ PUSH2 0x6CE JUMPI DUP1 PUSH4 0xDD62ED3E EQ PUSH2 0x6FE JUMPI DUP1 PUSH4 0xF1127ED8 EQ PUSH2 0x72E JUMPI DUP1 PUSH4 0xF2FDE38B EQ PUSH2 0x75E JUMPI PUSH2 0x227 JUMP JUMPDEST DUP1 PUSH4 0x981B24D0 EQ PUSH2 0x5D6 JUMPI DUP1 PUSH4 0x9AB24EB0 EQ PUSH2 0x606 JUMPI DUP1 PUSH4 0xA457C2D7 EQ PUSH2 0x636 JUMPI DUP1 PUSH4 0xA9059CBB EQ PUSH2 0x666 JUMPI DUP1 PUSH4 0xC3CDA520 EQ PUSH2 0x696 JUMPI PUSH2 0x227 JUMP JUMPDEST DUP1 PUSH4 0x8456CB59 GT PUSH2 0xFF JUMPI DUP1 PUSH4 0x8456CB59 EQ PUSH2 0x556 JUMPI DUP1 PUSH4 0x8DA5CB5B EQ PUSH2 0x560 JUMPI DUP1 PUSH4 0x8E539E8C EQ PUSH2 0x57E JUMPI DUP1 PUSH4 0x95D89B41 EQ PUSH2 0x5AE JUMPI DUP1 PUSH4 0x9711715A EQ PUSH2 0x5CC JUMPI PUSH2 0x227 JUMP JUMPDEST DUP1 PUSH4 0x70A08231 EQ PUSH2 0x4D0 JUMPI DUP1 PUSH4 0x715018A6 EQ PUSH2 0x500 JUMPI DUP1 PUSH4 0x79CC6790 EQ PUSH2 0x50A JUMPI DUP1 PUSH4 0x7ECEBE00 EQ PUSH2 0x526 JUMPI PUSH2 0x227 JUMP JUMPDEST DUP1 PUSH4 0x40C10F19 GT PUSH2 0x1B3 JUMPI DUP1 PUSH4 0x5C19A95C GT PUSH2 0x182 JUMPI DUP1 PUSH4 0x5C19A95C EQ PUSH2 0x406 JUMPI DUP1 PUSH4 0x5C975ABB EQ PUSH2 0x422 JUMPI DUP1 PUSH4 0x5CFFE9DE EQ PUSH2 0x440 JUMPI DUP1 PUSH4 0x613255AB EQ PUSH2 0x470 JUMPI DUP1 PUSH4 0x6FCFFF45 EQ PUSH2 0x4A0 JUMPI PUSH2 0x227 JUMP JUMPDEST DUP1 PUSH4 0x40C10F19 EQ PUSH2 0x36E JUMPI DUP1 PUSH4 0x42966C68 EQ PUSH2 0x38A JUMPI DUP1 PUSH4 0x4EE2CD7E EQ PUSH2 0x3A6 JUMPI DUP1 PUSH4 0x587CDE1E EQ PUSH2 0x3D6 JUMPI PUSH2 0x227 JUMP JUMPDEST DUP1 PUSH4 0x313CE567 GT PUSH2 0x1FA JUMPI DUP1 PUSH4 0x313CE567 EQ PUSH2 0x2C8 JUMPI DUP1 PUSH4 0x3644E515 EQ PUSH2 0x2E6 JUMPI DUP1 PUSH4 0x39509351 EQ PUSH2 0x304 JUMPI DUP1 PUSH4 0x3A46B1A8 EQ PUSH2 0x334 JUMPI DUP1 PUSH4 0x3F4BA83A EQ PUSH2 0x364 JUMPI PUSH2 0x227 JUMP JUMPDEST DUP1 PUSH4 0x6FDDE03 EQ PUSH2 0x22C JUMPI DUP1 PUSH4 0x95EA7B3 EQ PUSH2 0x24A JUMPI DUP1 PUSH4 0x18160DDD EQ PUSH2 0x27A JUMPI DUP1 PUSH4 0x23B872DD EQ PUSH2 0x298 JUMPI JUMPDEST PUSH1 0x0 DUP1 REVERT JUMPDEST PUSH2 0x234 PUSH2 0x77A JUMP JUMPDEST PUSH1 0x40 MLOAD PUSH2 0x241 SWAP2 SWAP1 PUSH2 0x35C2 JUMP JUMPDEST PUSH1 0x40 MLOAD DUP1 SWAP2 SUB SWAP1 RETURN JUMPDEST PUSH2 0x264 PUSH1 0x4 DUP1 CALLDATASIZE SUB DUP2 ADD SWAP1 PUSH2 0x25F SWAP2 SWAP1 PUSH2 0x3682 JUMP JUMPDEST PUSH2 0x80C JUMP JUMPDEST PUSH1 0x40 MLOAD PUSH2 0x271 SWAP2 SWAP1 PUSH2 0x36DD JUMP JUMPDEST PUSH1 0x40 MLOAD DUP1 SWAP2 SUB SWAP1 RETURN JUMPDEST PUSH2 0x282 PUSH2 0x82F JUMP JUMPDEST PUSH1 0x40 MLOAD PUSH2 0x28F SWAP2 SWAP1 PUSH2 0x3707 JUMP JUMPDEST PUSH1 0x40 MLOAD DUP1 SWAP2 SUB SWAP1 RETURN JUMPDEST PUSH2 0x2B2 PUSH1 0x4 DUP1 CALLDATASIZE SUB DUP2 ADD SWAP1 PUSH2 0x2AD SWAP2 SWAP1 PUSH2 0x3722 JUMP JUMPDEST PUSH2 0x839 JUMP JUMPDEST PUSH1 0x40 MLOAD PUSH2 0x2BF SWAP2 SWAP1 PUSH2 0x36DD JUMP JUMPDEST PUSH1 0x40 MLOAD DUP1 SWAP2 SUB SWAP1 RETURN JUMPDEST PUSH2 0x2D0 PUSH2 0x868 JUMP JUMPDEST PUSH1 0x40 MLOAD PUSH2 0x2DD SWAP2 SWAP1 PUSH2 0x3791 JUMP JUMPDEST PUSH1 0x40 MLOAD DUP1 SWAP2 SUB SWAP1 RETURN JUMPDEST PUSH2 0x2EE PUSH2 0x871 JUMP JUMPDEST PUSH1 0x40 MLOAD PUSH2 0x2FB SWAP2 SWAP1 PUSH2 0x37C5 JUMP JUMPDEST PUSH1 0x40 MLOAD DUP1 SWAP2 SUB SWAP1 RETURN JUMPDEST PUSH2 0x31E PUSH1 0x4 DUP1 CALLDATASIZE SUB DUP2 ADD SWAP1 PUSH2 0x319 SWAP2 SWAP1 PUSH2 0x3682 JUMP JUMPDEST PUSH2 0x880 JUMP JUMPDEST PUSH1 0x40 MLOAD PUSH2 0x32B SWAP2 SWAP1 PUSH2 0x36DD JUMP JUMPDEST PUSH1 0x40 MLOAD DUP1 SWAP2 SUB SWAP1 RETURN JUMPDEST PUSH2 0x34E PUSH1 0x4 DUP1 CALLDATASIZE SUB DUP2 ADD SWAP1 PUSH2 0x349 SWAP2 SWAP1 PUSH2 0x3682 JUMP JUMPDEST PUSH2 0x8B7 JUMP JUMPDEST PUSH1 0x40 MLOAD PUSH2 0x35B SWAP2 SWAP1 PUSH2 0x3707 JUMP JUMPDEST PUSH1 0x40 MLOAD DUP1 SWAP2 SUB SWAP1 RETURN JUMPDEST PUSH2 0x36C PUSH2 0x94B JUMP JUMPDEST STOP JUMPDEST PUSH2 0x388 PUSH1 0x4 DUP1 CALLDATASIZE SUB DUP2 ADD SWAP1 PUSH2 0x383 SWAP2 SWAP1 PUSH2 0x3682 JUMP JUMPDEST PUSH2 0x95D JUMP JUMPDEST STOP JUMPDEST PUSH2 0x3A4 PUSH1 0x4 DUP1 CALLDATASIZE SUB DUP2 ADD SWAP1 PUSH2 0x39F SWAP2 SWAP1 PUSH2 0x37E0 JUMP JUMPDEST PUSH2 0x973 JUMP JUMPDEST STOP JUMPDEST PUSH2 0x3C0 PUSH1 0x4 DUP1 CALLDATASIZE SUB DUP2 ADD SWAP1 PUSH2 0x3BB SWAP2 SWAP1 PUSH2 0x3682 JUMP JUMPDEST PUSH2 0x987 JUMP JUMPDEST PUSH1 0x40 MLOAD PUSH2 0x3CD SWAP2 SWAP1 PUSH2 0x3707 JUMP JUMPDEST PUSH1 0x40 MLOAD DUP1 SWAP2 SUB SWAP1 RETURN JUMPDEST PUSH2 0x3F0 PUSH1 0x4 DUP1 CALLDATASIZE SUB DUP2 ADD SWAP1 PUSH2 0x3EB SWAP2 SWAP1 PUSH2 0x380D JUMP JUMPDEST PUSH2 0x9F7 JUMP JUMPDEST PUSH1 0x40 MLOAD PUSH2 0x3FD SWAP2 SWAP1 PUSH2 0x3849 JUMP JUMPDEST PUSH1 0x40 MLOAD DUP1 SWAP2 SUB SWAP1 RETURN JUMPDEST PUSH2 0x420 PUSH1 0x4 DUP1 CALLDATASIZE SUB DUP2 ADD SWAP1 PUSH2 0x41B SWAP2 SWAP1 PUSH2 0x380D JUMP JUMPDEST PUSH2 0xA60 JUMP JUMPDEST STOP JUMPDEST PUSH2 0x42A PUSH2 0xA74 JUMP JUMPDEST PUSH1 0x40 MLOAD PUSH2 0x437 SWAP2 SWAP1 PUSH2 0x36DD JUMP JUMPDEST PUSH1 0x40 MLOAD DUP1 SWAP2 SUB SWAP1 RETURN JUMPDEST PUSH2 0x45A PUSH1 0x4 DUP1 CALLDATASIZE SUB DUP2 ADD SWAP1 PUSH2 0x455 SWAP2 SWAP1 PUSH2 0x3907 JUMP JUMPDEST PUSH2 0xA8B JUMP JUMPDEST PUSH1 0x40 MLOAD PUSH2 0x467 SWAP2 SWAP1 PUSH2 0x36DD JUMP JUMPDEST PUSH1 0x40 MLOAD DUP1 SWAP2 SUB SWAP1 RETURN JUMPDEST PUSH2 0x48A PUSH1 0x4 DUP1 CALLDATASIZE SUB DUP2 ADD SWAP1 PUSH2 0x485 SWAP2 SWAP1 PUSH2 0x380D JUMP JUMPDEST PUSH2 0xC78 JUMP JUMPDEST PUSH1 0x40 MLOAD PUSH2 0x497 SWAP2 SWAP1 PUSH2 0x3707 JUMP JUMPDEST PUSH1 0x40 MLOAD DUP1 SWAP2 SUB SWAP1 RETURN JUMPDEST PUSH2 0x4BA PUSH1 0x4 DUP1 CALLDATASIZE SUB DUP2 ADD SWAP1 PUSH2 0x4B5 SWAP2 SWAP1 PUSH2 0x380D JUMP JUMPDEST PUSH2 0xCEF JUMP JUMPDEST PUSH1 0x40 MLOAD PUSH2 0x4C7 SWAP2 SWAP1 PUSH2 0x39AE JUMP JUMPDEST PUSH1 0x40 MLOAD DUP1 SWAP2 SUB SWAP1 RETURN JUMPDEST PUSH2 0x4EA PUSH1 0x4 DUP1 CALLDATASIZE SUB DUP2 ADD SWAP1 PUSH2 0x4E5 SWAP2 SWAP1 PUSH2 0x380D JUMP JUMPDEST PUSH2 0xD43 JUMP JUMPDEST PUSH1 0x40 MLOAD PUSH2 0x4F7 SWAP2 SWAP1 PUSH2 0x3707 JUMP JUMPDEST PUSH1 0x40 MLOAD DUP1 SWAP2 SUB SWAP1 RETURN JUMPDEST PUSH2 0x508 PUSH2 0xD8B JUMP JUMPDEST STOP JUMPDEST PUSH2 0x524 PUSH1 0x4 DUP1 CALLDATASIZE SUB DUP2 ADD SWAP1 PUSH2 0x51F SWAP2 SWAP1 PUSH2 0x3682 JUMP JUMPDEST PUSH2 0xD9F JUMP JUMPDEST STOP JUMPDEST PUSH2 0x540 PUSH1 0x4 DUP1 CALLDATASIZE SUB DUP2 ADD SWAP1 PUSH2 0x53B SWAP2 SWAP1 PUSH2 0x380D JUMP JUMPDEST PUSH2 0xDBF JUMP JUMPDEST PUSH1 0x40 MLOAD PUSH2 0x54D SWAP2 SWAP1 PUSH2 0x3707 JUMP JUMPDEST PUSH1 0x40 MLOAD DUP1 SWAP2 SUB SWAP1 RETURN JUMPDEST PUSH2 0x55E PUSH2 0xE0F JUMP JUMPDEST STOP JUMPDEST PUSH2 0x568 PUSH2 0xE21 JUMP JUMPDEST PUSH1 0x40 MLOAD PUSH2 0x575 SWAP2 SWAP1 PUSH2 0x3849 JUMP JUMPDEST PUSH1 0x40 MLOAD DUP1 SWAP2 SUB SWAP1 RETURN JUMPDEST PUSH2 0x598 PUSH1 0x4 DUP1 CALLDATASIZE SUB DUP2 ADD SWAP1 PUSH2 0x593 SWAP2 SWAP1 PUSH2 0x37E0 JUMP JUMPDEST PUSH2 0xE4B JUMP JUMPDEST PUSH1 0x40 MLOAD PUSH2 0x5A5 SWAP2 SWAP1 PUSH2 0x3707 JUMP JUMPDEST PUSH1 0x40 MLOAD DUP1 SWAP2 SUB SWAP1 RETURN JUMPDEST PUSH2 0x5B6 PUSH2 0xEA1 JUMP JUMPDEST PUSH1 0x40 MLOAD PUSH2 0x5C3 SWAP2 SWAP1 PUSH2 0x35C2 JUMP JUMPDEST PUSH1 0x40 MLOAD DUP1 SWAP2 SUB SWAP1 RETURN JUMPDEST PUSH2 0x5D4 PUSH2 0xF33 JUMP JUMPDEST STOP JUMPDEST PUSH2 0x5F0 PUSH1 0x4 DUP1 CALLDATASIZE SUB DUP2 ADD SWAP1 PUSH2 0x5EB SWAP2 SWAP1 PUSH2 0x37E0 JUMP JUMPDEST PUSH2 0xF46 JUMP JUMPDEST PUSH1 0x40 MLOAD PUSH2 0x5FD SWAP2 SWAP1 PUSH2 0x3707 JUMP JUMPDEST PUSH1 0x40 MLOAD DUP1 SWAP2 SUB SWAP1 RETURN JUMPDEST PUSH2 0x620 PUSH1 0x4 DUP1 CALLDATASIZE SUB DUP2 ADD SWAP1 PUSH2 0x61B SWAP2 SWAP1 PUSH2 0x380D JUMP JUMPDEST PUSH2 0xF77 JUMP JUMPDEST PUSH1 0x40 MLOAD PUSH2 0x62D SWAP2 SWAP1 PUSH2 0x3707 JUMP JUMPDEST PUSH1 0x40 MLOAD DUP1 SWAP2 SUB SWAP1 RETURN JUMPDEST PUSH2 0x650 PUSH1 0x4 DUP1 CALLDATASIZE SUB DUP2 ADD SWAP1 PUSH2 0x64B SWAP2 SWAP1 PUSH2 0x3682 JUMP JUMPDEST PUSH2 0x1088 JUMP JUMPDEST PUSH1 0x40 MLOAD PUSH2 0x65D SWAP2 SWAP1 PUSH2 0x36DD JUMP JUMPDEST PUSH1 0x40 MLOAD DUP1 SWAP2 SUB SWAP1 RETURN JUMPDEST PUSH2 0x680 PUSH1 0x4 DUP1 CALLDATASIZE SUB DUP2 ADD SWAP1 PUSH2 0x67B SWAP2 SWAP1 PUSH2 0x3682 JUMP JUMPDEST PUSH2 0x10FF JUMP JUMPDEST PUSH1 0x40 MLOAD PUSH2 0x68D SWAP2 SWAP1 PUSH2 0x36DD JUMP JUMPDEST PUSH1 0x40 MLOAD DUP1 SWAP2 SUB SWAP1 RETURN JUMPDEST PUSH2 0x6B0 PUSH1 0x4 DUP1 CALLDATASIZE SUB DUP2 ADD SWAP1 PUSH2 0x6AB SWAP2 SWAP1 PUSH2 0x3A21 JUMP JUMPDEST PUSH2 0x1122 JUMP JUMPDEST STOP JUMPDEST PUSH2 0x6CC PUSH1 0x4 DUP1 CALLDATASIZE SUB DUP2 ADD SWAP1 PUSH2 0x6C7 SWAP2 SWAP1 PUSH2 0x3AAE JUMP JUMPDEST PUSH2 0x1226 JUMP JUMPDEST STOP JUMPDEST PUSH2 0x6E8 PUSH1 0x4 DUP1 CALLDATASIZE SUB DUP2 ADD SWAP1 PUSH2 0x6E3 SWAP2 SWAP1 PUSH2 0x3682 JUMP JUMPDEST PUSH2 0x1368 JUMP JUMPDEST PUSH1 0x40 MLOAD PUSH2 0x6F5 SWAP2 SWAP1 PUSH2 0x3707 JUMP JUMPDEST PUSH1 0x40 MLOAD DUP1 SWAP2 SUB SWAP1 RETURN JUMPDEST PUSH2 0x718 PUSH1 0x4 DUP1 CALLDATASIZE SUB DUP2 ADD SWAP1 PUSH2 0x713 SWAP2 SWAP1 PUSH2 0x3B50 JUMP JUMPDEST PUSH2 0x13EA JUMP JUMPDEST PUSH1 0x40 MLOAD PUSH2 0x725 SWAP2 SWAP1 PUSH2 0x3707 JUMP JUMPDEST PUSH1 0x40 MLOAD DUP1 SWAP2 SUB SWAP1 RETURN JUMPDEST PUSH2 0x748 PUSH1 0x4 DUP1 CALLDATASIZE SUB DUP2 ADD SWAP1 PUSH2 0x743 SWAP2 SWAP1 PUSH2 0x3BBC JUMP JUMPDEST PUSH2 0x1471 JUMP JUMPDEST PUSH1 0x40 MLOAD PUSH2 0x755 SWAP2 SWAP1 PUSH2 0x3C71 JUMP JUMPDEST PUSH1 0x40 MLOAD DUP1 SWAP2 SUB SWAP1 RETURN JUMPDEST PUSH2 0x778 PUSH1 0x4 DUP1 CALLDATASIZE SUB DUP2 ADD SWAP1 PUSH2 0x773 SWAP2 SWAP1 PUSH2 0x380D JUMP JUMPDEST PUSH2 0x1581 JUMP JUMPDEST STOP JUMPDEST PUSH1 0x60 PUSH1 0x3 DUP1 SLOAD PUSH2 0x789 SWAP1 PUSH2 0x3CBB JUMP JUMPDEST DUP1 PUSH1 0x1F ADD PUSH1 0x20 DUP1 SWAP2 DIV MUL PUSH1 0x20 ADD PUSH1 0x40 MLOAD SWAP1 DUP2 ADD PUSH1 0x40 MSTORE DUP1 SWAP3 SWAP2 SWAP1 DUP2 DUP2 MSTORE PUSH1 0x20 ADD DUP3 DUP1 SLOAD PUSH2 0x7B5 SWAP1 PUSH2 0x3CBB JUMP JUMPDEST DUP1 ISZERO PUSH2 0x802 JUMPI DUP1 PUSH1 0x1F LT PUSH2 0x7D7 JUMPI PUSH2 0x100 DUP1 DUP4 SLOAD DIV MUL DUP4 MSTORE SWAP2 PUSH1 0x20 ADD SWAP2 PUSH2 0x802 JUMP JUMPDEST DUP3 ADD SWAP2 SWAP1 PUSH1 0x0 MSTORE PUSH1 0x20 PUSH1 0x0 KECCAK256 SWAP1 JUMPDEST DUP2 SLOAD DUP2 MSTORE SWAP1 PUSH1 0x1 ADD SWAP1 PUSH1 0x20 ADD DUP1 DUP4 GT PUSH2 0x7E5 JUMPI DUP3 SWAP1 SUB PUSH1 0x1F AND DUP3 ADD SWAP2 JUMPDEST POP POP POP POP POP SWAP1 POP SWAP1 JUMP JUMPDEST PUSH1 0x0 DUP1 PUSH2 0x817 PUSH2 0x19CC JUMP JUMPDEST SWAP1 POP PUSH2 0x824 DUP2 DUP6 DUP6 PUSH2 0x19D4 JUMP JUMPDEST PUSH1 0x1 SWAP2 POP POP SWAP3 SWAP2 POP POP JUMP JUMPDEST PUSH1 0x0 PUSH1 0x2 SLOAD SWAP1 POP SWAP1 JUMP JUMPDEST PUSH1 0x0 DUP1 PUSH2 0x844 PUSH2 0x19CC JUMP JUMPDEST SWAP1 POP PUSH2 0x851 DUP6 DUP3 DUP6 PUSH2 0x1B9D JUMP JUMPDEST PUSH2 0x85C DUP6 DUP6 DUP6 PUSH2 0x1C29 JUMP JUMPDEST PUSH1 0x1 SWAP2 POP POP SWAP4 SWAP3 POP POP POP JUMP JUMPDEST PUSH1 0x0 PUSH1 0x12 SWAP1 POP SWAP1 JUMP JUMPDEST PUSH1 0x0 PUSH2 0x87B PUSH2 0x1E9F JUMP JUMPDEST SWAP1 POP SWAP1 JUMP JUMPDEST PUSH1 0x0 DUP1 PUSH2 0x88B PUSH2 0x19CC JUMP JUMPDEST SWAP1 POP PUSH2 0x8AC DUP2 DUP6 DUP6 PUSH2 0x89D DUP6 DUP10 PUSH2 0x13EA JUMP JUMPDEST PUSH2 0x8A7 SWAP2 SWAP1 PUSH2 0x3D1B JUMP JUMPDEST PUSH2 0x19D4 JUMP JUMPDEST PUSH1 0x1 SWAP2 POP POP SWAP3 SWAP2 POP POP JUMP JUMPDEST PUSH1 0x0 NUMBER DUP3 LT PUSH2 0x8FB JUMPI PUSH1 0x40 MLOAD PUSH32 0x8C379A000000000000000000000000000000000000000000000000000000000 DUP2 MSTORE PUSH1 0x4 ADD PUSH2 0x8F2 SWAP1 PUSH2 0x3D9B JUMP JUMPDEST PUSH1 0x40 MLOAD DUP1 SWAP2 SUB SWAP1 REVERT JUMPDEST PUSH2 0x943 PUSH1 0xD PUSH1 0x0 DUP6 PUSH20 0xFFFFFFFFFFFFFFFFFFFFFFFFFFFFFFFFFFFFFFFF AND PUSH20 0xFFFFFFFFFFFFFFFFFFFFFFFFFFFFFFFFFFFFFFFF AND DUP2 MSTORE PUSH1 0x20 ADD SWAP1 DUP2 MSTORE PUSH1 0x20 ADD PUSH1 0x0 KECCAK256 DUP4 PUSH2 0x1FB9 JUMP JUMPDEST SWAP1 POP SWAP3 SWAP2 POP POP JUMP JUMPDEST PUSH2 0x953 PUSH2 0x210A JUMP JUMPDEST PUSH2 0x95B PUSH2 0x2188 JUMP JUMPDEST JUMP JUMPDEST PUSH2 0x965 PUSH2 0x210A JUMP JUMPDEST PUSH2 0x96F DUP3 DUP3 PUSH2 0x21EB JUMP JUMPDEST POP POP JUMP JUMPDEST PUSH2 0x984 PUSH2 0x97E PUSH2 0x19CC JUMP JUMPDEST DUP3 PUSH2 0x21F9 JUMP JUMPDEST POP JUMP JUMPDEST PUSH1 0x0 DUP1 PUSH1 0x0 PUSH2 0x9D4 DUP5 PUSH1 0x5 PUSH1 0x0 DUP9 PUSH20 0xFFFFFFFFFFFFFFFFFFFFFFFFFFFFFFFFFFFFFFFF AND PUSH20 0xFFFFFFFFFFFFFFFFFFFFFFFFFFFFFFFFFFFFFFFF AND DUP2 MSTORE PUSH1 0x20 ADD SWAP1 DUP2 MSTORE PUSH1 0x20 ADD PUSH1 0x0 KECCAK256 PUSH2 0x2207 JUMP JUMPDEST SWAP2 POP SWAP2 POP DUP2 PUSH2 0x9EB JUMPI PUSH2 0x9E6 DUP6 PUSH2 0xD43 JUMP JUMPDEST PUSH2 0x9ED JUMP JUMPDEST DUP1 JUMPDEST SWAP3 POP POP POP SWAP3 SWAP2 POP POP JUMP JUMPDEST PUSH1 0x0 PUSH1 0xC PUSH1 0x0 DUP4 PUSH20 0xFFFFFFFFFFFFFFFFFFFFFFFFFFFFFFFFFFFFFFFF AND PUSH20 0xFFFFFFFFFFFFFFFFFFFFFFFFFFFFFFFFFFFFFFFF AND DUP2 MSTORE PUSH1 0x20 ADD SWAP1 DUP2 MSTORE PUSH1 0x20 ADD PUSH1 0x0 KECCAK256 PUSH1 0x0 SWAP1 SLOAD SWAP1 PUSH2 0x100 EXP SWAP1 DIV PUSH20 0xFFFFFFFFFFFFFFFFFFFFFFFFFFFFFFFFFFFFFFFF AND SWAP1 POP SWAP2 SWAP1 POP JUMP JUMPDEST PUSH2 0xA71 PUSH2 0xA6B PUSH2 0x19CC JUMP JUMPDEST DUP3 PUSH2 0x22FC JUMP JUMPDEST POP JUMP JUMPDEST PUSH1 0x0 PUSH1 0x9 PUSH1 0x14 SWAP1 SLOAD SWAP1 PUSH2 0x100 EXP SWAP1 DIV PUSH1 0xFF AND SWAP1 POP SWAP1 JUMP JUMPDEST PUSH1 0x0 PUSH2 0xA96 DUP6 PUSH2 0xC78 JUMP JUMPDEST DUP5 GT ISZERO PUSH2 0xAD8 JUMPI PUSH1 0x40 MLOAD PUSH32 0x8C379A000000000000000000000000000000000000000000000000000000000 DUP2 MSTORE PUSH1 0x4 ADD PUSH2 0xACF SWAP1 PUSH2 0x3E2D JUMP JUMPDEST PUSH1 0x40 MLOAD DUP1 SWAP2 SUB SWAP1 REVERT JUMPDEST PUSH1 0x0 PUSH2 0xAE4 DUP7 DUP7 PUSH2 0x1368 JUMP JUMPDEST SWAP1 POP PUSH2 0xAF0 DUP8 DUP7 PUSH2 0x21EB JUMP JUMPDEST PUSH32 0x439148F0BBC682CA079E46D6E2C2F0C1E3B820F1A291B069D8882ABF8CF18DD9 DUP8 PUSH20 0xFFFFFFFFFFFFFFFFFFFFFFFFFFFFFFFFFFFFFFFF AND PUSH4 0x23E30C8B CALLER DUP10 DUP10 DUP7 DUP11 DUP11 PUSH1 0x40 MLOAD DUP8 PUSH4 0xFFFFFFFF AND PUSH1 0xE0 SHL DUP2 MSTORE PUSH1 0x4 ADD PUSH2 0xB54 SWAP7 SWAP6 SWAP5 SWAP4 SWAP3 SWAP2 SWAP1 PUSH2 0x3E9A JUMP JUMPDEST PUSH1 0x20 PUSH1 0x40 MLOAD DUP1 DUP4 SUB DUP2 PUSH1 0x0 DUP8 GAS CALL ISZERO DUP1 ISZERO PUSH2 0xB73 JUMPI RETURNDATASIZE PUSH1 0x0 DUP1 RETURNDATACOPY RETURNDATASIZE PUSH1 0x0 REVERT JUMPDEST POP POP POP POP PUSH1 0x40 MLOAD RETURNDATASIZE PUSH1 0x1F NOT PUSH1 0x1F DUP3 ADD AND DUP3 ADD DUP1 PUSH1 0x40 MSTORE POP DUP2 ADD SWAP1 PUSH2 0xB97 SWAP2 SWAP1 PUSH2 0x3F0B JUMP JUMPDEST EQ PUSH2 0xBD7 JUMPI PUSH1 0x40 MLOAD PUSH32 0x8C379A000000000000000000000000000000000000000000000000000000000 DUP2 MSTORE PUSH1 0x4 ADD PUSH2 0xBCE SWAP1 PUSH2 0x3FAA JUMP JUMPDEST PUSH1 0x40 MLOAD DUP1 SWAP2 SUB SWAP1 REVERT JUMPDEST PUSH1 0x0 PUSH2 0xBE1 PUSH2 0x2416 JUMP JUMPDEST SWAP1 POP PUSH2 0xBF9 DUP9 ADDRESS DUP5 DUP10 PUSH2 0xBF4 SWAP2 SWAP1 PUSH2 0x3D1B JUMP JUMPDEST PUSH2 0x1B9D JUMP JUMPDEST PUSH1 0x0 DUP3 EQ DUP1 PUSH2 0xC34 JUMPI POP PUSH1 0x0 PUSH20 0xFFFFFFFFFFFFFFFFFFFFFFFFFFFFFFFFFFFFFFFF AND DUP2 PUSH20 0xFFFFFFFFFFFFFFFFFFFFFFFFFFFFFFFFFFFFFFFF AND EQ JUMPDEST ISZERO PUSH2 0xC53 JUMPI PUSH2 0xC4E DUP9 DUP4 DUP9 PUSH2 0xC49 SWAP2 SWAP1 PUSH2 0x3D1B JUMP JUMPDEST PUSH2 0x21F9 JUMP JUMPDEST PUSH2 0xC69 JUMP JUMPDEST PUSH2 0xC5D DUP9 DUP8 PUSH2 0x21F9 JUMP JUMPDEST PUSH2 0xC68 DUP9 DUP3 DUP5 PUSH2 0x1C29 JUMP JUMPDEST JUMPDEST PUSH1 0x1 SWAP3 POP POP POP SWAP6 SWAP5 POP POP POP POP POP JUMP JUMPDEST PUSH1 0x0 ADDRESS PUSH20 0xFFFFFFFFFFFFFFFFFFFFFFFFFFFFFFFFFFFFFFFF AND DUP3 PUSH20 0xFFFFFFFFFFFFFFFFFFFFFFFFFFFFFFFFFFFFFFFF AND EQ PUSH2 0xCB4 JUMPI PUSH1 0x0 PUSH2 0xCE8 JUMP JUMPDEST PUSH2 0xCBC PUSH2 0x82F JUMP JUMPDEST PUSH32 0xFFFFFFFFFFFFFFFFFFFFFFFFFFFFFFFFFFFFFFFFFFFFFFFFFFFFFFFFFFFFFFFF PUSH2 0xCE7 SWAP2 SWAP1 PUSH2 0x3FCA JUMP JUMPDEST JUMPDEST SWAP1 POP SWAP2 SWAP1 POP JUMP JUMPDEST PUSH1 0x0 PUSH2 0xD3C PUSH1 0xD PUSH1 0x0 DUP5 PUSH20 0xFFFFFFFFFFFFFFFFFFFFFFFFFFFFFFFFFFFFFFFF AND PUSH20 0xFFFFFFFFFFFFFFFFFFFFFFFFFFFFFFFFFFFFFFFF AND DUP2 MSTORE PUSH1 0x20 ADD SWAP1 DUP2 MSTORE PUSH1 0x20 ADD PUSH1 0x0 KECCAK256 DUP1 SLOAD SWAP1 POP PUSH2 0x1868 JUMP JUMPDEST SWAP1 POP SWAP2 SWAP1 POP JUMP JUMPDEST PUSH1 0x0 DUP1 PUSH1 0x0 DUP4 PUSH20 0xFFFFFFFFFFFFFFFFFFFFFFFFFFFFFFFFFFFFFFFF AND PUSH20 0xFFFFFFFFFFFFFFFFFFFFFFFFFFFFFFFFFFFFFFFF AND DUP2 MSTORE PUSH1 0x20 ADD SWAP1 DUP2 MSTORE PUSH1 0x20 ADD PUSH1 0x0 KECCAK256 SLOAD SWAP1 POP SWAP2 SWAP1 POP JUMP JUMPDEST PUSH2 0xD93 PUSH2 0x210A JUMP JUMPDEST PUSH2 0xD9D PUSH1 0x0 PUSH2 0x241B JUMP JUMPDEST JUMP JUMPDEST PUSH2 0xDB1 DUP3 PUSH2 0xDAB PUSH2 0x19CC JUMP JUMPDEST DUP4 PUSH2 0x1B9D JUMP JUMPDEST PUSH2 0xDBB DUP3 DUP3 PUSH2 0x21F9 JUMP JUMPDEST POP POP JUMP JUMPDEST PUSH1 0x0 PUSH2 0xE08 PUSH1 0xA PUSH1 0x0 DUP5 PUSH20 0xFFFFFFFFFFFFFFFFFFFFFFFFFFFFFFFFFFFFFFFF AND PUSH20 0xFFFFFFFFFFFFFFFFFFFFFFFFFFFFFFFFFFFFFFFF AND DUP2 MSTORE PUSH1 0x20 ADD SWAP1 DUP2 MSTORE PUSH1 0x20 ADD PUSH1 0x0 KECCAK256 PUSH2 0x19BE JUMP JUMPDEST SWAP1 POP SWAP2 SWAP1 POP JUMP JUMPDEST PUSH2 0xE17 PUSH2 0x210A JUMP JUMPDEST PUSH2 0xE1F PUSH2 0x24E1 JUMP JUMPDEST JUMP JUMPDEST PUSH1 0x0 PUSH1 0x9 PUSH1 0x0 SWAP1 SLOAD SWAP1 PUSH2 0x100 EXP SWAP1 DIV PUSH20 0xFFFFFFFFFFFFFFFFFFFFFFFFFFFFFFFFFFFFFFFF AND SWAP1 POP SWAP1 JUMP JUMPDEST PUSH1 0x0 NUMBER DUP3 LT PUSH2 0xE8F JUMPI PUSH1 0x40 MLOAD PUSH32 0x8C379A000000000000000000000000000000000000000000000000000000000 DUP2 MSTORE PUSH1 0x4 ADD PUSH2 0xE86 SWAP1 PUSH2 0x3D9B JUMP JUMPDEST PUSH1 0x40 MLOAD DUP1 SWAP2 SUB SWAP1 REVERT JUMPDEST PUSH2 0xE9A PUSH1 0xE DUP4 PUSH2 0x1FB9 JUMP JUMPDEST SWAP1 POP SWAP2 SWAP1 POP JUMP JUMPDEST PUSH1 0x60 PUSH1 0x4 DUP1 SLOAD PUSH2 0xEB0 SWAP1 PUSH2 0x3CBB JUMP JUMPDEST DUP1 PUSH1 0x1F ADD PUSH1 0x20 DUP1 SWAP2 DIV MUL PUSH1 0x20 ADD PUSH1 0x40 MLOAD SWAP1 DUP2 ADD PUSH1 0x40 MSTORE DUP1 SWAP3 SWAP2 SWAP1 DUP2 DUP2 MSTORE PUSH1 0x20 ADD DUP3 DUP1 SLOAD PUSH2 0xEDC SWAP1 PUSH2 0x3CBB JUMP JUMPDEST DUP1 ISZERO PUSH2 0xF29 JUMPI DUP1 PUSH1 0x1F LT PUSH2 0xEFE JUMPI PUSH2 0x100 DUP1 DUP4 SLOAD DIV MUL DUP4 MSTORE SWAP2 PUSH1 0x20 ADD SWAP2 PUSH2 0xF29 JUMP JUMPDEST DUP3 ADD SWAP2 SWAP1 PUSH1 0x0 MSTORE PUSH1 0x20 PUSH1 0x0 KECCAK256 SWAP1 JUMPDEST DUP2 SLOAD DUP2 MSTORE SWAP1 PUSH1 0x1 ADD SWAP1 PUSH1 0x20 ADD DUP1 DUP4 GT PUSH2 0xF0C JUMPI DUP3 SWAP1 SUB PUSH1 0x1F AND DUP3 ADD SWAP2 JUMPDEST POP POP POP POP POP SWAP1 POP SWAP1 JUMP JUMPDEST PUSH2 0xF3B PUSH2 0x210A JUMP JUMPDEST PUSH2 0xF43 PUSH2 0x2544 JUMP JUMPDEST POP JUMP JUMPDEST PUSH1 0x0 DUP1 PUSH1 0x0 PUSH2 0xF56 DUP5 PUSH1 0x6 PUSH2 0x2207 JUMP JUMPDEST SWAP2 POP SWAP2 POP DUP2 PUSH2 0xF6C JUMPI PUSH2 0xF67 PUSH2 0x82F JUMP JUMPDEST PUSH2 0xF6E JUMP JUMPDEST DUP1 JUMPDEST SWAP3 POP POP POP SWAP2 SWAP1 POP JUMP JUMPDEST PUSH1 0x0 DUP1 PUSH1 0xD PUSH1 0x0 DUP5 PUSH20 0xFFFFFFFFFFFFFFFFFFFFFFFFFFFFFFFFFFFFFFFF AND PUSH20 0xFFFFFFFFFFFFFFFFFFFFFFFFFFFFFFFFFFFFFFFF AND DUP2 MSTORE PUSH1 0x20 ADD SWAP1 DUP2 MSTORE PUSH1 0x20 ADD PUSH1 0x0 KECCAK256 DUP1 SLOAD SWAP1 POP SWAP1 POP PUSH1 0x0 DUP2 EQ PUSH2 0x105F JUMPI PUSH1 0xD PUSH1 0x0 DUP5 PUSH20 0xFFFFFFFFFFFFFFFFFFFFFFFFFFFFFFFFFFFFFFFF AND PUSH20 0xFFFFFFFFFFFFFFFFFFFFFFFFFFFFFFFFFFFFFFFF AND DUP2 MSTORE PUSH1 0x20 ADD SWAP1 DUP2 MSTORE PUSH1 0x20 ADD PUSH1 0x0 KECCAK256 PUSH1 0x1 DUP3 PUSH2 0x1013 SWAP2 SWAP1 PUSH2 0x3FCA JUMP JUMPDEST DUP2 SLOAD DUP2 LT PUSH2 0x1024 JUMPI PUSH2 0x1023 PUSH2 0x3FFE JUMP JUMPDEST JUMPDEST SWAP1 PUSH1 0x0 MSTORE PUSH1 0x20 PUSH1 0x0 KECCAK256 ADD PUSH1 0x0 ADD PUSH1 0x4 SWAP1 SLOAD SWAP1 PUSH2 0x100 EXP SWAP1 DIV PUSH28 0xFFFFFFFFFFFFFFFFFFFFFFFFFFFFFFFFFFFFFFFFFFFFFFFFFFFFFFFF AND PUSH2 0x1062 JUMP JUMPDEST PUSH1 0x0 JUMPDEST PUSH28 0xFFFFFFFFFFFFFFFFFFFFFFFFFFFFFFFFFFFFFFFFFFFFFFFFFFFFFFFF AND SWAP2 POP POP SWAP2 SWAP1 POP JUMP JUMPDEST PUSH1 0x0 DUP1 PUSH2 0x1093 PUSH2 0x19CC JUMP JUMPDEST SWAP1 POP PUSH1 0x0 PUSH2 0x10A1 DUP3 DUP7 PUSH2 0x13EA JUMP JUMPDEST SWAP1 POP DUP4 DUP2 LT ISZERO PUSH2 0x10E6 JUMPI PUSH1 0x40 MLOAD PUSH32 0x8C379A000000000000000000000000000000000000000000000000000000000 DUP2 MSTORE PUSH1 0x4 ADD PUSH2 0x10DD SWAP1 PUSH2 0x409F JUMP JUMPDEST PUSH1 0x40 MLOAD DUP1 SWAP2 SUB SWAP1 REVERT JUMPDEST PUSH2 0x10F3 DUP3 DUP7 DUP7 DUP5 SUB PUSH2 0x19D4 JUMP JUMPDEST PUSH1 0x1 SWAP3 POP POP POP SWAP3 SWAP2 POP POP JUMP JUMPDEST PUSH1 0x0 DUP1 PUSH2 0x110A PUSH2 0x19CC JUMP JUMPDEST SWAP1 POP PUSH2 0x1117 DUP2 DUP6 DUP6 PUSH2 0x1C29 JUMP JUMPDEST PUSH1 0x1 SWAP2 POP POP SWAP3 SWAP2 POP POP JUMP JUMPDEST DUP4 TIMESTAMP GT ISZERO PUSH2 0x1165 JUMPI PUSH1 0x40 MLOAD PUSH32 0x8C379A000000000000000000000000000000000000000000000000000000000 DUP2 MSTORE PUSH1 0x4 ADD PUSH2 0x115C SWAP1 PUSH2 0x410B JUMP JUMPDEST PUSH1 0x40 MLOAD DUP1 SWAP2 SUB SWAP1 REVERT JUMPDEST PUSH1 0x0 PUSH2 0x11C7 PUSH2 0x11BF PUSH32 0xE48329057BFD03D55E49B547132E39CFFD9C1820AD7B9D4C5307691425D15ADF DUP10 DUP10 DUP10 PUSH1 0x40 MLOAD PUSH1 0x20 ADD PUSH2 0x11A4 SWAP5 SWAP4 SWAP3 SWAP2 SWAP1 PUSH2 0x412B JUMP JUMPDEST PUSH1 0x40 MLOAD PUSH1 0x20 DUP2 DUP4 SUB SUB DUP2 MSTORE SWAP1 PUSH1 0x40 MSTORE DUP1 MLOAD SWAP1 PUSH1 0x20 ADD KECCAK256 PUSH2 0x259A JUMP JUMPDEST DUP6 DUP6 DUP6 PUSH2 0x25B4 JUMP JUMPDEST SWAP1 POP PUSH2 0x11D2 DUP2 PUSH2 0x25DF JUMP JUMPDEST DUP7 EQ PUSH2 0x1213 JUMPI PUSH1 0x40 MLOAD PUSH32 0x8C379A000000000000000000000000000000000000000000000000000000000 DUP2 MSTORE PUSH1 0x4 ADD PUSH2 0x120A SWAP1 PUSH2 0x41BC JUMP JUMPDEST PUSH1 0x40 MLOAD DUP1 SWAP2 SUB SWAP1 REVERT JUMPDEST PUSH2 0x121D DUP2 DUP9 PUSH2 0x22FC JUMP JUMPDEST POP POP POP POP POP POP POP JUMP JUMPDEST DUP4 TIMESTAMP GT ISZERO PUSH2 0x1269 JUMPI PUSH1 0x40 MLOAD PUSH32 0x8C379A000000000000000000000000000000000000000000000000000000000 DUP2 MSTORE PUSH1 0x4 ADD PUSH2 0x1260 SWAP1 PUSH2 0x4228 JUMP JUMPDEST PUSH1 0x40 MLOAD DUP1 SWAP2 SUB SWAP1 REVERT JUMPDEST PUSH1 0x0 PUSH32 0x6E71EDAE12B1B97F4D1F60370FEF10105FA2FAAE0126114A169C64845D6126C9 DUP9 DUP9 DUP9 PUSH2 0x1298 DUP13 PUSH2 0x25DF JUMP JUMPDEST DUP10 PUSH1 0x40 MLOAD PUSH1 0x20 ADD PUSH2 0x12AE SWAP7 SWAP6 SWAP5 SWAP4 SWAP3 SWAP2 SWAP1 PUSH2 0x4248 JUMP JUMPDEST PUSH1 0x40 MLOAD PUSH1 0x20 DUP2 DUP4 SUB SUB DUP2 MSTORE SWAP1 PUSH1 0x40 MSTORE DUP1 MLOAD SWAP1 PUSH1 0x20 ADD KECCAK256 SWAP1 POP PUSH1 0x0 PUSH2 0x12D1 DUP3 PUSH2 0x259A JUMP JUMPDEST SWAP1 POP PUSH1 0x0 PUSH2 0x12E1 DUP3 DUP8 DUP8 DUP8 PUSH2 0x25B4 JUMP JUMPDEST SWAP1 POP DUP10 PUSH20 0xFFFFFFFFFFFFFFFFFFFFFFFFFFFFFFFFFFFFFFFF AND DUP2 PUSH20 0xFFFFFFFFFFFFFFFFFFFFFFFFFFFFFFFFFFFFFFFF AND EQ PUSH2 0x1351 JUMPI PUSH1 0x40 MLOAD PUSH32 0x8C379A000000000000000000000000000000000000000000000000000000000 DUP2 MSTORE PUSH1 0x4 ADD PUSH2 0x1348 SWAP1 PUSH2 0x42F5 JUMP JUMPDEST PUSH1 0x40 MLOAD DUP1 SWAP2 SUB SWAP1 REVERT JUMPDEST PUSH2 0x135C DUP11 DUP11 DUP11 PUSH2 0x19D4 JUMP JUMPDEST POP POP POP POP POP POP POP POP POP POP JUMP JUMPDEST PUSH1 0x0 ADDRESS PUSH20 0xFFFFFFFFFFFFFFFFFFFFFFFFFFFFFFFFFFFFFFFF AND DUP4 PUSH20 0xFFFFFFFFFFFFFFFFFFFFFFFFFFFFFFFFFFFFFFFF AND EQ PUSH2 0x13D8 JUMPI PUSH1 0x40 MLOAD PUSH32 0x8C379A000000000000000000000000000000000000000000000000000000000 DUP2 MSTORE PUSH1 0x4 ADD PUSH2 0x13CF SWAP1 PUSH2 0x4361 JUMP JUMPDEST PUSH1 0x40 MLOAD DUP1 SWAP2 SUB SWAP1 REVERT JUMPDEST PUSH2 0x13E2 DUP4 DUP4 PUSH2 0x263D JUMP JUMPDEST SWAP1 POP SWAP3 SWAP2 POP POP JUMP JUMPDEST PUSH1 0x0 PUSH1 0x1 PUSH1 0x0 DUP5 PUSH20 0xFFFFFFFFFFFFFFFFFFFFFFFFFFFFFFFFFFFFFFFF AND PUSH20 0xFFFFFFFFFFFFFFFFFFFFFFFFFFFFFFFFFFFFFFFF AND DUP2 MSTORE PUSH1 0x20 ADD SWAP1 DUP2 MSTORE PUSH1 0x20 ADD PUSH1 0x0 KECCAK256 PUSH1 0x0 DUP4 PUSH20 0xFFFFFFFFFFFFFFFFFFFFFFFFFFFFFFFFFFFFFFFF AND PUSH20 0xFFFFFFFFFFFFFFFFFFFFFFFFFFFFFFFFFFFFFFFF AND DUP2 MSTORE PUSH1 0x20 ADD SWAP1 DUP2 MSTORE PUSH1 0x20 ADD PUSH1 0x0 KECCAK256 SLOAD SWAP1 POP SWAP3 SWAP2 POP POP JUMP JUMPDEST PUSH2 0x1479 PUSH2 0x34F4 JUMP JUMPDEST PUSH1 0xD PUSH1 0x0 DUP5 PUSH20 0xFFFFFFFFFFFFFFFFFFFFFFFFFFFFFFFFFFFFFFFF AND PUSH20 0xFFFFFFFFFFFFFFFFFFFFFFFFFFFFFFFFFFFFFFFF AND DUP2 MSTORE PUSH1 0x20 ADD SWAP1 DUP2 MSTORE PUSH1 0x20 ADD PUSH1 0x0 KECCAK256 DUP3 PUSH4 0xFFFFFFFF AND DUP2 SLOAD DUP2 LT PUSH2 0x14D0 JUMPI PUSH2 0x14CF PUSH2 0x3FFE JUMP JUMPDEST JUMPDEST SWAP1 PUSH1 0x0 MSTORE PUSH1 0x20 PUSH1 0x0 KECCAK256 ADD PUSH1 0x40 MLOAD DUP1 PUSH1 0x40 ADD PUSH1 0x40 MSTORE SWAP1 DUP2 PUSH1 0x0 DUP3 ADD PUSH1 0x0 SWAP1 SLOAD SWAP1 PUSH2 0x100 EXP SWAP1 DIV PUSH4 0xFFFFFFFF AND PUSH4 0xFFFFFFFF AND PUSH4 0xFFFFFFFF AND DUP2 MSTORE PUSH1 0x20 ADD PUSH1 0x0 DUP3 ADD PUSH1 0x4 SWAP1 SLOAD SWAP1 PUSH2 0x100 EXP SWAP1 DIV PUSH28 0xFFFFFFFFFFFFFFFFFFFFFFFFFFFFFFFFFFFFFFFFFFFFFFFFFFFFFFFF AND PUSH28 0xFFFFFFFFFFFFFFFFFFFFFFFFFFFFFFFFFFFFFFFFFFFFFFFFFFFFFFFF AND PUSH28 0xFFFFFFFFFFFFFFFFFFFFFFFFFFFFFFFFFFFFFFFFFFFFFFFFFFFFFFFF AND DUP2 MSTORE POP POP SWAP1 POP SWAP3 SWAP2 POP POP JUMP JUMPDEST PUSH2 0x1589 PUSH2 0x210A JUMP JUMPDEST PUSH1 0x0 PUSH20 0xFFFFFFFFFFFFFFFFFFFFFFFFFFFFFFFFFFFFFFFF AND DUP2 PUSH20 0xFFFFFFFFFFFFFFFFFFFFFFFFFFFFFFFFFFFFFFFF AND SUB PUSH2 0x15F8 JUMPI PUSH1 0x40 MLOAD PUSH32 0x8C379A000000000000000000000000000000000000000000000000000000000 DUP2 MSTORE PUSH1 0x4 ADD PUSH2 0x15EF SWAP1 PUSH2 0x43F3 JUMP JUMPDEST PUSH1 0x40 MLOAD DUP1 SWAP2 SUB SWAP1 REVERT JUMPDEST PUSH2 0x1601 DUP2 PUSH2 0x241B JUMP JUMPDEST POP JUMP JUMPDEST PUSH2 0x160E DUP3 DUP3 PUSH2 0x1691 JUMP JUMPDEST PUSH2 0x1616 PUSH2 0x2645 JUMP JUMPDEST PUSH28 0xFFFFFFFFFFFFFFFFFFFFFFFFFFFFFFFFFFFFFFFFFFFFFFFFFFFFFFFF AND PUSH2 0x163C PUSH2 0x82F JUMP JUMPDEST GT ISZERO PUSH2 0x167D JUMPI PUSH1 0x40 MLOAD PUSH32 0x8C379A000000000000000000000000000000000000000000000000000000000 DUP2 MSTORE PUSH1 0x4 ADD PUSH2 0x1674 SWAP1 PUSH2 0x4485 JUMP JUMPDEST PUSH1 0x40 MLOAD DUP1 SWAP2 SUB SWAP1 REVERT JUMPDEST PUSH2 0x168B PUSH1 0xE PUSH2 0x17E7 DUP4 PUSH2 0x2669 JUMP JUMPDEST POP POP POP POP JUMP JUMPDEST PUSH1 0x0 PUSH20 0xFFFFFFFFFFFFFFFFFFFFFFFFFFFFFFFFFFFFFFFF AND DUP3 PUSH20 0xFFFFFFFFFFFFFFFFFFFFFFFFFFFFFFFFFFFFFFFF AND SUB PUSH2 0x1700 JUMPI PUSH1 0x40 MLOAD PUSH32 0x8C379A000000000000000000000000000000000000000000000000000000000 DUP2 MSTORE PUSH1 0x4 ADD PUSH2 0x16F7 SWAP1 PUSH2 0x44F1 JUMP JUMPDEST PUSH1 0x40 MLOAD DUP1 SWAP2 SUB SWAP1 REVERT JUMPDEST PUSH2 0x170C PUSH1 0x0 DUP4 DUP4 PUSH2 0x2938 JUMP JUMPDEST DUP1 PUSH1 0x2 PUSH1 0x0 DUP3 DUP3 SLOAD PUSH2 0x171E SWAP2 SWAP1 PUSH2 0x3D1B JUMP JUMPDEST SWAP3 POP POP DUP2 SWAP1 SSTORE POP DUP1 PUSH1 0x0 DUP1 DUP5 PUSH20 0xFFFFFFFFFFFFFFFFFFFFFFFFFFFFFFFFFFFFFFFF AND PUSH20 0xFFFFFFFFFFFFFFFFFFFFFFFFFFFFFFFFFFFFFFFF AND DUP2 MSTORE PUSH1 0x20 ADD SWAP1 DUP2 MSTORE PUSH1 0x20 ADD PUSH1 0x0 KECCAK256 PUSH1 0x0 DUP3 DUP3 SLOAD ADD SWAP3 POP POP DUP2 SWAP1 SSTORE POP DUP2 PUSH20 0xFFFFFFFFFFFFFFFFFFFFFFFFFFFFFFFFFFFFFFFF AND PUSH1 0x0 PUSH20 0xFFFFFFFFFFFFFFFFFFFFFFFFFFFFFFFFFFFFFFFF AND PUSH32 0xDDF252AD1BE2C89B69C2B068FC378DAA952BA7F163C4A11628F55A4DF523B3EF DUP4 PUSH1 0x40 MLOAD PUSH2 0x17CF SWAP2 SWAP1 PUSH2 0x3707 JUMP JUMPDEST PUSH1 0x40 MLOAD DUP1 SWAP2 SUB SWAP1 LOG3 PUSH2 0x17E3 PUSH1 0x0 DUP4 DUP4 PUSH2 0x2950 JUMP JUMPDEST POP POP JUMP JUMPDEST PUSH1 0x0 DUP2 DUP4 PUSH2 0x17F5 SWAP2 SWAP1 PUSH2 0x3D1B JUMP JUMPDEST SWAP1 POP SWAP3 SWAP2 POP POP JUMP JUMPDEST PUSH1 0x0 PUSH28 0xFFFFFFFFFFFFFFFFFFFFFFFFFFFFFFFFFFFFFFFFFFFFFFFFFFFFFFFF DUP1 AND DUP3 GT ISZERO PUSH2 0x1860 JUMPI PUSH1 0x40 MLOAD PUSH32 0x8C379A000000000000000000000000000000000000000000000000000000000 DUP2 MSTORE PUSH1 0x4 ADD PUSH2 0x1857 SWAP1 PUSH2 0x4583 JUMP JUMPDEST PUSH1 0x40 MLOAD DUP1 SWAP2 SUB SWAP1 REVERT JUMPDEST DUP2 SWAP1 POP SWAP2 SWAP1 POP JUMP JUMPDEST PUSH1 0x0 PUSH4 0xFFFFFFFF DUP1 AND DUP3 GT ISZERO PUSH2 0x18B3 JUMPI PUSH1 0x40 MLOAD PUSH32 0x8C379A000000000000000000000000000000000000000000000000000000000 DUP2 MSTORE PUSH1 0x4 ADD PUSH2 0x18AA SWAP1 PUSH2 0x4615 JUMP JUMPDEST PUSH1 0x40 MLOAD DUP1 SWAP2 SUB SWAP1 REVERT JUMPDEST DUP2 SWAP1 POP SWAP2 SWAP1 POP JUMP JUMPDEST PUSH2 0x18C6 DUP4 DUP4 DUP4 PUSH2 0x199E JUMP JUMPDEST PUSH1 0x0 PUSH20 0xFFFFFFFFFFFFFFFFFFFFFFFFFFFFFFFFFFFFFFFF AND DUP4 PUSH20 0xFFFFFFFFFFFFFFFFFFFFFFFFFFFFFFFFFFFFFFFF AND SUB PUSH2 0x1910 JUMPI PUSH2 0x1903 DUP3 PUSH2 0x2960 JUMP JUMPDEST PUSH2 0x190B PUSH2 0x29B3 JUMP JUMPDEST PUSH2 0x196E JUMP JUMPDEST PUSH1 0x0 PUSH20 0xFFFFFFFFFFFFFFFFFFFFFFFFFFFFFFFFFFFFFFFF AND DUP3 PUSH20 0xFFFFFFFFFFFFFFFFFFFFFFFFFFFFFFFFFFFFFFFF AND SUB PUSH2 0x195A JUMPI PUSH2 0x194D DUP4 PUSH2 0x2960 JUMP JUMPDEST PUSH2 0x1955 PUSH2 0x29B3 JUMP JUMPDEST PUSH2 0x196D JUMP JUMPDEST PUSH2 0x1963 DUP4 PUSH2 0x2960 JUMP JUMPDEST PUSH2 0x196C DUP3 PUSH2 0x2960 JUMP JUMPDEST JUMPDEST JUMPDEST POP POP POP JUMP JUMPDEST PUSH2 0x197E DUP4 DUP4 DUP4 PUSH2 0x19A3 JUMP JUMPDEST PUSH2 0x1999 PUSH2 0x198A DUP5 PUSH2 0x9F7 JUMP JUMPDEST PUSH2 0x1993 DUP5 PUSH2 0x9F7 JUMP JUMPDEST DUP4 PUSH2 0x29C7 JUMP JUMPDEST POP POP POP JUMP JUMPDEST POP POP POP JUMP JUMPDEST POP POP POP JUMP JUMPDEST PUSH1 0x0 DUP2 DUP4 PUSH2 0x19B6 SWAP2 SWAP1 PUSH2 0x3FCA JUMP JUMPDEST SWAP1 POP SWAP3 SWAP2 POP POP JUMP JUMPDEST PUSH1 0x0 DUP2 PUSH1 0x0 ADD SLOAD SWAP1 POP SWAP2 SWAP1 POP JUMP JUMPDEST PUSH1 0x0 CALLER SWAP1 POP SWAP1 JUMP JUMPDEST PUSH1 0x0 PUSH20 0xFFFFFFFFFFFFFFFFFFFFFFFFFFFFFFFFFFFFFFFF AND DUP4 PUSH20 0xFFFFFFFFFFFFFFFFFFFFFFFFFFFFFFFFFFFFFFFF AND SUB PUSH2 0x1A43 JUMPI PUSH1 0x40 MLOAD PUSH32 0x8C379A000000000000000000000000000000000000000000000000000000000 DUP2 MSTORE PUSH1 0x4 ADD PUSH2 0x1A3A SWAP1 PUSH2 0x46A7 JUMP JUMPDEST PUSH1 0x40 MLOAD DUP1 SWAP2 SUB SWAP1 REVERT JUMPDEST PUSH1 0x0 PUSH20 0xFFFFFFFFFFFFFFFFFFFFFFFFFFFFFFFFFFFFFFFF AND DUP3 PUSH20 0xFFFFFFFFFFFFFFFFFFFFFFFFFFFFFFFFFFFFFFFF AND SUB PUSH2 0x1AB2 JUMPI PUSH1 0x40 MLOAD PUSH32 0x8C379A000000000000000000000000000000000000000000000000000000000 DUP2 MSTORE PUSH1 0x4 ADD PUSH2 0x1AA9 SWAP1 PUSH2 0x4739 JUMP JUMPDEST PUSH1 0x40 MLOAD DUP1 SWAP2 SUB SWAP1 REVERT JUMPDEST DUP1 PUSH1 0x1 PUSH1 0x0 DUP6 PUSH20 0xFFFFFFFFFFFFFFFFFFFFFFFFFFFFFFFFFFFFFFFF AND PUSH20 0xFFFFFFFFFFFFFFFFFFFFFFFFFFFFFFFFFFFFFFFF AND DUP2 MSTORE PUSH1 0x20 ADD SWAP1 DUP2 MSTORE PUSH1 0x20 ADD PUSH1 0x0 KECCAK256 PUSH1 0x0 DUP5 PUSH20 0xFFFFFFFFFFFFFFFFFFFFFFFFFFFFFFFFFFFFFFFF AND PUSH20 0xFFFFFFFFFFFFFFFFFFFFFFFFFFFFFFFFFFFFFFFF AND DUP2 MSTORE PUSH1 0x20 ADD SWAP1 DUP2 MSTORE PUSH1 0x20 ADD PUSH1 0x0 KECCAK256 DUP2 SWAP1 SSTORE POP DUP2 PUSH20 0xFFFFFFFFFFFFFFFFFFFFFFFFFFFFFFFFFFFFFFFF AND DUP4 PUSH20 0xFFFFFFFFFFFFFFFFFFFFFFFFFFFFFFFFFFFFFFFF AND PUSH32 0x8C5BE1E5EBEC7D5BD14F71427D1E84F3DD0314C0F7B2291E5B200AC8C7C3B925 DUP4 PUSH1 0x40 MLOAD PUSH2 0x1B90 SWAP2 SWAP1 PUSH2 0x3707 JUMP JUMPDEST PUSH1 0x40 MLOAD DUP1 SWAP2 SUB SWAP1 LOG3 POP POP POP JUMP JUMPDEST PUSH1 0x0 PUSH2 0x1BA9 DUP5 DUP5 PUSH2 0x13EA JUMP JUMPDEST SWAP1 POP PUSH32 0xFFFFFFFFFFFFFFFFFFFFFFFFFFFFFFFFFFFFFFFFFFFFFFFFFFFFFFFFFFFFFFFF DUP2 EQ PUSH2 0x1C23 JUMPI DUP2 DUP2 LT ISZERO PUSH2 0x1C15 JUMPI PUSH1 0x40 MLOAD PUSH32 0x8C379A000000000000000000000000000000000000000000000000000000000 DUP2 MSTORE PUSH1 0x4 ADD PUSH2 0x1C0C SWAP1 PUSH2 0x47A5 JUMP JUMPDEST PUSH1 0x40 MLOAD DUP1 SWAP2 SUB SWAP1 REVERT JUMPDEST PUSH2 0x1C22 DUP5 DUP5 DUP5 DUP5 SUB PUSH2 0x19D4 JUMP JUMPDEST JUMPDEST POP POP POP POP JUMP JUMPDEST PUSH1 0x0 PUSH20 0xFFFFFFFFFFFFFFFFFFFFFFFFFFFFFFFFFFFFFFFF AND DUP4 PUSH20 0xFFFFFFFFFFFFFFFFFFFFFFFFFFFFFFFFFFFFFFFF AND SUB PUSH2 0x1C98 JUMPI PUSH1 0x40 MLOAD PUSH32 0x8C379A000000000000000000000000000000000000000000000000000000000 DUP2 MSTORE PUSH1 0x4 ADD PUSH2 0x1C8F SWAP1 PUSH2 0x4837 JUMP JUMPDEST PUSH1 0x40 MLOAD DUP1 SWAP2 SUB SWAP1 REVERT JUMPDEST PUSH1 0x0 PUSH20 0xFFFFFFFFFFFFFFFFFFFFFFFFFFFFFFFFFFFFFFFF AND DUP3 PUSH20 0xFFFFFFFFFFFFFFFFFFFFFFFFFFFFFFFFFFFFFFFF AND SUB PUSH2 0x1D07 JUMPI PUSH1 0x40 MLOAD PUSH32 0x8C379A000000000000000000000000000000000000000000000000000000000 DUP2 MSTORE PUSH1 0x4 ADD PUSH2 0x1CFE SWAP1 PUSH2 0x48C9 JUMP JUMPDEST PUSH1 0x40 MLOAD DUP1 SWAP2 SUB SWAP1 REVERT JUMPDEST PUSH2 0x1D12 DUP4 DUP4 DUP4 PUSH2 0x2938 JUMP JUMPDEST PUSH1 0x0 DUP1 PUSH1 0x0 DUP6 PUSH20 0xFFFFFFFFFFFFFFFFFFFFFFFFFFFFFFFFFFFFFFFF AND PUSH20 0xFFFFFFFFFFFFFFFFFFFFFFFFFFFFFFFFFFFFFFFF AND DUP2 MSTORE PUSH1 0x20 ADD SWAP1 DUP2 MSTORE PUSH1 0x20 ADD PUSH1 0x0 KECCAK256 SLOAD SWAP1 POP DUP2 DUP2 LT ISZERO PUSH2 0x1D98 JUMPI PUSH1 0x40 MLOAD PUSH32 0x8C379A000000000000000000000000000000000000000000000000000000000 DUP2 MSTORE PUSH1 0x4 ADD PUSH2 0x1D8F SWAP1 PUSH2 0x495B JUMP JUMPDEST PUSH1 0x40 MLOAD DUP1 SWAP2 SUB SWAP1 REVERT JUMPDEST DUP2 DUP2 SUB PUSH1 0x0 DUP1 DUP7 PUSH20 0xFFFFFFFFFFFFFFFFFFFFFFFFFFFFFFFFFFFFFFFF AND PUSH20 0xFFFFFFFFFFFFFFFFFFFFFFFFFFFFFFFFFFFFFFFF AND DUP2 MSTORE PUSH1 0x20 ADD SWAP1 DUP2 MSTORE PUSH1 0x20 ADD PUSH1 0x0 KECCAK256 DUP2 SWAP1 SSTORE POP DUP2 PUSH1 0x0 DUP1 DUP6 PUSH20 0xFFFFFFFFFFFFFFFFFFFFFFFFFFFFFFFFFFFFFFFF AND PUSH20 0xFFFFFFFFFFFFFFFFFFFFFFFFFFFFFFFFFFFFFFFF AND DUP2 MSTORE PUSH1 0x20 ADD SWAP1 DUP2 MSTORE PUSH1 0x20 ADD PUSH1 0x0 KECCAK256 PUSH1 0x0 DUP3 DUP3 SLOAD ADD SWAP3 POP POP DUP2 SWAP1 SSTORE POP DUP3 PUSH20 0xFFFFFFFFFFFFFFFFFFFFFFFFFFFFFFFFFFFFFFFF AND DUP5 PUSH20 0xFFFFFFFFFFFFFFFFFFFFFFFFFFFFFFFFFFFFFFFF AND PUSH32 0xDDF252AD1BE2C89B69C2B068FC378DAA952BA7F163C4A11628F55A4DF523B3EF DUP5 PUSH1 0x40 MLOAD PUSH2 0x1E86 SWAP2 SWAP1 PUSH2 0x3707 JUMP JUMPDEST PUSH1 0x40 MLOAD DUP1 SWAP2 SUB SWAP1 LOG3 PUSH2 0x1E99 DUP5 DUP5 DUP5 PUSH2 0x2950 JUMP JUMPDEST POP POP POP POP JUMP JUMPDEST PUSH1 0x0 PUSH32 0x0 PUSH20 0xFFFFFFFFFFFFFFFFFFFFFFFFFFFFFFFFFFFFFFFF AND ADDRESS PUSH20 0xFFFFFFFFFFFFFFFFFFFFFFFFFFFFFFFFFFFFFFFF AND EQ DUP1 ISZERO PUSH2 0x1F1B JUMPI POP PUSH32 0x0 CHAINID EQ JUMPDEST ISZERO PUSH2 0x1F48 JUMPI PUSH32 0x0 SWAP1 POP PUSH2 0x1FB6 JUMP JUMPDEST PUSH2 0x1FB3 PUSH32 0x0 PUSH32 0x0 PUSH32 0x0 PUSH2 0x2BC0 JUMP JUMPDEST SWAP1 POP JUMPDEST SWAP1 JUMP JUMPDEST PUSH1 0x0 DUP1 DUP4 DUP1 SLOAD SWAP1 POP SWAP1 POP PUSH1 0x0 DUP1 DUP3 SWAP1 POP PUSH1 0x5 DUP4 GT ISZERO PUSH2 0x202F JUMPI PUSH1 0x0 PUSH2 0x1FDD DUP5 PUSH2 0x2BFA JUMP JUMPDEST DUP5 PUSH2 0x1FE8 SWAP2 SWAP1 PUSH2 0x3FCA JUMP JUMPDEST SWAP1 POP DUP6 PUSH2 0x1FF5 DUP9 DUP4 PUSH2 0x2CF3 JUMP JUMPDEST PUSH1 0x0 ADD PUSH1 0x0 SWAP1 SLOAD SWAP1 PUSH2 0x100 EXP SWAP1 DIV PUSH4 0xFFFFFFFF AND PUSH4 0xFFFFFFFF AND GT ISZERO PUSH2 0x201D JUMPI DUP1 SWAP2 POP PUSH2 0x202D JUMP JUMPDEST PUSH1 0x1 DUP2 PUSH2 0x202A SWAP2 SWAP1 PUSH2 0x3D1B JUMP JUMPDEST SWAP3 POP JUMPDEST POP JUMPDEST JUMPDEST DUP1 DUP3 LT ISZERO PUSH2 0x208F JUMPI PUSH1 0x0 PUSH2 0x2044 DUP4 DUP4 PUSH2 0x2D08 JUMP JUMPDEST SWAP1 POP DUP6 PUSH2 0x2051 DUP9 DUP4 PUSH2 0x2CF3 JUMP JUMPDEST PUSH1 0x0 ADD PUSH1 0x0 SWAP1 SLOAD SWAP1 PUSH2 0x100 EXP SWAP1 DIV PUSH4 0xFFFFFFFF AND PUSH4 0xFFFFFFFF AND GT ISZERO PUSH2 0x2079 JUMPI DUP1 SWAP2 POP PUSH2 0x2089 JUMP JUMPDEST PUSH1 0x1 DUP2 PUSH2 0x2086 SWAP2 SWAP1 PUSH2 0x3D1B JUMP JUMPDEST SWAP3 POP JUMPDEST POP PUSH2 0x2030 JUMP JUMPDEST PUSH1 0x0 DUP2 EQ PUSH2 0x20DE JUMPI PUSH2 0x20AD DUP7 PUSH1 0x1 DUP4 PUSH2 0x20A8 SWAP2 SWAP1 PUSH2 0x3FCA JUMP JUMPDEST PUSH2 0x2CF3 JUMP JUMPDEST PUSH1 0x0 ADD PUSH1 0x4 SWAP1 SLOAD SWAP1 PUSH2 0x100 EXP SWAP1 DIV PUSH28 0xFFFFFFFFFFFFFFFFFFFFFFFFFFFFFFFFFFFFFFFFFFFFFFFFFFFFFFFF AND PUSH2 0x20E1 JUMP JUMPDEST PUSH1 0x0 JUMPDEST PUSH28 0xFFFFFFFFFFFFFFFFFFFFFFFFFFFFFFFFFFFFFFFFFFFFFFFFFFFFFFFF AND SWAP4 POP POP POP POP SWAP3 SWAP2 POP POP JUMP JUMPDEST PUSH2 0x2112 PUSH2 0x19CC JUMP JUMPDEST PUSH20 0xFFFFFFFFFFFFFFFFFFFFFFFFFFFFFFFFFFFFFFFF AND PUSH2 0x2130 PUSH2 0xE21 JUMP JUMPDEST PUSH20 0xFFFFFFFFFFFFFFFFFFFFFFFFFFFFFFFFFFFFFFFF AND EQ PUSH2 0x2186 JUMPI PUSH1 0x40 MLOAD PUSH32 0x8C379A000000000000000000000000000000000000000000000000000000000 DUP2 MSTORE PUSH1 0x4 ADD PUSH2 0x217D SWAP1 PUSH2 0x49C7 JUMP JUMPDEST PUSH1 0x40 MLOAD DUP1 SWAP2 SUB SWAP1 REVERT JUMPDEST JUMP JUMPDEST PUSH2 0x2190 PUSH2 0x2D2E JUMP JUMPDEST PUSH1 0x0 PUSH1 0x9 PUSH1 0x14 PUSH2 0x100 EXP DUP2 SLOAD DUP2 PUSH1 0xFF MUL NOT AND SWAP1 DUP4 ISZERO ISZERO MUL OR SWAP1 SSTORE POP PUSH32 0x5DB9EE0A495BF2E6FF9C91A7834C1BA4FDD244A5E8AA4E537BD38AEAE4B073AA PUSH2 0x21D4 PUSH2 0x19CC JUMP JUMPDEST PUSH1 0x40 MLOAD PUSH2 0x21E1 SWAP2 SWAP1 PUSH2 0x3849 JUMP JUMPDEST PUSH1 0x40 MLOAD DUP1 SWAP2 SUB SWAP1 LOG1 JUMP JUMPDEST PUSH2 0x21F5 DUP3 DUP3 PUSH2 0x1604 JUMP JUMPDEST POP POP JUMP JUMPDEST PUSH2 0x2203 DUP3 DUP3 PUSH2 0x2D77 JUMP JUMPDEST POP POP JUMP JUMPDEST PUSH1 0x0 DUP1 PUSH1 0x0 DUP5 GT PUSH2 0x224D JUMPI PUSH1 0x40 MLOAD PUSH32 0x8C379A000000000000000000000000000000000000000000000000000000000 DUP2 MSTORE PUSH1 0x4 ADD PUSH2 0x2244 SWAP1 PUSH2 0x4A33 JUMP JUMPDEST PUSH1 0x40 MLOAD DUP1 SWAP2 SUB SWAP1 REVERT JUMPDEST PUSH2 0x2255 PUSH2 0x2D95 JUMP JUMPDEST DUP5 GT ISZERO PUSH2 0x2297 JUMPI PUSH1 0x40 MLOAD PUSH32 0x8C379A000000000000000000000000000000000000000000000000000000000 DUP2 MSTORE PUSH1 0x4 ADD PUSH2 0x228E SWAP1 PUSH2 0x4A9F JUMP JUMPDEST PUSH1 0x40 MLOAD DUP1 SWAP2 SUB SWAP1 REVERT JUMPDEST PUSH1 0x0 PUSH2 0x22AF DUP6 DUP6 PUSH1 0x0 ADD PUSH2 0x2DA6 SWAP1 SWAP2 SWAP1 PUSH4 0xFFFFFFFF AND JUMP JUMPDEST SWAP1 POP DUP4 PUSH1 0x0 ADD DUP1 SLOAD SWAP1 POP DUP2 SUB PUSH2 0x22CC JUMPI PUSH1 0x0 DUP1 SWAP3 POP SWAP3 POP POP PUSH2 0x22F5 JUMP JUMPDEST PUSH1 0x1 DUP5 PUSH1 0x1 ADD DUP3 DUP2 SLOAD DUP2 LT PUSH2 0x22E4 JUMPI PUSH2 0x22E3 PUSH2 0x3FFE JUMP JUMPDEST JUMPDEST SWAP1 PUSH1 0x0 MSTORE PUSH1 0x20 PUSH1 0x0 KECCAK256 ADD SLOAD SWAP3 POP SWAP3 POP POP JUMPDEST SWAP3 POP SWAP3 SWAP1 POP JUMP JUMPDEST PUSH1 0x0 PUSH2 0x2307 DUP4 PUSH2 0x9F7 JUMP JUMPDEST SWAP1 POP PUSH1 0x0 PUSH2 0x2314 DUP5 PUSH2 0xD43 JUMP JUMPDEST SWAP1 POP DUP3 PUSH1 0xC PUSH1 0x0 DUP7 PUSH20 0xFFFFFFFFFFFFFFFFFFFFFFFFFFFFFFFFFFFFFFFF AND PUSH20 0xFFFFFFFFFFFFFFFFFFFFFFFFFFFFFFFFFFFFFFFF AND DUP2 MSTORE PUSH1 0x20 ADD SWAP1 DUP2 MSTORE PUSH1 0x20 ADD PUSH1 0x0 KECCAK256 PUSH1 0x0 PUSH2 0x100 EXP DUP2 SLOAD DUP2 PUSH20 0xFFFFFFFFFFFFFFFFFFFFFFFFFFFFFFFFFFFFFFFF MUL NOT AND SWAP1 DUP4 PUSH20 0xFFFFFFFFFFFFFFFFFFFFFFFFFFFFFFFFFFFFFFFF AND MUL OR SWAP1 SSTORE POP DUP3 PUSH20 0xFFFFFFFFFFFFFFFFFFFFFFFFFFFFFFFFFFFFFFFF AND DUP3 PUSH20 0xFFFFFFFFFFFFFFFFFFFFFFFFFFFFFFFFFFFFFFFF AND DUP6 PUSH20 0xFFFFFFFFFFFFFFFFFFFFFFFFFFFFFFFFFFFFFFFF AND PUSH32 0x3134E8A2E6D97E929A7E54011EA5485D7D196DD5F0BA4D4EF95803E8E3FC257F PUSH1 0x40 MLOAD PUSH1 0x40 MLOAD DUP1 SWAP2 SUB SWAP1 LOG4 PUSH2 0x2410 DUP3 DUP5 DUP4 PUSH2 0x29C7 JUMP JUMPDEST POP POP POP POP JUMP JUMPDEST PUSH1 0x0 SWAP1 JUMP JUMPDEST PUSH1 0x0 PUSH1 0x9 PUSH1 0x0 SWAP1 SLOAD SWAP1 PUSH2 0x100 EXP SWAP1 DIV PUSH20 0xFFFFFFFFFFFFFFFFFFFFFFFFFFFFFFFFFFFFFFFF AND SWAP1 POP DUP2 PUSH1 0x9 PUSH1 0x0 PUSH2 0x100 EXP DUP2 SLOAD DUP2 PUSH20 0xFFFFFFFFFFFFFFFFFFFFFFFFFFFFFFFFFFFFFFFF MUL NOT AND SWAP1 DUP4 PUSH20 0xFFFFFFFFFFFFFFFFFFFFFFFFFFFFFFFFFFFFFFFF AND MUL OR SWAP1 SSTORE POP DUP2 PUSH20 0xFFFFFFFFFFFFFFFFFFFFFFFFFFFFFFFFFFFFFFFF AND DUP2 PUSH20 0xFFFFFFFFFFFFFFFFFFFFFFFFFFFFFFFFFFFFFFFF AND PUSH32 0x8BE0079C531659141344CD1FD0A4F28419497F9722A3DAAFE3B4186F6B6457E0 PUSH1 0x40 MLOAD PUSH1 0x40 MLOAD DUP1 SWAP2 SUB SWAP1 LOG3 POP POP JUMP JUMPDEST PUSH2 0x24E9 PUSH2 0x2E5F JUMP JUMPDEST PUSH1 0x1 PUSH1 0x9 PUSH1 0x14 PUSH2 0x100 EXP DUP2 SLOAD DUP2 PUSH1 0xFF MUL NOT AND SWAP1 DUP4 ISZERO ISZERO MUL OR SWAP1 SSTORE POP PUSH32 0x62E78CEA01BEE320CD4E420270B5EA74000D11B0C9F74754EBDBFC544B05A258 PUSH2 0x252D PUSH2 0x19CC JUMP JUMPDEST PUSH1 0x40 MLOAD PUSH2 0x253A SWAP2 SWAP1 PUSH2 0x3849 JUMP JUMPDEST PUSH1 0x40 MLOAD DUP1 SWAP2 SUB SWAP1 LOG1 JUMP JUMPDEST PUSH1 0x0 PUSH2 0x2550 PUSH1 0x8 PUSH2 0x2EA9 JUMP JUMPDEST PUSH1 0x0 PUSH2 0x255A PUSH2 0x2D95 JUMP JUMPDEST SWAP1 POP PUSH32 0x8030E83B04D87BEF53480E26263266D6CA66863AA8506ACA6F2559D18AA1CB67 DUP2 PUSH1 0x40 MLOAD PUSH2 0x258B SWAP2 SWAP1 PUSH2 0x3707 JUMP JUMPDEST PUSH1 0x40 MLOAD DUP1 SWAP2 SUB SWAP1 LOG1 DUP1 SWAP2 POP POP SWAP1 JUMP JUMPDEST PUSH1 0x0 PUSH2 0x25AD PUSH2 0x25A7 PUSH2 0x1E9F JUMP JUMPDEST DUP4 PUSH2 0x2EBF JUMP JUMPDEST SWAP1 POP SWAP2 SWAP1 POP JUMP JUMPDEST PUSH1 0x0 DUP1 PUSH1 0x0 PUSH2 0x25C5 DUP8 DUP8 DUP8 DUP8 PUSH2 0x2EF2 JUMP JUMPDEST SWAP2 POP SWAP2 POP PUSH2 0x25D2 DUP2 PUSH2 0x2FD4 JUMP JUMPDEST DUP2 SWAP3 POP POP POP SWAP5 SWAP4 POP POP POP POP JUMP JUMPDEST PUSH1 0x0 DUP1 PUSH1 0xA PUSH1 0x0 DUP5 PUSH20 0xFFFFFFFFFFFFFFFFFFFFFFFFFFFFFFFFFFFFFFFF AND PUSH20 0xFFFFFFFFFFFFFFFFFFFFFFFFFFFFFFFFFFFFFFFF AND DUP2 MSTORE PUSH1 0x20 ADD SWAP1 DUP2 MSTORE PUSH1 0x20 ADD PUSH1 0x0 KECCAK256 SWAP1 POP PUSH2 0x262C DUP2 PUSH2 0x19BE JUMP JUMPDEST SWAP2 POP PUSH2 0x2637 DUP2 PUSH2 0x2EA9 JUMP JUMPDEST POP SWAP2 SWAP1 POP JUMP JUMPDEST PUSH1 0x0 SWAP3 SWAP2 POP POP JUMP JUMPDEST PUSH1 0x0 PUSH28 0xFFFFFFFFFFFFFFFFFFFFFFFFFFFFFFFFFFFFFFFFFFFFFFFFFFFFFFFF SWAP1 POP SWAP1 JUMP JUMPDEST PUSH1 0x0 DUP1 PUSH1 0x0 DUP6 DUP1 SLOAD SWAP1 POP SWAP1 POP PUSH1 0x0 DUP1 DUP3 EQ PUSH2 0x2738 JUMPI PUSH2 0x2694 DUP8 PUSH1 0x1 DUP5 PUSH2 0x268F SWAP2 SWAP1 PUSH2 0x3FCA JUMP JUMPDEST PUSH2 0x2CF3 JUMP JUMPDEST PUSH1 0x40 MLOAD DUP1 PUSH1 0x40 ADD PUSH1 0x40 MSTORE SWAP1 DUP2 PUSH1 0x0 DUP3 ADD PUSH1 0x0 SWAP1 SLOAD SWAP1 PUSH2 0x100 EXP SWAP1 DIV PUSH4 0xFFFFFFFF AND PUSH4 0xFFFFFFFF AND PUSH4 0xFFFFFFFF AND DUP2 MSTORE PUSH1 0x20 ADD PUSH1 0x0 DUP3 ADD PUSH1 0x4 SWAP1 SLOAD SWAP1 PUSH2 0x100 EXP SWAP1 DIV PUSH28 0xFFFFFFFFFFFFFFFFFFFFFFFFFFFFFFFFFFFFFFFFFFFFFFFFFFFFFFFF AND PUSH28 0xFFFFFFFFFFFFFFFFFFFFFFFFFFFFFFFFFFFFFFFFFFFFFFFFFFFFFFFF AND PUSH28 0xFFFFFFFFFFFFFFFFFFFFFFFFFFFFFFFFFFFFFFFFFFFFFFFFFFFFFFFF AND DUP2 MSTORE POP POP PUSH2 0x2774 JUMP JUMPDEST PUSH1 0x40 MLOAD DUP1 PUSH1 0x40 ADD PUSH1 0x40 MSTORE DUP1 PUSH1 0x0 PUSH4 0xFFFFFFFF AND DUP2 MSTORE PUSH1 0x20 ADD PUSH1 0x0 PUSH28 0xFFFFFFFFFFFFFFFFFFFFFFFFFFFFFFFFFFFFFFFFFFFFFFFFFFFFFFFF AND DUP2 MSTORE POP JUMPDEST SWAP1 POP DUP1 PUSH1 0x20 ADD MLOAD PUSH28 0xFFFFFFFFFFFFFFFFFFFFFFFFFFFFFFFFFFFFFFFFFFFFFFFFFFFFFFFF AND SWAP4 POP PUSH2 0x27A9 DUP5 DUP7 DUP9 PUSH4 0xFFFFFFFF AND JUMP JUMPDEST SWAP3 POP PUSH1 0x0 DUP3 GT DUP1 ISZERO PUSH2 0x27C4 JUMPI POP NUMBER DUP2 PUSH1 0x0 ADD MLOAD PUSH4 0xFFFFFFFF AND EQ JUMPDEST ISZERO PUSH2 0x283E JUMPI PUSH2 0x27D2 DUP4 PUSH2 0x17FD JUMP JUMPDEST PUSH2 0x27E8 DUP9 PUSH1 0x1 DUP6 PUSH2 0x27E3 SWAP2 SWAP1 PUSH2 0x3FCA JUMP JUMPDEST PUSH2 0x2CF3 JUMP JUMPDEST PUSH1 0x0 ADD PUSH1 0x4 PUSH2 0x100 EXP DUP2 SLOAD DUP2 PUSH28 0xFFFFFFFFFFFFFFFFFFFFFFFFFFFFFFFFFFFFFFFFFFFFFFFFFFFFFFFF MUL NOT AND SWAP1 DUP4 PUSH28 0xFFFFFFFFFFFFFFFFFFFFFFFFFFFFFFFFFFFFFFFFFFFFFFFFFFFFFFFF AND MUL OR SWAP1 SSTORE POP PUSH2 0x292E JUMP JUMPDEST DUP7 PUSH1 0x40 MLOAD DUP1 PUSH1 0x40 ADD PUSH1 0x40 MSTORE DUP1 PUSH2 0x2853 NUMBER PUSH2 0x1868 JUMP JUMPDEST PUSH4 0xFFFFFFFF AND DUP2 MSTORE PUSH1 0x20 ADD PUSH2 0x2867 DUP7 PUSH2 0x17FD JUMP JUMPDEST PUSH28 0xFFFFFFFFFFFFFFFFFFFFFFFFFFFFFFFFFFFFFFFFFFFFFFFFFFFFFFFF AND DUP2 MSTORE POP SWAP1 DUP1 PUSH1 0x1 DUP2 SLOAD ADD DUP1 DUP3 SSTORE DUP1 SWAP2 POP POP PUSH1 0x1 SWAP1 SUB SWAP1 PUSH1 0x0 MSTORE PUSH1 0x20 PUSH1 0x0 KECCAK256 ADD PUSH1 0x0 SWAP1 SWAP2 SWAP1 SWAP2 SWAP1 SWAP2 POP PUSH1 0x0 DUP3 ADD MLOAD DUP2 PUSH1 0x0 ADD PUSH1 0x0 PUSH2 0x100 EXP DUP2 SLOAD DUP2 PUSH4 0xFFFFFFFF MUL NOT AND SWAP1 DUP4 PUSH4 0xFFFFFFFF AND MUL OR SWAP1 SSTORE POP PUSH1 0x20 DUP3 ADD MLOAD DUP2 PUSH1 0x0 ADD PUSH1 0x4 PUSH2 0x100 EXP DUP2 SLOAD DUP2 PUSH28 0xFFFFFFFFFFFFFFFFFFFFFFFFFFFFFFFFFFFFFFFFFFFFFFFFFFFFFFFF MUL NOT AND SWAP1 DUP4 PUSH28 0xFFFFFFFFFFFFFFFFFFFFFFFFFFFFFFFFFFFFFFFFFFFFFFFFFFFFFFFF AND MUL OR SWAP1 SSTORE POP POP POP JUMPDEST POP POP SWAP4 POP SWAP4 SWAP2 POP POP JUMP JUMPDEST PUSH2 0x2940 PUSH2 0x2E5F JUMP JUMPDEST PUSH2 0x294B DUP4 DUP4 DUP4 PUSH2 0x18BB JUMP JUMPDEST POP POP POP JUMP JUMPDEST PUSH2 0x295B DUP4 DUP4 DUP4 PUSH2 0x1973 JUMP JUMPDEST POP POP POP JUMP JUMPDEST PUSH2 0x29B0 PUSH1 0x5 PUSH1 0x0 DUP4 PUSH20 0xFFFFFFFFFFFFFFFFFFFFFFFFFFFFFFFFFFFFFFFF AND PUSH20 0xFFFFFFFFFFFFFFFFFFFFFFFFFFFFFFFFFFFFFFFF AND DUP2 MSTORE PUSH1 0x20 ADD SWAP1 DUP2 MSTORE PUSH1 0x20 ADD PUSH1 0x0 KECCAK256 PUSH2 0x29AB DUP4 PUSH2 0xD43 JUMP JUMPDEST PUSH2 0x313A JUMP JUMPDEST POP JUMP JUMPDEST PUSH2 0x29C5 PUSH1 0x6 PUSH2 0x29C0 PUSH2 0x82F JUMP JUMPDEST PUSH2 0x313A JUMP JUMPDEST JUMP JUMPDEST DUP2 PUSH20 0xFFFFFFFFFFFFFFFFFFFFFFFFFFFFFFFFFFFFFFFF AND DUP4 PUSH20 0xFFFFFFFFFFFFFFFFFFFFFFFFFFFFFFFFFFFFFFFF AND EQ ISZERO DUP1 ISZERO PUSH2 0x2A03 JUMPI POP PUSH1 0x0 DUP2 GT JUMPDEST ISZERO PUSH2 0x2BBB JUMPI PUSH1 0x0 PUSH20 0xFFFFFFFFFFFFFFFFFFFFFFFFFFFFFFFFFFFFFFFF AND DUP4 PUSH20 0xFFFFFFFFFFFFFFFFFFFFFFFFFFFFFFFFFFFFFFFF AND EQ PUSH2 0x2AE1 JUMPI PUSH1 0x0 DUP1 PUSH2 0x2A8A PUSH1 0xD PUSH1 0x0 DUP8 PUSH20 0xFFFFFFFFFFFFFFFFFFFFFFFFFFFFFFFFFFFFFFFF AND PUSH20 0xFFFFFFFFFFFFFFFFFFFFFFFFFFFFFFFFFFFFFFFF AND DUP2 MSTORE PUSH1 0x20 ADD SWAP1 DUP2 MSTORE PUSH1 0x20 ADD PUSH1 0x0 KECCAK256 PUSH2 0x19A8 DUP6 PUSH2 0x2669 JUMP JUMPDEST SWAP2 POP SWAP2 POP DUP5 PUSH20 0xFFFFFFFFFFFFFFFFFFFFFFFFFFFFFFFFFFFFFFFF AND PUSH32 0xDEC2BACDD2F05B59DE34DA9B523DFF8BE42E5E38E818C82FDB0BAE774387A724 DUP4 DUP4 PUSH1 0x40 MLOAD PUSH2 0x2AD6 SWAP3 SWAP2 SWAP1 PUSH2 0x4ABF JUMP JUMPDEST PUSH1 0x40 MLOAD DUP1 SWAP2 SUB SWAP1 LOG2 POP POP JUMPDEST PUSH1 0x0 PUSH20 0xFFFFFFFFFFFFFFFFFFFFFFFFFFFFFFFFFFFFFFFF AND DUP3 PUSH20 0xFFFFFFFFFFFFFFFFFFFFFFFFFFFFFFFFFFFFFFFF AND EQ PUSH2 0x2BBA JUMPI PUSH1 0x0 DUP1 PUSH2 0x2B63 PUSH1 0xD PUSH1 0x0 DUP7 PUSH20 0xFFFFFFFFFFFFFFFFFFFFFFFFFFFFFFFFFFFFFFFF AND PUSH20 0xFFFFFFFFFFFFFFFFFFFFFFFFFFFFFFFFFFFFFFFF AND DUP2 MSTORE PUSH1 0x20 ADD SWAP1 DUP2 MSTORE PUSH1 0x20 ADD PUSH1 0x0 KECCAK256 PUSH2 0x17E7 DUP6 PUSH2 0x2669 JUMP JUMPDEST SWAP2 POP SWAP2 POP DUP4 PUSH20 0xFFFFFFFFFFFFFFFFFFFFFFFFFFFFFFFFFFFFFFFF AND PUSH32 0xDEC2BACDD2F05B59DE34DA9B523DFF8BE42E5E38E818C82FDB0BAE774387A724 DUP4 DUP4 PUSH1 0x40 MLOAD PUSH2 0x2BAF SWAP3 SWAP2 SWAP1 PUSH2 0x4ABF JUMP JUMPDEST PUSH1 0x40 MLOAD DUP1 SWAP2 SUB SWAP1 LOG2 POP POP JUMPDEST JUMPDEST POP POP POP JUMP JUMPDEST PUSH1 0x0 DUP4 DUP4 DUP4 CHAINID ADDRESS PUSH1 0x40 MLOAD PUSH1 0x20 ADD PUSH2 0x2BDB SWAP6 SWAP5 SWAP4 SWAP3 SWAP2 SWAP1 PUSH2 0x4AE8 JUMP JUMPDEST PUSH1 0x40 MLOAD PUSH1 0x20 DUP2 DUP4 SUB SUB DUP2 MSTORE SWAP1 PUSH1 0x40 MSTORE DUP1 MLOAD SWAP1 PUSH1 0x20 ADD KECCAK256 SWAP1 POP SWAP4 SWAP3 POP POP POP JUMP JUMPDEST PUSH1 0x0 DUP1 DUP3 SUB PUSH2 0x2C0C JUMPI PUSH1 0x0 SWAP1 POP PUSH2 0x2CEE JUMP JUMPDEST PUSH1 0x0 PUSH1 0x1 PUSH2 0x2C19 DUP5 PUSH2 0x31B5 JUMP JUMPDEST SWAP1 SHR PUSH1 0x1 SWAP1 SHL SWAP1 POP PUSH1 0x1 DUP2 DUP5 DUP2 PUSH2 0x2C33 JUMPI PUSH2 0x2C32 PUSH2 0x4B3B JUMP JUMPDEST JUMPDEST DIV DUP3 ADD SWAP1 SHR SWAP1 POP PUSH1 0x1 DUP2 DUP5 DUP2 PUSH2 0x2C4C JUMPI PUSH2 0x2C4B PUSH2 0x4B3B JUMP JUMPDEST JUMPDEST DIV DUP3 ADD SWAP1 SHR SWAP1 POP PUSH1 0x1 DUP2 DUP5 DUP2 PUSH2 0x2C65 JUMPI PUSH2 0x2C64 PUSH2 0x4B3B JUMP JUMPDEST JUMPDEST DIV DUP3 ADD SWAP1 SHR SWAP1 POP PUSH1 0x1 DUP2 DUP5 DUP2 PUSH2 0x2C7E JUMPI PUSH2 0x2C7D PUSH2 0x4B3B JUMP JUMPDEST JUMPDEST DIV DUP3 ADD SWAP1 SHR SWAP1 POP PUSH1 0x1 DUP2 DUP5 DUP2 PUSH2 0x2C97 JUMPI PUSH2 0x2C96 PUSH2 0x4B3B JUMP JUMPDEST JUMPDEST DIV DUP3 ADD SWAP1 SHR SWAP1 POP PUSH1 0x1 DUP2 DUP5 DUP2 PUSH2 0x2CB0 JUMPI PUSH2 0x2CAF PUSH2 0x4B3B JUMP JUMPDEST JUMPDEST DIV DUP3 ADD SWAP1 SHR SWAP1 POP PUSH1 0x1 DUP2 DUP5 DUP2 PUSH2 0x2CC9 JUMPI PUSH2 0x2CC8 PUSH2 0x4B3B JUMP JUMPDEST JUMPDEST DIV DUP3 ADD SWAP1 SHR SWAP1 POP PUSH2 0x2CEA DUP2 DUP3 DUP6 DUP2 PUSH2 0x2CE4 JUMPI PUSH2 0x2CE3 PUSH2 0x4B3B JUMP JUMPDEST JUMPDEST DIV PUSH2 0x3296 JUMP JUMPDEST SWAP2 POP POP JUMPDEST SWAP2 SWAP1 POP JUMP JUMPDEST PUSH1 0x0 DUP3 PUSH1 0x0 MSTORE DUP2 PUSH1 0x20 PUSH1 0x0 KECCAK256 ADD SWAP1 POP SWAP3 SWAP2 POP POP JUMP JUMPDEST PUSH1 0x0 PUSH1 0x2 DUP3 DUP5 XOR PUSH2 0x2D19 SWAP2 SWAP1 PUSH2 0x4B6A JUMP JUMPDEST DUP3 DUP5 AND PUSH2 0x2D26 SWAP2 SWAP1 PUSH2 0x3D1B JUMP JUMPDEST SWAP1 POP SWAP3 SWAP2 POP POP JUMP JUMPDEST PUSH2 0x2D36 PUSH2 0xA74 JUMP JUMPDEST PUSH2 0x2D75 JUMPI PUSH1 0x40 MLOAD PUSH32 0x8C379A000000000000000000000000000000000000000000000000000000000 DUP2 MSTORE PUSH1 0x4 ADD PUSH2 0x2D6C SWAP1 PUSH2 0x4BE7 JUMP JUMPDEST PUSH1 0x40 MLOAD DUP1 SWAP2 SUB SWAP1 REVERT JUMPDEST JUMP JUMPDEST PUSH2 0x2D81 DUP3 DUP3 PUSH2 0x32AF JUMP JUMPDEST PUSH2 0x2D8F PUSH1 0xE PUSH2 0x19A8 DUP4 PUSH2 0x2669 JUMP JUMPDEST POP POP POP POP JUMP JUMPDEST PUSH1 0x0 PUSH2 0x2DA1 PUSH1 0x8 PUSH2 0x19BE JUMP JUMPDEST SWAP1 POP SWAP1 JUMP JUMPDEST PUSH1 0x0 DUP1 DUP4 DUP1 SLOAD SWAP1 POP SUB PUSH2 0x2DBC JUMPI PUSH1 0x0 SWAP1 POP PUSH2 0x2E59 JUMP JUMPDEST PUSH1 0x0 DUP1 DUP5 DUP1 SLOAD SWAP1 POP SWAP1 POP JUMPDEST DUP1 DUP3 LT ISZERO PUSH2 0x2E10 JUMPI PUSH1 0x0 PUSH2 0x2DDB DUP4 DUP4 PUSH2 0x2D08 JUMP JUMPDEST SWAP1 POP DUP5 PUSH2 0x2DE8 DUP8 DUP4 PUSH2 0x347C JUMP JUMPDEST PUSH1 0x0 ADD SLOAD GT ISZERO PUSH2 0x2DFA JUMPI DUP1 SWAP2 POP PUSH2 0x2E0A JUMP JUMPDEST PUSH1 0x1 DUP2 PUSH2 0x2E07 SWAP2 SWAP1 PUSH2 0x3D1B JUMP JUMPDEST SWAP3 POP JUMPDEST POP PUSH2 0x2DC7 JUMP JUMPDEST PUSH1 0x0 DUP3 GT DUP1 ISZERO PUSH2 0x2E38 JUMPI POP DUP4 PUSH2 0x2E32 DUP7 PUSH1 0x1 DUP6 PUSH2 0x2E2D SWAP2 SWAP1 PUSH2 0x3FCA JUMP JUMPDEST PUSH2 0x347C JUMP JUMPDEST PUSH1 0x0 ADD SLOAD EQ JUMPDEST ISZERO PUSH2 0x2E53 JUMPI PUSH1 0x1 DUP3 PUSH2 0x2E4A SWAP2 SWAP1 PUSH2 0x3FCA JUMP JUMPDEST SWAP3 POP POP POP PUSH2 0x2E59 JUMP JUMPDEST DUP2 SWAP3 POP POP POP JUMPDEST SWAP3 SWAP2 POP POP JUMP JUMPDEST PUSH2 0x2E67 PUSH2 0xA74 JUMP JUMPDEST ISZERO PUSH2 0x2EA7 JUMPI PUSH1 0x40 MLOAD PUSH32 0x8C379A000000000000000000000000000000000000000000000000000000000 DUP2 MSTORE PUSH1 0x4 ADD PUSH2 0x2E9E SWAP1 PUSH2 0x4C53 JUMP JUMPDEST PUSH1 0x40 MLOAD DUP1 SWAP2 SUB SWAP1 REVERT JUMPDEST JUMP JUMPDEST PUSH1 0x1 DUP2 PUSH1 0x0 ADD PUSH1 0x0 DUP3 DUP3 SLOAD ADD SWAP3 POP POP DUP2 SWAP1 SSTORE POP POP JUMP JUMPDEST PUSH1 0x0 DUP3 DUP3 PUSH1 0x40 MLOAD PUSH1 0x20 ADD PUSH2 0x2ED4 SWAP3 SWAP2 SWAP1 PUSH2 0x4CEB JUMP JUMPDEST PUSH1 0x40 MLOAD PUSH1 0x20 DUP2 DUP4 SUB SUB DUP2 MSTORE SWAP1 PUSH1 0x40 MSTORE DUP1 MLOAD SWAP1 PUSH1 0x20 ADD KECCAK256 SWAP1 POP SWAP3 SWAP2 POP POP JUMP JUMPDEST PUSH1 0x0 DUP1 PUSH32 0x7FFFFFFFFFFFFFFFFFFFFFFFFFFFFFFF5D576E7357A4501DDFE92F46681B20A0 DUP4 PUSH1 0x0 SHR GT ISZERO PUSH2 0x2F2D JUMPI PUSH1 0x0 PUSH1 0x3 SWAP2 POP SWAP2 POP PUSH2 0x2FCB JUMP JUMPDEST PUSH1 0x0 PUSH1 0x1 DUP8 DUP8 DUP8 DUP8 PUSH1 0x40 MLOAD PUSH1 0x0 DUP2 MSTORE PUSH1 0x20 ADD PUSH1 0x40 MSTORE PUSH1 0x40 MLOAD PUSH2 0x2F52 SWAP5 SWAP4 SWAP3 SWAP2 SWAP1 PUSH2 0x4D22 JUMP JUMPDEST PUSH1 0x20 PUSH1 0x40 MLOAD PUSH1 0x20 DUP2 SUB SWAP1 DUP1 DUP5 SUB SWAP1 DUP6 GAS STATICCALL ISZERO DUP1 ISZERO PUSH2 0x2F74 JUMPI RETURNDATASIZE PUSH1 0x0 DUP1 RETURNDATACOPY RETURNDATASIZE PUSH1 0x0 REVERT JUMPDEST POP POP POP PUSH1 0x20 PUSH1 0x40 MLOAD SUB MLOAD SWAP1 POP PUSH1 0x0 PUSH20 0xFFFFFFFFFFFFFFFFFFFFFFFFFFFFFFFFFFFFFFFF AND DUP2 PUSH20 0xFFFFFFFFFFFFFFFFFFFFFFFFFFFFFFFFFFFFFFFF AND SUB PUSH2 0x2FC2 JUMPI PUSH1 0x0 PUSH1 0x1 SWAP3 POP SWAP3 POP POP PUSH2 0x2FCB JUMP JUMPDEST DUP1 PUSH1 0x0 SWAP3 POP SWAP3 POP POP JUMPDEST SWAP5 POP SWAP5 SWAP3 POP POP POP JUMP JUMPDEST PUSH1 0x0 PUSH1 0x4 DUP2 GT ISZERO PUSH2 0x2FE8 JUMPI PUSH2 0x2FE7 PUSH2 0x4D67 JUMP JUMPDEST JUMPDEST DUP2 PUSH1 0x4 DUP2 GT ISZERO PUSH2 0x2FFB JUMPI PUSH2 0x2FFA PUSH2 0x4D67 JUMP JUMPDEST JUMPDEST SUB ISZERO PUSH2 0x3137 JUMPI PUSH1 0x1 PUSH1 0x4 DUP2 GT ISZERO PUSH2 0x3015 JUMPI PUSH2 0x3014 PUSH2 0x4D67 JUMP JUMPDEST JUMPDEST DUP2 PUSH1 0x4 DUP2 GT ISZERO PUSH2 0x3028 JUMPI PUSH2 0x3027 PUSH2 0x4D67 JUMP JUMPDEST JUMPDEST SUB PUSH2 0x3068 JUMPI PUSH1 0x40 MLOAD PUSH32 0x8C379A000000000000000000000000000000000000000000000000000000000 DUP2 MSTORE PUSH1 0x4 ADD PUSH2 0x305F SWAP1 PUSH2 0x4DE2 JUMP JUMPDEST PUSH1 0x40 MLOAD DUP1 SWAP2 SUB SWAP1 REVERT JUMPDEST PUSH1 0x2 PUSH1 0x4 DUP2 GT ISZERO PUSH2 0x307C JUMPI PUSH2 0x307B PUSH2 0x4D67 JUMP JUMPDEST JUMPDEST DUP2 PUSH1 0x4 DUP2 GT ISZERO PUSH2 0x308F JUMPI PUSH2 0x308E PUSH2 0x4D67 JUMP JUMPDEST JUMPDEST SUB PUSH2 0x30CF JUMPI PUSH1 0x40 MLOAD PUSH32 0x8C379A000000000000000000000000000000000000000000000000000000000 DUP2 MSTORE PUSH1 0x4 ADD PUSH2 0x30C6 SWAP1 PUSH2 0x4E4E JUMP JUMPDEST PUSH1 0x40 MLOAD DUP1 SWAP2 SUB SWAP1 REVERT JUMPDEST PUSH1 0x3 PUSH1 0x4 DUP2 GT ISZERO PUSH2 0x30E3 JUMPI PUSH2 0x30E2 PUSH2 0x4D67 JUMP JUMPDEST JUMPDEST DUP2 PUSH1 0x4 DUP2 GT ISZERO PUSH2 0x30F6 JUMPI PUSH2 0x30F5 PUSH2 0x4D67 JUMP JUMPDEST JUMPDEST SUB PUSH2 0x3136 JUMPI PUSH1 0x40 MLOAD PUSH32 0x8C379A000000000000000000000000000000000000000000000000000000000 DUP2 MSTORE PUSH1 0x4 ADD PUSH2 0x312D SWAP1 PUSH2 0x4EE0 JUMP JUMPDEST PUSH1 0x40 MLOAD DUP1 SWAP2 SUB SWAP1 REVERT JUMPDEST JUMPDEST POP JUMP JUMPDEST PUSH1 0x0 PUSH2 0x3144 PUSH2 0x2D95 JUMP JUMPDEST SWAP1 POP DUP1 PUSH2 0x3153 DUP5 PUSH1 0x0 ADD PUSH2 0x349E JUMP JUMPDEST LT ISZERO PUSH2 0x31B0 JUMPI DUP3 PUSH1 0x0 ADD DUP2 SWAP1 DUP1 PUSH1 0x1 DUP2 SLOAD ADD DUP1 DUP3 SSTORE DUP1 SWAP2 POP POP PUSH1 0x1 SWAP1 SUB SWAP1 PUSH1 0x0 MSTORE PUSH1 0x20 PUSH1 0x0 KECCAK256 ADD PUSH1 0x0 SWAP1 SWAP2 SWAP1 SWAP2 SWAP1 SWAP2 POP SSTORE DUP3 PUSH1 0x1 ADD DUP3 SWAP1 DUP1 PUSH1 0x1 DUP2 SLOAD ADD DUP1 DUP3 SSTORE DUP1 SWAP2 POP POP PUSH1 0x1 SWAP1 SUB SWAP1 PUSH1 0x0 MSTORE PUSH1 0x20 PUSH1 0x0 KECCAK256 ADD PUSH1 0x0 SWAP1 SWAP2 SWAP1 SWAP2 SWAP1 SWAP2 POP SSTORE JUMPDEST POP POP POP JUMP JUMPDEST PUSH1 0x0 DUP1 PUSH1 0x0 SWAP1 POP PUSH1 0x0 PUSH1 0x80 DUP5 SWAP1 SHR GT ISZERO PUSH2 0x31D7 JUMPI PUSH1 0x80 DUP4 SWAP1 SHR SWAP3 POP PUSH1 0x80 DUP2 ADD SWAP1 POP JUMPDEST PUSH1 0x0 PUSH1 0x40 DUP5 SWAP1 SHR GT ISZERO PUSH2 0x31F2 JUMPI PUSH1 0x40 DUP4 SWAP1 SHR SWAP3 POP PUSH1 0x40 DUP2 ADD SWAP1 POP JUMPDEST PUSH1 0x0 PUSH1 0x20 DUP5 SWAP1 SHR GT ISZERO PUSH2 0x320D JUMPI PUSH1 0x20 DUP4 SWAP1 SHR SWAP3 POP PUSH1 0x20 DUP2 ADD SWAP1 POP JUMPDEST PUSH1 0x0 PUSH1 0x10 DUP5 SWAP1 SHR GT ISZERO PUSH2 0x3228 JUMPI PUSH1 0x10 DUP4 SWAP1 SHR SWAP3 POP PUSH1 0x10 DUP2 ADD SWAP1 POP JUMPDEST PUSH1 0x0 PUSH1 0x8 DUP5 SWAP1 SHR GT ISZERO PUSH2 0x3243 JUMPI PUSH1 0x8 DUP4 SWAP1 SHR SWAP3 POP PUSH1 0x8 DUP2 ADD SWAP1 POP JUMPDEST PUSH1 0x0 PUSH1 0x4 DUP5 SWAP1 SHR GT ISZERO PUSH2 0x325E JUMPI PUSH1 0x4 DUP4 SWAP1 SHR SWAP3 POP PUSH1 0x4 DUP2 ADD SWAP1 POP JUMPDEST PUSH1 0x0 PUSH1 0x2 DUP5 SWAP1 SHR GT ISZERO PUSH2 0x3279 JUMPI PUSH1 0x2 DUP4 SWAP1 SHR SWAP3 POP PUSH1 0x2 DUP2 ADD SWAP1 POP JUMPDEST PUSH1 0x0 PUSH1 0x1 DUP5 SWAP1 SHR GT ISZERO PUSH2 0x328D JUMPI PUSH1 0x1 DUP2 ADD SWAP1 POP JUMPDEST DUP1 SWAP2 POP POP SWAP2 SWAP1 POP JUMP JUMPDEST PUSH1 0x0 DUP2 DUP4 LT PUSH2 0x32A5 JUMPI DUP2 PUSH2 0x32A7 JUMP JUMPDEST DUP3 JUMPDEST SWAP1 POP SWAP3 SWAP2 POP POP JUMP JUMPDEST PUSH1 0x0 PUSH20 0xFFFFFFFFFFFFFFFFFFFFFFFFFFFFFFFFFFFFFFFF AND DUP3 PUSH20 0xFFFFFFFFFFFFFFFFFFFFFFFFFFFFFFFFFFFFFFFF AND SUB PUSH2 0x331E JUMPI PUSH1 0x40 MLOAD PUSH32 0x8C379A000000000000000000000000000000000000000000000000000000000 DUP2 MSTORE PUSH1 0x4 ADD PUSH2 0x3315 SWAP1 PUSH2 0x4F72 JUMP JUMPDEST PUSH1 0x40 MLOAD DUP1 SWAP2 SUB SWAP1 REVERT JUMPDEST PUSH2 0x332A DUP3 PUSH1 0x0 DUP4 PUSH2 0x2938 JUMP JUMPDEST PUSH1 0x0 DUP1 PUSH1 0x0 DUP5 PUSH20 0xFFFFFFFFFFFFFFFFFFFFFFFFFFFFFFFFFFFFFFFF AND PUSH20 0xFFFFFFFFFFFFFFFFFFFFFFFFFFFFFFFFFFFFFFFF AND DUP2 MSTORE PUSH1 0x20 ADD SWAP1 DUP2 MSTORE PUSH1 0x20 ADD PUSH1 0x0 KECCAK256 SLOAD SWAP1 POP DUP2 DUP2 LT ISZERO PUSH2 0x33B0 JUMPI PUSH1 0x40 MLOAD PUSH32 0x8C379A000000000000000000000000000000000000000000000000000000000 DUP2 MSTORE PUSH1 0x4 ADD PUSH2 0x33A7 SWAP1 PUSH2 0x5004 JUMP JUMPDEST PUSH1 0x40 MLOAD DUP1 SWAP2 SUB SWAP1 REVERT JUMPDEST DUP2 DUP2 SUB PUSH1 0x0 DUP1 DUP6 PUSH20 0xFFFFFFFFFFFFFFFFFFFFFFFFFFFFFFFFFFFFFFFF AND PUSH20 0xFFFFFFFFFFFFFFFFFFFFFFFFFFFFFFFFFFFFFFFF AND DUP2 MSTORE PUSH1 0x20 ADD SWAP1 DUP2 MSTORE PUSH1 0x20 ADD PUSH1 0x0 KECCAK256 DUP2 SWAP1 SSTORE POP DUP2 PUSH1 0x2 PUSH1 0x0 DUP3 DUP3 SLOAD SUB SWAP3 POP POP DUP2 SWAP1 SSTORE POP PUSH1 0x0 PUSH20 0xFFFFFFFFFFFFFFFFFFFFFFFFFFFFFFFFFFFFFFFF AND DUP4 PUSH20 0xFFFFFFFFFFFFFFFFFFFFFFFFFFFFFFFFFFFFFFFF AND PUSH32 0xDDF252AD1BE2C89B69C2B068FC378DAA952BA7F163C4A11628F55A4DF523B3EF DUP5 PUSH1 0x40 MLOAD PUSH2 0x3463 SWAP2 SWAP1 PUSH2 0x3707 JUMP JUMPDEST PUSH1 0x40 MLOAD DUP1 SWAP2 SUB SWAP1 LOG3 PUSH2 0x3477 DUP4 PUSH1 0x0 DUP5 PUSH2 0x2950 JUMP JUMPDEST POP POP POP JUMP JUMPDEST PUSH1 0x0 DUP1 DUP4 PUSH1 0x0 MSTORE DUP3 PUSH1 0x20 PUSH1 0x0 KECCAK256 ADD SWAP1 POP PUSH2 0x3495 DUP2 PUSH2 0x34EA JUMP JUMPDEST SWAP2 POP POP SWAP3 SWAP2 POP POP JUMP JUMPDEST PUSH1 0x0 DUP1 DUP3 DUP1 SLOAD SWAP1 POP SUB PUSH2 0x34B4 JUMPI PUSH1 0x0 SWAP1 POP PUSH2 0x34E5 JUMP JUMPDEST DUP2 PUSH1 0x1 DUP4 DUP1 SLOAD SWAP1 POP PUSH2 0x34C6 SWAP2 SWAP1 PUSH2 0x3FCA JUMP JUMPDEST DUP2 SLOAD DUP2 LT PUSH2 0x34D7 JUMPI PUSH2 0x34D6 PUSH2 0x3FFE JUMP JUMPDEST JUMPDEST SWAP1 PUSH1 0x0 MSTORE PUSH1 0x20 PUSH1 0x0 KECCAK256 ADD SLOAD SWAP1 POP JUMPDEST SWAP2 SWAP1 POP JUMP JUMPDEST PUSH1 0x0 DUP2 SWAP1 POP SWAP2 SWAP1 POP JUMP JUMPDEST PUSH1 0x40 MLOAD DUP1 PUSH1 0x40 ADD PUSH1 0x40 MSTORE DUP1 PUSH1 0x0 PUSH4 0xFFFFFFFF AND DUP2 MSTORE PUSH1 0x20 ADD PUSH1 0x0 PUSH28 0xFFFFFFFFFFFFFFFFFFFFFFFFFFFFFFFFFFFFFFFFFFFFFFFFFFFFFFFF AND DUP2 MSTORE POP SWAP1 JUMP JUMPDEST PUSH1 0x0 DUP2 MLOAD SWAP1 POP SWAP2 SWAP1 POP JUMP JUMPDEST PUSH1 0x0 DUP3 DUP3 MSTORE PUSH1 0x20 DUP3 ADD SWAP1 POP SWAP3 SWAP2 POP POP JUMP JUMPDEST PUSH1 0x0 JUMPDEST DUP4 DUP2 LT ISZERO PUSH2 0x356C JUMPI DUP1 DUP3 ADD MLOAD DUP2 DUP5 ADD MSTORE PUSH1 0x20 DUP2 ADD SWAP1 POP PUSH2 0x3551 JUMP JUMPDEST PUSH1 0x0 DUP5 DUP5 ADD MSTORE POP POP POP POP JUMP JUMPDEST PUSH1 0x0 PUSH1 0x1F NOT PUSH1 0x1F DUP4 ADD AND SWAP1 POP SWAP2 SWAP1 POP JUMP JUMPDEST PUSH1 0x0 PUSH2 0x3594 DUP3 PUSH2 0x3532 JUMP JUMPDEST PUSH2 0x359E DUP2 DUP6 PUSH2 0x353D JUMP JUMPDEST SWAP4 POP PUSH2 0x35AE DUP2 DUP6 PUSH1 0x20 DUP7 ADD PUSH2 0x354E JUMP JUMPDEST PUSH2 0x35B7 DUP2 PUSH2 0x3578 JUMP JUMPDEST DUP5 ADD SWAP2 POP POP SWAP3 SWAP2 POP POP JUMP JUMPDEST PUSH1 0x0 PUSH1 0x20 DUP3 ADD SWAP1 POP DUP2 DUP2 SUB PUSH1 0x0 DUP4 ADD MSTORE PUSH2 0x35DC DUP2 DUP5 PUSH2 0x3589 JUMP JUMPDEST SWAP1 POP SWAP3 SWAP2 POP POP JUMP JUMPDEST PUSH1 0x0 DUP1 REVERT JUMPDEST PUSH1 0x0 DUP1 REVERT JUMPDEST PUSH1 0x0 PUSH20 0xFFFFFFFFFFFFFFFFFFFFFFFFFFFFFFFFFFFFFFFF DUP3 AND SWAP1 POP SWAP2 SWAP1 POP JUMP JUMPDEST PUSH1 0x0 PUSH2 0x3619 DUP3 PUSH2 0x35EE JUMP JUMPDEST SWAP1 POP SWAP2 SWAP1 POP JUMP JUMPDEST PUSH2 0x3629 DUP2 PUSH2 0x360E JUMP JUMPDEST DUP2 EQ PUSH2 0x3634 JUMPI PUSH1 0x0 DUP1 REVERT JUMPDEST POP JUMP JUMPDEST PUSH1 0x0 DUP2 CALLDATALOAD SWAP1 POP PUSH2 0x3646 DUP2 PUSH2 0x3620 JUMP JUMPDEST SWAP3 SWAP2 POP POP JUMP JUMPDEST PUSH1 0x0 DUP2 SWAP1 POP SWAP2 SWAP1 POP JUMP JUMPDEST PUSH2 0x365F DUP2 PUSH2 0x364C JUMP JUMPDEST DUP2 EQ PUSH2 0x366A JUMPI PUSH1 0x0 DUP1 REVERT JUMPDEST POP JUMP JUMPDEST PUSH1 0x0 DUP2 CALLDATALOAD SWAP1 POP PUSH2 0x367C DUP2 PUSH2 0x3656 JUMP JUMPDEST SWAP3 SWAP2 POP POP JUMP JUMPDEST PUSH1 0x0 DUP1 PUSH1 0x40 DUP4 DUP6 SUB SLT ISZERO PUSH2 0x3699 JUMPI PUSH2 0x3698 PUSH2 0x35E4 JUMP JUMPDEST JUMPDEST PUSH1 0x0 PUSH2 0x36A7 DUP6 DUP3 DUP7 ADD PUSH2 0x3637 JUMP JUMPDEST SWAP3 POP POP PUSH1 0x20 PUSH2 0x36B8 DUP6 DUP3 DUP7 ADD PUSH2 0x366D JUMP JUMPDEST SWAP2 POP POP SWAP3 POP SWAP3 SWAP1 POP JUMP JUMPDEST PUSH1 0x0 DUP2 ISZERO ISZERO SWAP1 POP SWAP2 SWAP1 POP JUMP JUMPDEST PUSH2 0x36D7 DUP2 PUSH2 0x36C2 JUMP JUMPDEST DUP3 MSTORE POP POP JUMP JUMPDEST PUSH1 0x0 PUSH1 0x20 DUP3 ADD SWAP1 POP PUSH2 0x36F2 PUSH1 0x0 DUP4 ADD DUP5 PUSH2 0x36CE JUMP JUMPDEST SWAP3 SWAP2 POP POP JUMP JUMPDEST PUSH2 0x3701 DUP2 PUSH2 0x364C JUMP JUMPDEST DUP3 MSTORE POP POP JUMP JUMPDEST PUSH1 0x0 PUSH1 0x20 DUP3 ADD SWAP1 POP PUSH2 0x371C PUSH1 0x0 DUP4 ADD DUP5 PUSH2 0x36F8 JUMP JUMPDEST SWAP3 SWAP2 POP POP JUMP JUMPDEST PUSH1 0x0 DUP1 PUSH1 0x0 PUSH1 0x60 DUP5 DUP7 SUB SLT ISZERO PUSH2 0x373B JUMPI PUSH2 0x373A PUSH2 0x35E4 JUMP JUMPDEST JUMPDEST PUSH1 0x0 PUSH2 0x3749 DUP7 DUP3 DUP8 ADD PUSH2 0x3637 JUMP JUMPDEST SWAP4 POP POP PUSH1 0x20 PUSH2 0x375A DUP7 DUP3 DUP8 ADD PUSH2 0x3637 JUMP JUMPDEST SWAP3 POP POP PUSH1 0x40 PUSH2 0x376B DUP7 DUP3 DUP8 ADD PUSH2 0x366D JUMP JUMPDEST SWAP2 POP POP SWAP3 POP SWAP3 POP SWAP3 JUMP JUMPDEST PUSH1 0x0 PUSH1 0xFF DUP3 AND SWAP1 POP SWAP2 SWAP1 POP JUMP JUMPDEST PUSH2 0x378B DUP2 PUSH2 0x3775 JUMP JUMPDEST DUP3 MSTORE POP POP JUMP JUMPDEST PUSH1 0x0 PUSH1 0x20 DUP3 ADD SWAP1 POP PUSH2 0x37A6 PUSH1 0x0 DUP4 ADD DUP5 PUSH2 0x3782 JUMP JUMPDEST SWAP3 SWAP2 POP POP JUMP JUMPDEST PUSH1 0x0 DUP2 SWAP1 POP SWAP2 SWAP1 POP JUMP JUMPDEST PUSH2 0x37BF DUP2 PUSH2 0x37AC JUMP JUMPDEST DUP3 MSTORE POP POP JUMP JUMPDEST PUSH1 0x0 PUSH1 0x20 DUP3 ADD SWAP1 POP PUSH2 0x37DA PUSH1 0x0 DUP4 ADD DUP5 PUSH2 0x37B6 JUMP JUMPDEST SWAP3 SWAP2 POP POP JUMP JUMPDEST PUSH1 0x0 PUSH1 0x20 DUP3 DUP5 SUB SLT ISZERO PUSH2 0x37F6 JUMPI PUSH2 0x37F5 PUSH2 0x35E4 JUMP JUMPDEST JUMPDEST PUSH1 0x0 PUSH2 0x3804 DUP5 DUP3 DUP6 ADD PUSH2 0x366D JUMP JUMPDEST SWAP2 POP POP SWAP3 SWAP2 POP POP JUMP JUMPDEST PUSH1 0x0 PUSH1 0x20 DUP3 DUP5 SUB SLT ISZERO PUSH2 0x3823 JUMPI PUSH2 0x3822 PUSH2 0x35E4 JUMP JUMPDEST JUMPDEST PUSH1 0x0 PUSH2 0x3831 DUP5 DUP3 DUP6 ADD PUSH2 0x3637 JUMP JUMPDEST SWAP2 POP POP SWAP3 SWAP2 POP POP JUMP JUMPDEST PUSH2 0x3843 DUP2 PUSH2 0x360E JUMP JUMPDEST DUP3 MSTORE POP POP JUMP JUMPDEST PUSH1 0x0 PUSH1 0x20 DUP3 ADD SWAP1 POP PUSH2 0x385E PUSH1 0x0 DUP4 ADD DUP5 PUSH2 0x383A JUMP JUMPDEST SWAP3 SWAP2 POP POP JUMP JUMPDEST PUSH1 0x0 PUSH2 0x386F DUP3 PUSH2 0x360E JUMP JUMPDEST SWAP1 POP SWAP2 SWAP1 POP JUMP JUMPDEST PUSH2 0x387F DUP2 PUSH2 0x3864 JUMP JUMPDEST DUP2 EQ PUSH2 0x388A JUMPI PUSH1 0x0 DUP1 REVERT JUMPDEST POP JUMP JUMPDEST PUSH1 0x0 DUP2 CALLDATALOAD SWAP1 POP PUSH2 0x389C DUP2 PUSH2 0x3876 JUMP JUMPDEST SWAP3 SWAP2 POP POP JUMP JUMPDEST PUSH1 0x0 DUP1 REVERT JUMPDEST PUSH1 0x0 DUP1 REVERT JUMPDEST PUSH1 0x0 DUP1 REVERT JUMPDEST PUSH1 0x0 DUP1 DUP4 PUSH1 0x1F DUP5 ADD SLT PUSH2 0x38C7 JUMPI PUSH2 0x38C6 PUSH2 0x38A2 JUMP JUMPDEST JUMPDEST DUP3 CALLDATALOAD SWAP1 POP PUSH8 0xFFFFFFFFFFFFFFFF DUP2 GT ISZERO PUSH2 0x38E4 JUMPI PUSH2 0x38E3 PUSH2 0x38A7 JUMP JUMPDEST JUMPDEST PUSH1 0x20 DUP4 ADD SWAP2 POP DUP4 PUSH1 0x1 DUP3 MUL DUP4 ADD GT ISZERO PUSH2 0x3900 JUMPI PUSH2 0x38FF PUSH2 0x38AC JUMP JUMPDEST JUMPDEST SWAP3 POP SWAP3 SWAP1 POP JUMP JUMPDEST PUSH1 0x0 DUP1 PUSH1 0x0 DUP1 PUSH1 0x0 PUSH1 0x80 DUP7 DUP9 SUB SLT ISZERO PUSH2 0x3923 JUMPI PUSH2 0x3922 PUSH2 0x35E4 JUMP JUMPDEST JUMPDEST PUSH1 0x0 PUSH2 0x3931 DUP9 DUP3 DUP10 ADD PUSH2 0x388D JUMP JUMPDEST SWAP6 POP POP PUSH1 0x20 PUSH2 0x3942 DUP9 DUP3 DUP10 ADD PUSH2 0x3637 JUMP JUMPDEST SWAP5 POP POP PUSH1 0x40 PUSH2 0x3953 DUP9 DUP3 DUP10 ADD PUSH2 0x366D JUMP JUMPDEST SWAP4 POP POP PUSH1 0x60 DUP7 ADD CALLDATALOAD PUSH8 0xFFFFFFFFFFFFFFFF DUP2 GT ISZERO PUSH2 0x3974 JUMPI PUSH2 0x3973 PUSH2 0x35E9 JUMP JUMPDEST JUMPDEST PUSH2 0x3980 DUP9 DUP3 DUP10 ADD PUSH2 0x38B1 JUMP JUMPDEST SWAP3 POP SWAP3 POP POP SWAP3 SWAP6 POP SWAP3 SWAP6 SWAP1 SWAP4 POP JUMP JUMPDEST PUSH1 0x0 PUSH4 0xFFFFFFFF DUP3 AND SWAP1 POP SWAP2 SWAP1 POP JUMP JUMPDEST PUSH2 0x39A8 DUP2 PUSH2 0x398F JUMP JUMPDEST DUP3 MSTORE POP POP JUMP JUMPDEST PUSH1 0x0 PUSH1 0x20 DUP3 ADD SWAP1 POP PUSH2 0x39C3 PUSH1 0x0 DUP4 ADD DUP5 PUSH2 0x399F JUMP JUMPDEST SWAP3 SWAP2 POP POP JUMP JUMPDEST PUSH2 0x39D2 DUP2 PUSH2 0x3775 JUMP JUMPDEST DUP2 EQ PUSH2 0x39DD JUMPI PUSH1 0x0 DUP1 REVERT JUMPDEST POP JUMP JUMPDEST PUSH1 0x0 DUP2 CALLDATALOAD SWAP1 POP PUSH2 0x39EF DUP2 PUSH2 0x39C9 JUMP JUMPDEST SWAP3 SWAP2 POP POP JUMP JUMPDEST PUSH2 0x39FE DUP2 PUSH2 0x37AC JUMP JUMPDEST DUP2 EQ PUSH2 0x3A09 JUMPI PUSH1 0x0 DUP1 REVERT JUMPDEST POP JUMP JUMPDEST PUSH1 0x0 DUP2 CALLDATALOAD SWAP1 POP PUSH2 0x3A1B DUP2 PUSH2 0x39F5 JUMP JUMPDEST SWAP3 SWAP2 POP POP JUMP JUMPDEST PUSH1 0x0 DUP1 PUSH1 0x0 DUP1 PUSH1 0x0 DUP1 PUSH1 0xC0 DUP8 DUP10 SUB SLT ISZERO PUSH2 0x3A3E JUMPI PUSH2 0x3A3D PUSH2 0x35E4 JUMP JUMPDEST JUMPDEST PUSH1 0x0 PUSH2 0x3A4C DUP10 DUP3 DUP11 ADD PUSH2 0x3637 JUMP JUMPDEST SWAP7 POP POP PUSH1 0x20 PUSH2 0x3A5D DUP10 DUP3 DUP11 ADD PUSH2 0x366D JUMP JUMPDEST SWAP6 POP POP PUSH1 0x40 PUSH2 0x3A6E DUP10 DUP3 DUP11 ADD PUSH2 0x366D JUMP JUMPDEST SWAP5 POP POP PUSH1 0x60 PUSH2 0x3A7F DUP10 DUP3 DUP11 ADD PUSH2 0x39E0 JUMP JUMPDEST SWAP4 POP POP PUSH1 0x80 PUSH2 0x3A90 DUP10 DUP3 DUP11 ADD PUSH2 0x3A0C JUMP JUMPDEST SWAP3 POP POP PUSH1 0xA0 PUSH2 0x3AA1 DUP10 DUP3 DUP11 ADD PUSH2 0x3A0C JUMP JUMPDEST SWAP2 POP POP SWAP3 SWAP6 POP SWAP3 SWAP6 POP SWAP3 SWAP6 JUMP JUMPDEST PUSH1 0x0 DUP1 PUSH1 0x0 DUP1 PUSH1 0x0 DUP1 PUSH1 0x0 PUSH1 0xE0 DUP9 DUP11 SUB SLT ISZERO PUSH2 0x3ACD JUMPI PUSH2 0x3ACC PUSH2 0x35E4 JUMP JUMPDEST JUMPDEST PUSH1 0x0 PUSH2 0x3ADB DUP11 DUP3 DUP12 ADD PUSH2 0x3637 JUMP JUMPDEST SWAP8 POP POP PUSH1 0x20 PUSH2 0x3AEC DUP11 DUP3 DUP12 ADD PUSH2 0x3637 JUMP JUMPDEST SWAP7 POP POP PUSH1 0x40 PUSH2 0x3AFD DUP11 DUP3 DUP12 ADD PUSH2 0x366D JUMP JUMPDEST SWAP6 POP POP PUSH1 0x60 PUSH2 0x3B0E DUP11 DUP3 DUP12 ADD PUSH2 0x366D JUMP JUMPDEST SWAP5 POP POP PUSH1 0x80 PUSH2 0x3B1F DUP11 DUP3 DUP12 ADD PUSH2 0x39E0 JUMP JUMPDEST SWAP4 POP POP PUSH1 0xA0 PUSH2 0x3B30 DUP11 DUP3 DUP12 ADD PUSH2 0x3A0C JUMP JUMPDEST SWAP3 POP POP PUSH1 0xC0 PUSH2 0x3B41 DUP11 DUP3 DUP12 ADD PUSH2 0x3A0C JUMP JUMPDEST SWAP2 POP POP SWAP3 SWAP6 SWAP9 SWAP2 SWAP5 SWAP8 POP SWAP3 SWAP6 POP JUMP JUMPDEST PUSH1 0x0 DUP1 PUSH1 0x40 DUP4 DUP6 SUB SLT ISZERO PUSH2 0x3B67 JUMPI PUSH2 0x3B66 PUSH2 0x35E4 JUMP JUMPDEST JUMPDEST PUSH1 0x0 PUSH2 0x3B75 DUP6 DUP3 DUP7 ADD PUSH2 0x3637 JUMP JUMPDEST SWAP3 POP POP PUSH1 0x20 PUSH2 0x3B86 DUP6 DUP3 DUP7 ADD PUSH2 0x3637 JUMP JUMPDEST SWAP2 POP POP SWAP3 POP SWAP3 SWAP1 POP JUMP JUMPDEST PUSH2 0x3B99 DUP2 PUSH2 0x398F JUMP JUMPDEST DUP2 EQ PUSH2 0x3BA4 JUMPI PUSH1 0x0 DUP1 REVERT JUMPDEST POP JUMP JUMPDEST PUSH1 0x0 DUP2 CALLDATALOAD SWAP1 POP PUSH2 0x3BB6 DUP2 PUSH2 0x3B90 JUMP JUMPDEST SWAP3 SWAP2 POP POP JUMP JUMPDEST PUSH1 0x0 DUP1 PUSH1 0x40 DUP4 DUP6 SUB SLT ISZERO PUSH2 0x3BD3 JUMPI PUSH2 0x3BD2 PUSH2 0x35E4 JUMP JUMPDEST JUMPDEST PUSH1 0x0 PUSH2 0x3BE1 DUP6 DUP3 DUP7 ADD PUSH2 0x3637 JUMP JUMPDEST SWAP3 POP POP PUSH1 0x20 PUSH2 0x3BF2 DUP6 DUP3 DUP7 ADD PUSH2 0x3BA7 JUMP JUMPDEST SWAP2 POP POP SWAP3 POP SWAP3 SWAP1 POP JUMP JUMPDEST PUSH2 0x3C05 DUP2 PUSH2 0x398F JUMP JUMPDEST DUP3 MSTORE POP POP JUMP JUMPDEST PUSH1 0x0 PUSH28 0xFFFFFFFFFFFFFFFFFFFFFFFFFFFFFFFFFFFFFFFFFFFFFFFFFFFFFFFF DUP3 AND SWAP1 POP SWAP2 SWAP1 POP JUMP JUMPDEST PUSH2 0x3C3C DUP2 PUSH2 0x3C0B JUMP JUMPDEST DUP3 MSTORE POP POP JUMP JUMPDEST PUSH1 0x40 DUP3 ADD PUSH1 0x0 DUP3 ADD MLOAD PUSH2 0x3C58 PUSH1 0x0 DUP6 ADD DUP3 PUSH2 0x3BFC JUMP JUMPDEST POP PUSH1 0x20 DUP3 ADD MLOAD PUSH2 0x3C6B PUSH1 0x20 DUP6 ADD DUP3 PUSH2 0x3C33 JUMP JUMPDEST POP POP POP POP JUMP JUMPDEST PUSH1 0x0 PUSH1 0x40 DUP3 ADD SWAP1 POP PUSH2 0x3C86 PUSH1 0x0 DUP4 ADD DUP5 PUSH2 0x3C42 JUMP JUMPDEST SWAP3 SWAP2 POP POP JUMP JUMPDEST PUSH32 0x4E487B7100000000000000000000000000000000000000000000000000000000 PUSH1 0x0 MSTORE PUSH1 0x22 PUSH1 0x4 MSTORE PUSH1 0x24 PUSH1 0x0 REVERT JUMPDEST PUSH1 0x0 PUSH1 0x2 DUP3 DIV SWAP1 POP PUSH1 0x1 DUP3 AND DUP1 PUSH2 0x3CD3 JUMPI PUSH1 0x7F DUP3 AND SWAP2 POP JUMPDEST PUSH1 0x20 DUP3 LT DUP2 SUB PUSH2 0x3CE6 JUMPI PUSH2 0x3CE5 PUSH2 0x3C8C JUMP JUMPDEST JUMPDEST POP SWAP2 SWAP1 POP JUMP JUMPDEST PUSH32 0x4E487B7100000000000000000000000000000000000000000000000000000000 PUSH1 0x0 MSTORE PUSH1 0x11 PUSH1 0x4 MSTORE PUSH1 0x24 PUSH1 0x0 REVERT JUMPDEST PUSH1 0x0 PUSH2 0x3D26 DUP3 PUSH2 0x364C JUMP JUMPDEST SWAP2 POP PUSH2 0x3D31 DUP4 PUSH2 0x364C JUMP JUMPDEST SWAP3 POP DUP3 DUP3 ADD SWAP1 POP DUP1 DUP3 GT ISZERO PUSH2 0x3D49 JUMPI PUSH2 0x3D48 PUSH2 0x3CEC JUMP JUMPDEST JUMPDEST SWAP3 SWAP2 POP POP JUMP JUMPDEST PUSH32 0x4552433230566F7465733A20626C6F636B206E6F7420796574206D696E656400 PUSH1 0x0 DUP3 ADD MSTORE POP JUMP JUMPDEST PUSH1 0x0 PUSH2 0x3D85 PUSH1 0x1F DUP4 PUSH2 0x353D JUMP JUMPDEST SWAP2 POP PUSH2 0x3D90 DUP3 PUSH2 0x3D4F JUMP JUMPDEST PUSH1 0x20 DUP3 ADD SWAP1 POP SWAP2 SWAP1 POP JUMP JUMPDEST PUSH1 0x0 PUSH1 0x20 DUP3 ADD SWAP1 POP DUP2 DUP2 SUB PUSH1 0x0 DUP4 ADD MSTORE PUSH2 0x3DB4 DUP2 PUSH2 0x3D78 JUMP JUMPDEST SWAP1 POP SWAP2 SWAP1 POP JUMP JUMPDEST PUSH32 0x4552433230466C6173684D696E743A20616D6F756E742065786365656473206D PUSH1 0x0 DUP3 ADD MSTORE PUSH32 0x6178466C6173684C6F616E000000000000000000000000000000000000000000 PUSH1 0x20 DUP3 ADD MSTORE POP JUMP JUMPDEST PUSH1 0x0 PUSH2 0x3E17 PUSH1 0x2B DUP4 PUSH2 0x353D JUMP JUMPDEST SWAP2 POP PUSH2 0x3E22 DUP3 PUSH2 0x3DBB JUMP JUMPDEST PUSH1 0x40 DUP3 ADD SWAP1 POP SWAP2 SWAP1 POP JUMP JUMPDEST PUSH1 0x0 PUSH1 0x20 DUP3 ADD SWAP1 POP DUP2 DUP2 SUB PUSH1 0x0 DUP4 ADD MSTORE PUSH2 0x3E46 DUP2 PUSH2 0x3E0A JUMP JUMPDEST SWAP1 POP SWAP2 SWAP1 POP JUMP JUMPDEST PUSH1 0x0 DUP3 DUP3 MSTORE PUSH1 0x20 DUP3 ADD SWAP1 POP SWAP3 SWAP2 POP POP JUMP JUMPDEST DUP3 DUP2 DUP4 CALLDATACOPY PUSH1 0x0 DUP4 DUP4 ADD MSTORE POP POP POP JUMP JUMPDEST PUSH1 0x0 PUSH2 0x3E79 DUP4 DUP6 PUSH2 0x3E4D JUMP JUMPDEST SWAP4 POP PUSH2 0x3E86 DUP4 DUP6 DUP5 PUSH2 0x3E5E JUMP JUMPDEST PUSH2 0x3E8F DUP4 PUSH2 0x3578 JUMP JUMPDEST DUP5 ADD SWAP1 POP SWAP4 SWAP3 POP POP POP JUMP JUMPDEST PUSH1 0x0 PUSH1 0xA0 DUP3 ADD SWAP1 POP PUSH2 0x3EAF PUSH1 0x0 DUP4 ADD DUP10 PUSH2 0x383A JUMP JUMPDEST PUSH2 0x3EBC PUSH1 0x20 DUP4 ADD DUP9 PUSH2 0x383A JUMP JUMPDEST PUSH2 0x3EC9 PUSH1 0x40 DUP4 ADD DUP8 PUSH2 0x36F8 JUMP JUMPDEST PUSH2 0x3ED6 PUSH1 0x60 DUP4 ADD DUP7 PUSH2 0x36F8 JUMP JUMPDEST DUP2 DUP2 SUB PUSH1 0x80 DUP4 ADD MSTORE PUSH2 0x3EE9 DUP2 DUP5 DUP7 PUSH2 0x3E6D JUMP JUMPDEST SWAP1 POP SWAP8 SWAP7 POP POP POP POP POP POP POP JUMP JUMPDEST PUSH1 0x0 DUP2 MLOAD SWAP1 POP PUSH2 0x3F05 DUP2 PUSH2 0x39F5 JUMP JUMPDEST SWAP3 SWAP2 POP POP JUMP JUMPDEST PUSH1 0x0 PUSH1 0x20 DUP3 DUP5 SUB SLT ISZERO PUSH2 0x3F21 JUMPI PUSH2 0x3F20 PUSH2 0x35E4 JUMP JUMPDEST JUMPDEST PUSH1 0x0 PUSH2 0x3F2F DUP5 DUP3 DUP6 ADD PUSH2 0x3EF6 JUMP JUMPDEST SWAP2 POP POP SWAP3 SWAP2 POP POP JUMP JUMPDEST PUSH32 0x4552433230466C6173684D696E743A20696E76616C69642072657475726E2076 PUSH1 0x0 DUP3 ADD MSTORE PUSH32 0x616C756500000000000000000000000000000000000000000000000000000000 PUSH1 0x20 DUP3 ADD MSTORE POP JUMP JUMPDEST PUSH1 0x0 PUSH2 0x3F94 PUSH1 0x24 DUP4 PUSH2 0x353D JUMP JUMPDEST SWAP2 POP PUSH2 0x3F9F DUP3 PUSH2 0x3F38 JUMP JUMPDEST PUSH1 0x40 DUP3 ADD SWAP1 POP SWAP2 SWAP1 POP JUMP JUMPDEST PUSH1 0x0 PUSH1 0x20 DUP3 ADD SWAP1 POP DUP2 DUP2 SUB PUSH1 0x0 DUP4 ADD MSTORE PUSH2 0x3FC3 DUP2 PUSH2 0x3F87 JUMP JUMPDEST SWAP1 POP SWAP2 SWAP1 POP JUMP JUMPDEST PUSH1 0x0 PUSH2 0x3FD5 DUP3 PUSH2 0x364C JUMP JUMPDEST SWAP2 POP PUSH2 0x3FE0 DUP4 PUSH2 0x364C JUMP JUMPDEST SWAP3 POP DUP3 DUP3 SUB SWAP1 POP DUP2 DUP2 GT ISZERO PUSH2 0x3FF8 JUMPI PUSH2 0x3FF7 PUSH2 0x3CEC JUMP JUMPDEST JUMPDEST SWAP3 SWAP2 POP POP JUMP JUMPDEST PUSH32 0x4E487B7100000000000000000000000000000000000000000000000000000000 PUSH1 0x0 MSTORE PUSH1 0x32 PUSH1 0x4 MSTORE PUSH1 0x24 PUSH1 0x0 REVERT JUMPDEST PUSH32 0x45524332303A2064656372656173656420616C6C6F77616E63652062656C6F77 PUSH1 0x0 DUP3 ADD MSTORE PUSH32 0x207A65726F000000000000000000000000000000000000000000000000000000 PUSH1 0x20 DUP3 ADD MSTORE POP JUMP JUMPDEST PUSH1 0x0 PUSH2 0x4089 PUSH1 0x25 DUP4 PUSH2 0x353D JUMP JUMPDEST SWAP2 POP PUSH2 0x4094 DUP3 PUSH2 0x402D JUMP JUMPDEST PUSH1 0x40 DUP3 ADD SWAP1 POP SWAP2 SWAP1 POP JUMP JUMPDEST PUSH1 0x0 PUSH1 0x20 DUP3 ADD SWAP1 POP DUP2 DUP2 SUB PUSH1 0x0 DUP4 ADD MSTORE PUSH2 0x40B8 DUP2 PUSH2 0x407C JUMP JUMPDEST SWAP1 POP SWAP2 SWAP1 POP JUMP JUMPDEST PUSH32 0x4552433230566F7465733A207369676E61747572652065787069726564000000 PUSH1 0x0 DUP3 ADD MSTORE POP JUMP JUMPDEST PUSH1 0x0 PUSH2 0x40F5 PUSH1 0x1D DUP4 PUSH2 0x353D JUMP JUMPDEST SWAP2 POP PUSH2 0x4100 DUP3 PUSH2 0x40BF JUMP JUMPDEST PUSH1 0x20 DUP3 ADD SWAP1 POP SWAP2 SWAP1 POP JUMP JUMPDEST PUSH1 0x0 PUSH1 0x20 DUP3 ADD SWAP1 POP DUP2 DUP2 SUB PUSH1 0x0 DUP4 ADD MSTORE PUSH2 0x4124 DUP2 PUSH2 0x40E8 JUMP JUMPDEST SWAP1 POP SWAP2 SWAP1 POP JUMP JUMPDEST PUSH1 0x0 PUSH1 0x80 DUP3 ADD SWAP1 POP PUSH2 0x4140 PUSH1 0x0 DUP4 ADD DUP8 PUSH2 0x37B6 JUMP JUMPDEST PUSH2 0x414D PUSH1 0x20 DUP4 ADD DUP7 PUSH2 0x383A JUMP JUMPDEST PUSH2 0x415A PUSH1 0x40 DUP4 ADD DUP6 PUSH2 0x36F8 JUMP JUMPDEST PUSH2 0x4167 PUSH1 0x60 DUP4 ADD DUP5 PUSH2 0x36F8 JUMP JUMPDEST SWAP6 SWAP5 POP POP POP POP POP JUMP JUMPDEST PUSH32 0x4552433230566F7465733A20696E76616C6964206E6F6E636500000000000000 PUSH1 0x0 DUP3 ADD MSTORE POP JUMP JUMPDEST PUSH1 0x0 PUSH2 0x41A6 PUSH1 0x19 DUP4 PUSH2 0x353D JUMP JUMPDEST SWAP2 POP PUSH2 0x41B1 DUP3 PUSH2 0x4170 JUMP JUMPDEST PUSH1 0x20 DUP3 ADD SWAP1 POP SWAP2 SWAP1 POP JUMP JUMPDEST PUSH1 0x0 PUSH1 0x20 DUP3 ADD SWAP1 POP DUP2 DUP2 SUB PUSH1 0x0 DUP4 ADD MSTORE PUSH2 0x41D5 DUP2 PUSH2 0x4199 JUMP JUMPDEST SWAP1 POP SWAP2 SWAP1 POP JUMP JUMPDEST PUSH32 0x45524332305065726D69743A206578706972656420646561646C696E65000000 PUSH1 0x0 DUP3 ADD MSTORE POP JUMP JUMPDEST PUSH1 0x0 PUSH2 0x4212 PUSH1 0x1D DUP4 PUSH2 0x353D JUMP JUMPDEST SWAP2 POP PUSH2 0x421D DUP3 PUSH2 0x41DC JUMP JUMPDEST PUSH1 0x20 DUP3 ADD SWAP1 POP SWAP2 SWAP1 POP JUMP JUMPDEST PUSH1 0x0 PUSH1 0x20 DUP3 ADD SWAP1 POP DUP2 DUP2 SUB PUSH1 0x0 DUP4 ADD MSTORE PUSH2 0x4241 DUP2 PUSH2 0x4205 JUMP JUMPDEST SWAP1 POP SWAP2 SWAP1 POP JUMP JUMPDEST PUSH1 0x0 PUSH1 0xC0 DUP3 ADD SWAP1 POP PUSH2 0x425D PUSH1 0x0 DUP4 ADD DUP10 PUSH2 0x37B6 JUMP JUMPDEST PUSH2 0x426A PUSH1 0x20 DUP4 ADD DUP9 PUSH2 0x383A JUMP JUMPDEST PUSH2 0x4277 PUSH1 0x40 DUP4 ADD DUP8 PUSH2 0x383A JUMP JUMPDEST PUSH2 0x4284 PUSH1 0x60 DUP4 ADD DUP7 PUSH2 0x36F8 JUMP JUMPDEST PUSH2 0x4291 PUSH1 0x80 DUP4 ADD DUP6 PUSH2 0x36F8 JUMP JUMPDEST PUSH2 0x429E PUSH1 0xA0 DUP4 ADD DUP5 PUSH2 0x36F8 JUMP JUMPDEST SWAP8 SWAP7 POP POP POP POP POP POP POP JUMP JUMPDEST PUSH32 0x45524332305065726D69743A20696E76616C6964207369676E61747572650000 PUSH1 0x0 DUP3 ADD MSTORE POP JUMP JUMPDEST PUSH1 0x0 PUSH2 0x42DF PUSH1 0x1E DUP4 PUSH2 0x353D JUMP JUMPDEST SWAP2 POP PUSH2 0x42EA DUP3 PUSH2 0x42A9 JUMP JUMPDEST PUSH1 0x20 DUP3 ADD SWAP1 POP SWAP2 SWAP1 POP JUMP JUMPDEST PUSH1 0x0 PUSH1 0x20 DUP3 ADD SWAP1 POP DUP2 DUP2 SUB PUSH1 0x0 DUP4 ADD MSTORE PUSH2 0x430E DUP2 PUSH2 0x42D2 JUMP JUMPDEST SWAP1 POP SWAP2 SWAP1 POP JUMP JUMPDEST PUSH32 0x4552433230466C6173684D696E743A2077726F6E6720746F6B656E0000000000 PUSH1 0x0 DUP3 ADD MSTORE POP JUMP JUMPDEST PUSH1 0x0 PUSH2 0x434B PUSH1 0x1B DUP4 PUSH2 0x353D JUMP JUMPDEST SWAP2 POP PUSH2 0x4356 DUP3 PUSH2 0x4315 JUMP JUMPDEST PUSH1 0x20 DUP3 ADD SWAP1 POP SWAP2 SWAP1 POP JUMP JUMPDEST PUSH1 0x0 PUSH1 0x20 DUP3 ADD SWAP1 POP DUP2 DUP2 SUB PUSH1 0x0 DUP4 ADD MSTORE PUSH2 0x437A DUP2 PUSH2 0x433E JUMP JUMPDEST SWAP1 POP SWAP2 SWAP1 POP JUMP JUMPDEST PUSH32 0x4F776E61626C653A206E6577206F776E657220697320746865207A65726F2061 PUSH1 0x0 DUP3 ADD MSTORE PUSH32 0x6464726573730000000000000000000000000000000000000000000000000000 PUSH1 0x20 DUP3 ADD MSTORE POP JUMP JUMPDEST PUSH1 0x0 PUSH2 0x43DD PUSH1 0x26 DUP4 PUSH2 0x353D JUMP JUMPDEST SWAP2 POP PUSH2 0x43E8 DUP3 PUSH2 0x4381 JUMP JUMPDEST PUSH1 0x40 DUP3 ADD SWAP1 POP SWAP2 SWAP1 POP JUMP JUMPDEST PUSH1 0x0 PUSH1 0x20 DUP3 ADD SWAP1 POP DUP2 DUP2 SUB PUSH1 0x0 DUP4 ADD MSTORE PUSH2 0x440C DUP2 PUSH2 0x43D0 JUMP JUMPDEST SWAP1 POP SWAP2 SWAP1 POP JUMP JUMPDEST PUSH32 0x4552433230566F7465733A20746F74616C20737570706C79207269736B73206F PUSH1 0x0 DUP3 ADD MSTORE PUSH32 0x766572666C6F77696E6720766F74657300000000000000000000000000000000 PUSH1 0x20 DUP3 ADD MSTORE POP JUMP JUMPDEST PUSH1 0x0 PUSH2 0x446F PUSH1 0x30 DUP4 PUSH2 0x353D JUMP JUMPDEST SWAP2 POP PUSH2 0x447A DUP3 PUSH2 0x4413 JUMP JUMPDEST PUSH1 0x40 DUP3 ADD SWAP1 POP SWAP2 SWAP1 POP JUMP JUMPDEST PUSH1 0x0 PUSH1 0x20 DUP3 ADD SWAP1 POP DUP2 DUP2 SUB PUSH1 0x0 DUP4 ADD MSTORE PUSH2 0x449E DUP2 PUSH2 0x4462 JUMP JUMPDEST SWAP1 POP SWAP2 SWAP1 POP JUMP JUMPDEST PUSH32 0x45524332303A206D696E7420746F20746865207A65726F206164647265737300 PUSH1 0x0 DUP3 ADD MSTORE POP JUMP JUMPDEST PUSH1 0x0 PUSH2 0x44DB PUSH1 0x1F DUP4 PUSH2 0x353D JUMP JUMPDEST SWAP2 POP PUSH2 0x44E6 DUP3 PUSH2 0x44A5 JUMP JUMPDEST PUSH1 0x20 DUP3 ADD SWAP1 POP SWAP2 SWAP1 POP JUMP JUMPDEST PUSH1 0x0 PUSH1 0x20 DUP3 ADD SWAP1 POP DUP2 DUP2 SUB PUSH1 0x0 DUP4 ADD MSTORE PUSH2 0x450A DUP2 PUSH2 0x44CE JUMP JUMPDEST SWAP1 POP SWAP2 SWAP1 POP JUMP JUMPDEST PUSH32 0x53616665436173743A2076616C756520646F65736E27742066697420696E2032 PUSH1 0x0 DUP3 ADD MSTORE PUSH32 0x3234206269747300000000000000000000000000000000000000000000000000 PUSH1 0x20 DUP3 ADD MSTORE POP JUMP JUMPDEST PUSH1 0x0 PUSH2 0x456D PUSH1 0x27 DUP4 PUSH2 0x353D JUMP JUMPDEST SWAP2 POP PUSH2 0x4578 DUP3 PUSH2 0x4511 JUMP JUMPDEST PUSH1 0x40 DUP3 ADD SWAP1 POP SWAP2 SWAP1 POP JUMP JUMPDEST PUSH1 0x0 PUSH1 0x20 DUP3 ADD SWAP1 POP DUP2 DUP2 SUB PUSH1 0x0 DUP4 ADD MSTORE PUSH2 0x459C DUP2 PUSH2 0x4560 JUMP JUMPDEST SWAP1 POP SWAP2 SWAP1 POP JUMP JUMPDEST PUSH32 0x53616665436173743A2076616C756520646F65736E27742066697420696E2033 PUSH1 0x0 DUP3 ADD MSTORE PUSH32 0x3220626974730000000000000000000000000000000000000000000000000000 PUSH1 0x20 DUP3 ADD MSTORE POP JUMP JUMPDEST PUSH1 0x0 PUSH2 0x45FF PUSH1 0x26 DUP4 PUSH2 0x353D JUMP JUMPDEST SWAP2 POP PUSH2 0x460A DUP3 PUSH2 0x45A3 JUMP JUMPDEST PUSH1 0x40 DUP3 ADD SWAP1 POP SWAP2 SWAP1 POP JUMP JUMPDEST PUSH1 0x0 PUSH1 0x20 DUP3 ADD SWAP1 POP DUP2 DUP2 SUB PUSH1 0x0 DUP4 ADD MSTORE PUSH2 0x462E DUP2 PUSH2 0x45F2 JUMP JUMPDEST SWAP1 POP SWAP2 SWAP1 POP JUMP JUMPDEST PUSH32 0x45524332303A20617070726F76652066726F6D20746865207A65726F20616464 PUSH1 0x0 DUP3 ADD MSTORE PUSH32 0x7265737300000000000000000000000000000000000000000000000000000000 PUSH1 0x20 DUP3 ADD MSTORE POP JUMP JUMPDEST PUSH1 0x0 PUSH2 0x4691 PUSH1 0x24 DUP4 PUSH2 0x353D JUMP JUMPDEST SWAP2 POP PUSH2 0x469C DUP3 PUSH2 0x4635 JUMP JUMPDEST PUSH1 0x40 DUP3 ADD SWAP1 POP SWAP2 SWAP1 POP JUMP JUMPDEST PUSH1 0x0 PUSH1 0x20 DUP3 ADD SWAP1 POP DUP2 DUP2 SUB PUSH1 0x0 DUP4 ADD MSTORE PUSH2 0x46C0 DUP2 PUSH2 0x4684 JUMP JUMPDEST SWAP1 POP SWAP2 SWAP1 POP JUMP JUMPDEST PUSH32 0x45524332303A20617070726F766520746F20746865207A65726F206164647265 PUSH1 0x0 DUP3 ADD MSTORE PUSH32 0x7373000000000000000000000000000000000000000000000000000000000000 PUSH1 0x20 DUP3 ADD MSTORE POP JUMP JUMPDEST PUSH1 0x0 PUSH2 0x4723 PUSH1 0x22 DUP4 PUSH2 0x353D JUMP JUMPDEST SWAP2 POP PUSH2 0x472E DUP3 PUSH2 0x46C7 JUMP JUMPDEST PUSH1 0x40 DUP3 ADD SWAP1 POP SWAP2 SWAP1 POP JUMP JUMPDEST PUSH1 0x0 PUSH1 0x20 DUP3 ADD SWAP1 POP DUP2 DUP2 SUB PUSH1 0x0 DUP4 ADD MSTORE PUSH2 0x4752 DUP2 PUSH2 0x4716 JUMP JUMPDEST SWAP1 POP SWAP2 SWAP1 POP JUMP JUMPDEST PUSH32 0x45524332303A20696E73756666696369656E7420616C6C6F77616E6365000000 PUSH1 0x0 DUP3 ADD MSTORE POP JUMP JUMPDEST PUSH1 0x0 PUSH2 0x478F PUSH1 0x1D DUP4 PUSH2 0x353D JUMP JUMPDEST SWAP2 POP PUSH2 0x479A DUP3 PUSH2 0x4759 JUMP JUMPDEST PUSH1 0x20 DUP3 ADD SWAP1 POP SWAP2 SWAP1 POP JUMP JUMPDEST PUSH1 0x0 PUSH1 0x20 DUP3 ADD SWAP1 POP DUP2 DUP2 SUB PUSH1 0x0 DUP4 ADD MSTORE PUSH2 0x47BE DUP2 PUSH2 0x4782 JUMP JUMPDEST SWAP1 POP SWAP2 SWAP1 POP JUMP JUMPDEST PUSH32 0x45524332303A207472616E736665722066726F6D20746865207A65726F206164 PUSH1 0x0 DUP3 ADD MSTORE PUSH32 0x6472657373000000000000000000000000000000000000000000000000000000 PUSH1 0x20 DUP3 ADD MSTORE POP JUMP JUMPDEST PUSH1 0x0 PUSH2 0x4821 PUSH1 0x25 DUP4 PUSH2 0x353D JUMP JUMPDEST SWAP2 POP PUSH2 0x482C DUP3 PUSH2 0x47C5 JUMP JUMPDEST PUSH1 0x40 DUP3 ADD SWAP1 POP SWAP2 SWAP1 POP JUMP JUMPDEST PUSH1 0x0 PUSH1 0x20 DUP3 ADD SWAP1 POP DUP2 DUP2 SUB PUSH1 0x0 DUP4 ADD MSTORE PUSH2 0x4850 DUP2 PUSH2 0x4814 JUMP JUMPDEST SWAP1 POP SWAP2 SWAP1 POP JUMP JUMPDEST PUSH32 0x45524332303A207472616E7366657220746F20746865207A65726F2061646472 PUSH1 0x0 DUP3 ADD MSTORE PUSH32 0x6573730000000000000000000000000000000000000000000000000000000000 PUSH1 0x20 DUP3 ADD MSTORE POP JUMP JUMPDEST PUSH1 0x0 PUSH2 0x48B3 PUSH1 0x23 DUP4 PUSH2 0x353D JUMP JUMPDEST SWAP2 POP PUSH2 0x48BE DUP3 PUSH2 0x4857 JUMP JUMPDEST PUSH1 0x40 DUP3 ADD SWAP1 POP SWAP2 SWAP1 POP JUMP JUMPDEST PUSH1 0x0 PUSH1 0x20 DUP3 ADD SWAP1 POP DUP2 DUP2 SUB PUSH1 0x0 DUP4 ADD MSTORE PUSH2 0x48E2 DUP2 PUSH2 0x48A6 JUMP JUMPDEST SWAP1 POP SWAP2 SWAP1 POP JUMP JUMPDEST PUSH32 0x45524332303A207472616E7366657220616D6F756E7420657863656564732062 PUSH1 0x0 DUP3 ADD MSTORE PUSH32 0x616C616E63650000000000000000000000000000000000000000000000000000 PUSH1 0x20 DUP3 ADD MSTORE POP JUMP JUMPDEST PUSH1 0x0 PUSH2 0x4945 PUSH1 0x26 DUP4 PUSH2 0x353D JUMP JUMPDEST SWAP2 POP PUSH2 0x4950 DUP3 PUSH2 0x48E9 JUMP JUMPDEST PUSH1 0x40 DUP3 ADD SWAP1 POP SWAP2 SWAP1 POP JUMP JUMPDEST PUSH1 0x0 PUSH1 0x20 DUP3 ADD SWAP1 POP DUP2 DUP2 SUB PUSH1 0x0 DUP4 ADD MSTORE PUSH2 0x4974 DUP2 PUSH2 0x4938 JUMP JUMPDEST SWAP1 POP SWAP2 SWAP1 POP JUMP JUMPDEST PUSH32 0x4F776E61626C653A2063616C6C6572206973206E6F7420746865206F776E6572 PUSH1 0x0 DUP3 ADD MSTORE POP JUMP JUMPDEST PUSH1 0x0 PUSH2 0x49B1 PUSH1 0x20 DUP4 PUSH2 0x353D JUMP JUMPDEST SWAP2 POP PUSH2 0x49BC DUP3 PUSH2 0x497B JUMP JUMPDEST PUSH1 0x20 DUP3 ADD SWAP1 POP SWAP2 SWAP1 POP JUMP JUMPDEST PUSH1 0x0 PUSH1 0x20 DUP3 ADD SWAP1 POP DUP2 DUP2 SUB PUSH1 0x0 DUP4 ADD MSTORE PUSH2 0x49E0 DUP2 PUSH2 0x49A4 JUMP JUMPDEST SWAP1 POP SWAP2 SWAP1 POP JUMP JUMPDEST PUSH32 0x4552433230536E617073686F743A206964206973203000000000000000000000 PUSH1 0x0 DUP3 ADD MSTORE POP JUMP JUMPDEST PUSH1 0x0 PUSH2 0x4A1D PUSH1 0x16 DUP4 PUSH2 0x353D JUMP JUMPDEST SWAP2 POP PUSH2 0x4A28 DUP3 PUSH2 0x49E7 JUMP JUMPDEST PUSH1 0x20 DUP3 ADD SWAP1 POP SWAP2 SWAP1 POP JUMP JUMPDEST PUSH1 0x0 PUSH1 0x20 DUP3 ADD SWAP1 POP DUP2 DUP2 SUB PUSH1 0x0 DUP4 ADD MSTORE PUSH2 0x4A4C DUP2 PUSH2 0x4A10 JUMP JUMPDEST SWAP1 POP SWAP2 SWAP1 POP JUMP JUMPDEST PUSH32 0x4552433230536E617073686F743A206E6F6E6578697374656E74206964000000 PUSH1 0x0 DUP3 ADD MSTORE POP JUMP JUMPDEST PUSH1 0x0 PUSH2 0x4A89 PUSH1 0x1D DUP4 PUSH2 0x353D JUMP JUMPDEST SWAP2 POP PUSH2 0x4A94 DUP3 PUSH2 0x4A53 JUMP JUMPDEST PUSH1 0x20 DUP3 ADD SWAP1 POP SWAP2 SWAP1 POP JUMP JUMPDEST PUSH1 0x0 PUSH1 0x20 DUP3 ADD SWAP1 POP DUP2 DUP2 SUB PUSH1 0x0 DUP4 ADD MSTORE PUSH2 0x4AB8 DUP2 PUSH2 0x4A7C JUMP JUMPDEST SWAP1 POP SWAP2 SWAP1 POP JUMP JUMPDEST PUSH1 0x0 PUSH1 0x40 DUP3 ADD SWAP1 POP PUSH2 0x4AD4 PUSH1 0x0 DUP4 ADD DUP6 PUSH2 0x36F8 JUMP JUMPDEST PUSH2 0x4AE1 PUSH1 0x20 DUP4 ADD DUP5 PUSH2 0x36F8 JUMP JUMPDEST SWAP4 SWAP3 POP POP POP JUMP JUMPDEST PUSH1 0x0 PUSH1 0xA0 DUP3 ADD SWAP1 POP PUSH2 0x4AFD PUSH1 0x0 DUP4 ADD DUP9 PUSH2 0x37B6 JUMP JUMPDEST PUSH2 0x4B0A PUSH1 0x20 DUP4 ADD DUP8 PUSH2 0x37B6 JUMP JUMPDEST PUSH2 0x4B17 PUSH1 0x40 DUP4 ADD DUP7 PUSH2 0x37B6 JUMP JUMPDEST PUSH2 0x4B24 PUSH1 0x60 DUP4 ADD DUP6 PUSH2 0x36F8 JUMP JUMPDEST PUSH2 0x4B31 PUSH1 0x80 DUP4 ADD DUP5 PUSH2 0x383A JUMP JUMPDEST SWAP7 SWAP6 POP POP POP POP POP POP JUMP JUMPDEST PUSH32 0x4E487B7100000000000000000000000000000000000000000000000000000000 PUSH1 0x0 MSTORE PUSH1 0x12 PUSH1 0x4 MSTORE PUSH1 0x24 PUSH1 0x0 REVERT JUMPDEST PUSH1 0x0 PUSH2 0x4B75 DUP3 PUSH2 0x364C JUMP JUMPDEST SWAP2 POP PUSH2 0x4B80 DUP4 PUSH2 0x364C JUMP JUMPDEST SWAP3 POP DUP3 PUSH2 0x4B90 JUMPI PUSH2 0x4B8F PUSH2 0x4B3B JUMP JUMPDEST JUMPDEST DUP3 DUP3 DIV SWAP1 POP SWAP3 SWAP2 POP POP JUMP JUMPDEST PUSH32 0x5061757361626C653A206E6F7420706175736564000000000000000000000000 PUSH1 0x0 DUP3 ADD MSTORE POP JUMP JUMPDEST PUSH1 0x0 PUSH2 0x4BD1 PUSH1 0x14 DUP4 PUSH2 0x353D JUMP JUMPDEST SWAP2 POP PUSH2 0x4BDC DUP3 PUSH2 0x4B9B JUMP JUMPDEST PUSH1 0x20 DUP3 ADD SWAP1 POP SWAP2 SWAP1 POP JUMP JUMPDEST PUSH1 0x0 PUSH1 0x20 DUP3 ADD SWAP1 POP DUP2 DUP2 SUB PUSH1 0x0 DUP4 ADD MSTORE PUSH2 0x4C00 DUP2 PUSH2 0x4BC4 JUMP JUMPDEST SWAP1 POP SWAP2 SWAP1 POP JUMP JUMPDEST PUSH32 0x5061757361626C653A2070617573656400000000000000000000000000000000 PUSH1 0x0 DUP3 ADD MSTORE POP JUMP JUMPDEST PUSH1 0x0 PUSH2 0x4C3D PUSH1 0x10 DUP4 PUSH2 0x353D JUMP JUMPDEST SWAP2 POP PUSH2 0x4C48 DUP3 PUSH2 0x4C07 JUMP JUMPDEST PUSH1 0x20 DUP3 ADD SWAP1 POP SWAP2 SWAP1 POP JUMP JUMPDEST PUSH1 0x0 PUSH1 0x20 DUP3 ADD SWAP1 POP DUP2 DUP2 SUB PUSH1 0x0 DUP4 ADD MSTORE PUSH2 0x4C6C DUP2 PUSH2 0x4C30 JUMP JUMPDEST SWAP1 POP SWAP2 SWAP1 POP JUMP JUMPDEST PUSH1 0x0 DUP2 SWAP1 POP SWAP3 SWAP2 POP POP JUMP JUMPDEST PUSH32 0x1901000000000000000000000000000000000000000000000000000000000000 PUSH1 0x0 DUP3 ADD MSTORE POP JUMP JUMPDEST PUSH1 0x0 PUSH2 0x4CB4 PUSH1 0x2 DUP4 PUSH2 0x4C73 JUMP JUMPDEST SWAP2 POP PUSH2 0x4CBF DUP3 PUSH2 0x4C7E JUMP JUMPDEST PUSH1 0x2 DUP3 ADD SWAP1 POP SWAP2 SWAP1 POP JUMP JUMPDEST PUSH1 0x0 DUP2 SWAP1 POP SWAP2 SWAP1 POP JUMP JUMPDEST PUSH2 0x4CE5 PUSH2 0x4CE0 DUP3 PUSH2 0x37AC JUMP JUMPDEST PUSH2 0x4CCA JUMP JUMPDEST DUP3 MSTORE POP POP JUMP JUMPDEST PUSH1 0x0 PUSH2 0x4CF6 DUP3 PUSH2 0x4CA7 JUMP JUMPDEST SWAP2 POP PUSH2 0x4D02 DUP3 DUP6 PUSH2 0x4CD4 JUMP JUMPDEST PUSH1 0x20 DUP3 ADD SWAP2 POP PUSH2 0x4D12 DUP3 DUP5 PUSH2 0x4CD4 JUMP JUMPDEST PUSH1 0x20 DUP3 ADD SWAP2 POP DUP2 SWAP1 POP SWAP4 SWAP3 POP POP POP JUMP JUMPDEST PUSH1 0x0 PUSH1 0x80 DUP3 ADD SWAP1 POP PUSH2 0x4D37 PUSH1 0x0 DUP4 ADD DUP8 PUSH2 0x37B6 JUMP JUMPDEST PUSH2 0x4D44 PUSH1 0x20 DUP4 ADD DUP7 PUSH2 0x3782 JUMP JUMPDEST PUSH2 0x4D51 PUSH1 0x40 DUP4 ADD DUP6 PUSH2 0x37B6 JUMP JUMPDEST PUSH2 0x4D5E PUSH1 0x60 DUP4 ADD DUP5 PUSH2 0x37B6 JUMP JUMPDEST SWAP6 SWAP5 POP POP POP POP POP JUMP JUMPDEST PUSH32 0x4E487B7100000000000000000000000000000000000000000000000000000000 PUSH1 0x0 MSTORE PUSH1 0x21 PUSH1 0x4 MSTORE PUSH1 0x24 PUSH1 0x0 REVERT JUMPDEST PUSH32 0x45434453413A20696E76616C6964207369676E61747572650000000000000000 PUSH1 0x0 DUP3 ADD MSTORE POP JUMP JUMPDEST PUSH1 0x0 PUSH2 0x4DCC PUSH1 0x18 DUP4 PUSH2 0x353D JUMP JUMPDEST SWAP2 POP PUSH2 0x4DD7 DUP3 PUSH2 0x4D96 JUMP JUMPDEST PUSH1 0x20 DUP3 ADD SWAP1 POP SWAP2 SWAP1 POP JUMP JUMPDEST PUSH1 0x0 PUSH1 0x20 DUP3 ADD SWAP1 POP DUP2 DUP2 SUB PUSH1 0x0 DUP4 ADD MSTORE PUSH2 0x4DFB DUP2 PUSH2 0x4DBF JUMP JUMPDEST SWAP1 POP SWAP2 SWAP1 POP JUMP JUMPDEST PUSH32 0x45434453413A20696E76616C6964207369676E6174757265206C656E67746800 PUSH1 0x0 DUP3 ADD MSTORE POP JUMP JUMPDEST PUSH1 0x0 PUSH2 0x4E38 PUSH1 0x1F DUP4 PUSH2 0x353D JUMP JUMPDEST SWAP2 POP PUSH2 0x4E43 DUP3 PUSH2 0x4E02 JUMP JUMPDEST PUSH1 0x20 DUP3 ADD SWAP1 POP SWAP2 SWAP1 POP JUMP JUMPDEST PUSH1 0x0 PUSH1 0x20 DUP3 ADD SWAP1 POP DUP2 DUP2 SUB PUSH1 0x0 DUP4 ADD MSTORE PUSH2 0x4E67 DUP2 PUSH2 0x4E2B JUMP JUMPDEST SWAP1 POP SWAP2 SWAP1 POP JUMP JUMPDEST PUSH32 0x45434453413A20696E76616C6964207369676E6174757265202773272076616C PUSH1 0x0 DUP3 ADD MSTORE PUSH32 0x7565000000000000000000000000000000000000000000000000000000000000 PUSH1 0x20 DUP3 ADD MSTORE POP JUMP JUMPDEST PUSH1 0x0 PUSH2 0x4ECA PUSH1 0x22 DUP4 PUSH2 0x353D JUMP JUMPDEST SWAP2 POP PUSH2 0x4ED5 DUP3 PUSH2 0x4E6E JUMP JUMPDEST PUSH1 0x40 DUP3 ADD SWAP1 POP SWAP2 SWAP1 POP JUMP JUMPDEST PUSH1 0x0 PUSH1 0x20 DUP3 ADD SWAP1 POP DUP2 DUP2 SUB PUSH1 0x0 DUP4 ADD MSTORE PUSH2 0x4EF9 DUP2 PUSH2 0x4EBD JUMP JUMPDEST SWAP1 POP SWAP2 SWAP1 POP JUMP JUMPDEST PUSH32 0x45524332303A206275726E2066726F6D20746865207A65726F20616464726573 PUSH1 0x0 DUP3 ADD MSTORE PUSH32 0x7300000000000000000000000000000000000000000000000000000000000000 PUSH1 0x20 DUP3 ADD MSTORE POP JUMP JUMPDEST PUSH1 0x0 PUSH2 0x4F5C PUSH1 0x21 DUP4 PUSH2 0x353D JUMP JUMPDEST SWAP2 POP PUSH2 0x4F67 DUP3 PUSH2 0x4F00 JUMP JUMPDEST PUSH1 0x40 DUP3 ADD SWAP1 POP SWAP2 SWAP1 POP JUMP JUMPDEST PUSH1 0x0 PUSH1 0x20 DUP3 ADD SWAP1 POP DUP2 DUP2 SUB PUSH1 0x0 DUP4 ADD MSTORE PUSH2 0x4F8B DUP2 PUSH2 0x4F4F JUMP JUMPDEST SWAP1 POP SWAP2 SWAP1 POP JUMP JUMPDEST PUSH32 0x45524332303A206275726E20616D6F756E7420657863656564732062616C616E PUSH1 0x0 DUP3 ADD MSTORE PUSH32 0x6365000000000000000000000000000000000000000000000000000000000000 PUSH1 0x20 DUP3 ADD MSTORE POP JUMP JUMPDEST PUSH1 0x0 PUSH2 0x4FEE PUSH1 0x22 DUP4 PUSH2 0x353D JUMP JUMPDEST SWAP2 POP PUSH2 0x4FF9 DUP3 PUSH2 0x4F92 JUMP JUMPDEST PUSH1 0x40 DUP3 ADD SWAP1 POP SWAP2 SWAP1 POP JUMP JUMPDEST PUSH1 0x0 PUSH1 0x20 DUP3 ADD SWAP1 POP DUP2 DUP2 SUB PUSH1 0x0 DUP4 ADD MSTORE PUSH2 0x501D DUP2 PUSH2 0x4FE1 JUMP JUMPDEST SWAP1 POP SWAP2 SWAP1 POP JUMP INVALID LOG2 PUSH5 0x6970667358 0x22 SLT KECCAK256 0xBA PUSH2 0x17B8 0xEF EXTCODEHASH 0x5D 0xC2 PUSH18 0x317573FC2BE24AB96EB76F7B9FE04DE612E6 NOT EXTCODECOPY 0xC4 0xA8 0x4A PUSH5 0x736F6C6343 STOP ADDMOD SLT STOP CALLER "
		},
		"gasEstimates": {
			"creation": {
				"codeDepositCost": "4114000",
				"executionCost": "infinite",
				"totalCost": "infinite"
			},
			"external": {
				"DOMAIN_SEPARATOR()": "infinite",
				"allowance(address,address)": "infinite",
				"approve(address,uint256)": "infinite",
				"balanceOf(address)": "2887",
				"balanceOfAt(address,uint256)": "infinite",
				"burn(uint256)": "infinite",
				"burnFrom(address,uint256)": "infinite",
				"checkpoints(address,uint32)": "infinite",
				"decimals()": "389",
				"decreaseAllowance(address,uint256)": "infinite",
				"delegate(address)": "infinite",
				"delegateBySig(address,uint256,uint256,uint8,bytes32,bytes32)": "infinite",
				"delegates(address)": "infinite",
				"flashFee(address,uint256)": "infinite",
				"flashLoan(address,address,uint256,bytes)": "infinite",
				"getPastTotalSupply(uint256)": "infinite",
				"getPastVotes(address,uint256)": "infinite",
				"getVotes(address)": "infinite",
				"increaseAllowance(address,uint256)": "infinite",
				"maxFlashLoan(address)": "infinite",
				"mint(address,uint256)": "infinite",
				"name()": "infinite",
				"nonces(address)": "3002",
				"numCheckpoints(address)": "3147",
				"owner()": "2589",
				"pause()": "infinite",
				"paused()": "2596",
				"permit(address,address,uint256,uint256,uint8,bytes32,bytes32)": "infinite",
				"renounceOwnership()": "30466",
				"snapshot()": "30237",
				"symbol()": "infinite",
				"totalSupply()": "2528",
				"totalSupplyAt(uint256)": "infinite",
				"transfer(address,uint256)": "infinite",
				"transferFrom(address,address,uint256)": "infinite",
				"transferOwnership(address)": "30876",
				"unpause()": "infinite"
			},
			"internal": {
				"_afterTokenTransfer(address,address,uint256)": "infinite",
				"_beforeTokenTransfer(address,address,uint256)": "infinite",
				"_burn(address,uint256)": "infinite",
				"_mint(address,uint256)": "infinite"
			}
		},
		"methodIdentifiers": {
			"DOMAIN_SEPARATOR()": "3644e515",
			"allowance(address,address)": "dd62ed3e",
			"approve(address,uint256)": "095ea7b3",
			"balanceOf(address)": "70a08231",
			"balanceOfAt(address,uint256)": "4ee2cd7e",
			"burn(uint256)": "42966c68",
			"burnFrom(address,uint256)": "79cc6790",
			"checkpoints(address,uint32)": "f1127ed8",
			"decimals()": "313ce567",
			"decreaseAllowance(address,uint256)": "a457c2d7",
			"delegate(address)": "5c19a95c",
			"delegateBySig(address,uint256,uint256,uint8,bytes32,bytes32)": "c3cda520",
			"delegates(address)": "587cde1e",
			"flashFee(address,uint256)": "d9d98ce4",
			"flashLoan(address,address,uint256,bytes)": "5cffe9de",
			"getPastTotalSupply(uint256)": "8e539e8c",
			"getPastVotes(address,uint256)": "3a46b1a8",
			"getVotes(address)": "9ab24eb0",
			"increaseAllowance(address,uint256)": "39509351",
			"maxFlashLoan(address)": "613255ab",
			"mint(address,uint256)": "40c10f19",
			"name()": "06fdde03",
			"nonces(address)": "7ecebe00",
			"numCheckpoints(address)": "6fcfff45",
			"owner()": "8da5cb5b",
			"pause()": "8456cb59",
			"paused()": "5c975abb",
			"permit(address,address,uint256,uint256,uint8,bytes32,bytes32)": "d505accf",
			"renounceOwnership()": "715018a6",
			"snapshot()": "9711715a",
			"symbol()": "95d89b41",
			"totalSupply()": "18160ddd",
			"totalSupplyAt(uint256)": "981b24d0",
			"transfer(address,uint256)": "a9059cbb",
			"transferFrom(address,address,uint256)": "23b872dd",
			"transferOwnership(address)": "f2fde38b",
			"unpause()": "3f4ba83a"
		}
	},
	"abi": [
		{
			"inputs": [],
			"stateMutability": "nonpayable",
			"type": "constructor"
		},
		{
			"anonymous": false,
			"inputs": [
				{
					"indexed": true,
					"internalType": "address",
					"name": "owner",
					"type": "address"
				},
				{
					"indexed": true,
					"internalType": "address",
					"name": "spender",
					"type": "address"
				},
				{
					"indexed": false,
					"internalType": "uint256",
					"name": "value",
					"type": "uint256"
				}
			],
			"name": "Approval",
			"type": "event"
		},
		{
			"anonymous": false,
			"inputs": [
				{
					"indexed": true,
					"internalType": "address",
					"name": "delegator",
					"type": "address"
				},
				{
					"indexed": true,
					"internalType": "address",
					"name": "fromDelegate",
					"type": "address"
				},
				{
					"indexed": true,
					"internalType": "address",
					"name": "toDelegate",
					"type": "address"
				}
			],
			"name": "DelegateChanged",
			"type": "event"
		},
		{
			"anonymous": false,
			"inputs": [
				{
					"indexed": true,
					"internalType": "address",
					"name": "delegate",
					"type": "address"
				},
				{
					"indexed": false,
					"internalType": "uint256",
					"name": "previousBalance",
					"type": "uint256"
				},
				{
					"indexed": false,
					"internalType": "uint256",
					"name": "newBalance",
					"type": "uint256"
				}
			],
			"name": "DelegateVotesChanged",
			"type": "event"
		},
		{
			"anonymous": false,
			"inputs": [
				{
					"indexed": true,
					"internalType": "address",
					"name": "previousOwner",
					"type": "address"
				},
				{
					"indexed": true,
					"internalType": "address",
					"name": "newOwner",
					"type": "address"
				}
			],
			"name": "OwnershipTransferred",
			"type": "event"
		},
		{
			"anonymous": false,
			"inputs": [
				{
					"indexed": false,
					"internalType": "address",
					"name": "account",
					"type": "address"
				}
			],
			"name": "Paused",
			"type": "event"
		},
		{
			"anonymous": false,
			"inputs": [
				{
					"indexed": false,
					"internalType": "uint256",
					"name": "id",
					"type": "uint256"
				}
			],
			"name": "Snapshot",
			"type": "event"
		},
		{
			"anonymous": false,
			"inputs": [
				{
					"indexed": true,
					"internalType": "address",
					"name": "from",
					"type": "address"
				},
				{
					"indexed": true,
					"internalType": "address",
					"name": "to",
					"type": "address"
				},
				{
					"indexed": false,
					"internalType": "uint256",
					"name": "value",
					"type": "uint256"
				}
			],
			"name": "Transfer",
			"type": "event"
		},
		{
			"anonymous": false,
			"inputs": [
				{
					"indexed": false,
					"internalType": "address",
					"name": "account",
					"type": "address"
				}
			],
			"name": "Unpaused",
			"type": "event"
		},
		{
			"inputs": [],
			"name": "DOMAIN_SEPARATOR",
			"outputs": [
				{
					"internalType": "bytes32",
					"name": "",
					"type": "bytes32"
				}
			],
			"stateMutability": "view",
			"type": "function"
		},
		{
			"inputs": [
				{
					"internalType": "address",
					"name": "owner",
					"type": "address"
				},
				{
					"internalType": "address",
					"name": "spender",
					"type": "address"
				}
			],
			"name": "allowance",
			"outputs": [
				{
					"internalType": "uint256",
					"name": "",
					"type": "uint256"
				}
			],
			"stateMutability": "view",
			"type": "function"
		},
		{
			"inputs": [
				{
					"internalType": "address",
					"name": "spender",
					"type": "address"
				},
				{
					"internalType": "uint256",
					"name": "amount",
					"type": "uint256"
				}
			],
			"name": "approve",
			"outputs": [
				{
					"internalType": "bool",
					"name": "",
					"type": "bool"
				}
			],
			"stateMutability": "nonpayable",
			"type": "function"
		},
		{
			"inputs": [
				{
					"internalType": "address",
					"name": "account",
					"type": "address"
				}
			],
			"name": "balanceOf",
			"outputs": [
				{
					"internalType": "uint256",
					"name": "",
					"type": "uint256"
				}
			],
			"stateMutability": "view",
			"type": "function"
		},
		{
			"inputs": [
				{
					"internalType": "address",
					"name": "account",
					"type": "address"
				},
				{
					"internalType": "uint256",
					"name": "snapshotId",
					"type": "uint256"
				}
			],
			"name": "balanceOfAt",
			"outputs": [
				{
					"internalType": "uint256",
					"name": "",
					"type": "uint256"
				}
			],
			"stateMutability": "view",
			"type": "function"
		},
		{
			"inputs": [
				{
					"internalType": "uint256",
					"name": "amount",
					"type": "uint256"
				}
			],
			"name": "burn",
			"outputs": [],
			"stateMutability": "nonpayable",
			"type": "function"
		},
		{
			"inputs": [
				{
					"internalType": "address",
					"name": "account",
					"type": "address"
				},
				{
					"internalType": "uint256",
					"name": "amount",
					"type": "uint256"
				}
			],
			"name": "burnFrom",
			"outputs": [],
			"stateMutability": "nonpayable",
			"type": "function"
		},
		{
			"inputs": [
				{
					"internalType": "address",
					"name": "account",
					"type": "address"
				},
				{
					"internalType": "uint32",
					"name": "pos",
					"type": "uint32"
				}
			],
			"name": "checkpoints",
			"outputs": [
				{
					"components": [
						{
							"internalType": "uint32",
							"name": "fromBlock",
							"type": "uint32"
						},
						{
							"internalType": "uint224",
							"name": "votes",
							"type": "uint224"
						}
					],
					"internalType": "struct ERC20Votes.Checkpoint",
					"name": "",
					"type": "tuple"
				}
			],
			"stateMutability": "view",
			"type": "function"
		},
		{
			"inputs": [],
			"name": "decimals",
			"outputs": [
				{
					"internalType": "uint8",
					"name": "",
					"type": "uint8"
				}
			],
			"stateMutability": "view",
			"type": "function"
		},
		{
			"inputs": [
				{
					"internalType": "address",
					"name": "spender",
					"type": "address"
				},
				{
					"internalType": "uint256",
					"name": "subtractedValue",
					"type": "uint256"
				}
			],
			"name": "decreaseAllowance",
			"outputs": [
				{
					"internalType": "bool",
					"name": "",
					"type": "bool"
				}
			],
			"stateMutability": "nonpayable",
			"type": "function"
		},
		{
			"inputs": [
				{
					"internalType": "address",
					"name": "delegatee",
					"type": "address"
				}
			],
			"name": "delegate",
			"outputs": [],
			"stateMutability": "nonpayable",
			"type": "function"
		},
		{
			"inputs": [
				{
					"internalType": "address",
					"name": "delegatee",
					"type": "address"
				},
				{
					"internalType": "uint256",
					"name": "nonce",
					"type": "uint256"
				},
				{
					"internalType": "uint256",
					"name": "expiry",
					"type": "uint256"
				},
				{
					"internalType": "uint8",
					"name": "v",
					"type": "uint8"
				},
				{
					"internalType": "bytes32",
					"name": "r",
					"type": "bytes32"
				},
				{
					"internalType": "bytes32",
					"name": "s",
					"type": "bytes32"
				}
			],
			"name": "delegateBySig",
			"outputs": [],
			"stateMutability": "nonpayable",
			"type": "function"
		},
		{
			"inputs": [
				{
					"internalType": "address",
					"name": "account",
					"type": "address"
				}
			],
			"name": "delegates",
			"outputs": [
				{
					"internalType": "address",
					"name": "",
					"type": "address"
				}
			],
			"stateMutability": "view",
			"type": "function"
		},
		{
			"inputs": [
				{
					"internalType": "address",
					"name": "token",
					"type": "address"
				},
				{
					"internalType": "uint256",
					"name": "amount",
					"type": "uint256"
				}
			],
			"name": "flashFee",
			"outputs": [
				{
					"internalType": "uint256",
					"name": "",
					"type": "uint256"
				}
			],
			"stateMutability": "view",
			"type": "function"
		},
		{
			"inputs": [
				{
					"internalType": "contract IERC3156FlashBorrower",
					"name": "receiver",
					"type": "address"
				},
				{
					"internalType": "address",
					"name": "token",
					"type": "address"
				},
				{
					"internalType": "uint256",
					"name": "amount",
					"type": "uint256"
				},
				{
					"internalType": "bytes",
					"name": "data",
					"type": "bytes"
				}
			],
			"name": "flashLoan",
			"outputs": [
				{
					"internalType": "bool",
					"name": "",
					"type": "bool"
				}
			],
			"stateMutability": "nonpayable",
			"type": "function"
		},
		{
			"inputs": [
				{
					"internalType": "uint256",
					"name": "blockNumber",
					"type": "uint256"
				}
			],
			"name": "getPastTotalSupply",
			"outputs": [
				{
					"internalType": "uint256",
					"name": "",
					"type": "uint256"
				}
			],
			"stateMutability": "view",
			"type": "function"
		},
		{
			"inputs": [
				{
					"internalType": "address",
					"name": "account",
					"type": "address"
				},
				{
					"internalType": "uint256",
					"name": "blockNumber",
					"type": "uint256"
				}
			],
			"name": "getPastVotes",
			"outputs": [
				{
					"internalType": "uint256",
					"name": "",
					"type": "uint256"
				}
			],
			"stateMutability": "view",
			"type": "function"
		},
		{
			"inputs": [
				{
					"internalType": "address",
					"name": "account",
					"type": "address"
				}
			],
			"name": "getVotes",
			"outputs": [
				{
					"internalType": "uint256",
					"name": "",
					"type": "uint256"
				}
			],
			"stateMutability": "view",
			"type": "function"
		},
		{
			"inputs": [
				{
					"internalType": "address",
					"name": "spender",
					"type": "address"
				},
				{
					"internalType": "uint256",
					"name": "addedValue",
					"type": "uint256"
				}
			],
			"name": "increaseAllowance",
			"outputs": [
				{
					"internalType": "bool",
					"name": "",
					"type": "bool"
				}
			],
			"stateMutability": "nonpayable",
			"type": "function"
		},
		{
			"inputs": [
				{
					"internalType": "address",
					"name": "token",
					"type": "address"
				}
			],
			"name": "maxFlashLoan",
			"outputs": [
				{
					"internalType": "uint256",
					"name": "",
					"type": "uint256"
				}
			],
			"stateMutability": "view",
			"type": "function"
		},
		{
			"inputs": [
				{
					"internalType": "address",
					"name": "to",
					"type": "address"
				},
				{
					"internalType": "uint256",
					"name": "amount",
					"type": "uint256"
				}
			],
			"name": "mint",
			"outputs": [],
			"stateMutability": "nonpayable",
			"type": "function"
		},
		{
			"inputs": [],
			"name": "name",
			"outputs": [
				{
					"internalType": "string",
					"name": "",
					"type": "string"
				}
			],
			"stateMutability": "view",
			"type": "function"
		},
		{
			"inputs": [
				{
					"internalType": "address",
					"name": "owner",
					"type": "address"
				}
			],
			"name": "nonces",
			"outputs": [
				{
					"internalType": "uint256",
					"name": "",
					"type": "uint256"
				}
			],
			"stateMutability": "view",
			"type": "function"
		},
		{
			"inputs": [
				{
					"internalType": "address",
					"name": "account",
					"type": "address"
				}
			],
			"name": "numCheckpoints",
			"outputs": [
				{
					"internalType": "uint32",
					"name": "",
					"type": "uint32"
				}
			],
			"stateMutability": "view",
			"type": "function"
		},
		{
			"inputs": [],
			"name": "owner",
			"outputs": [
				{
					"internalType": "address",
					"name": "",
					"type": "address"
				}
			],
			"stateMutability": "view",
			"type": "function"
		},
		{
			"inputs": [],
			"name": "pause",
			"outputs": [],
			"stateMutability": "nonpayable",
			"type": "function"
		},
		{
			"inputs": [],
			"name": "paused",
			"outputs": [
				{
					"internalType": "bool",
					"name": "",
					"type": "bool"
				}
			],
			"stateMutability": "view",
			"type": "function"
		},
		{
			"inputs": [
				{
					"internalType": "address",
					"name": "owner",
					"type": "address"
				},
				{
					"internalType": "address",
					"name": "spender",
					"type": "address"
				},
				{
					"internalType": "uint256",
					"name": "value",
					"type": "uint256"
				},
				{
					"internalType": "uint256",
					"name": "deadline",
					"type": "uint256"
				},
				{
					"internalType": "uint8",
					"name": "v",
					"type": "uint8"
				},
				{
					"internalType": "bytes32",
					"name": "r",
					"type": "bytes32"
				},
				{
					"internalType": "bytes32",
					"name": "s",
					"type": "bytes32"
				}
			],
			"name": "permit",
			"outputs": [],
			"stateMutability": "nonpayable",
			"type": "function"
		},
		{
			"inputs": [],
			"name": "renounceOwnership",
			"outputs": [],
			"stateMutability": "nonpayable",
			"type": "function"
		},
		{
			"inputs": [],
			"name": "snapshot",
			"outputs": [],
			"stateMutability": "nonpayable",
			"type": "function"
		},
		{
			"inputs": [],
			"name": "symbol",
			"outputs": [
				{
					"internalType": "string",
					"name": "",
					"type": "string"
				}
			],
			"stateMutability": "view",
			"type": "function"
		},
		{
			"inputs": [],
			"name": "totalSupply",
			"outputs": [
				{
					"internalType": "uint256",
					"name": "",
					"type": "uint256"
				}
			],
			"stateMutability": "view",
			"type": "function"
		},
		{
			"inputs": [
				{
					"internalType": "uint256",
					"name": "snapshotId",
					"type": "uint256"
				}
			],
			"name": "totalSupplyAt",
			"outputs": [
				{
					"internalType": "uint256",
					"name": "",
					"type": "uint256"
				}
			],
			"stateMutability": "view",
			"type": "function"
		},
		{
			"inputs": [
				{
					"internalType": "address",
					"name": "to",
					"type": "address"
				},
				{
					"internalType": "uint256",
					"name": "amount",
					"type": "uint256"
				}
			],
			"name": "transfer",
			"outputs": [
				{
					"internalType": "bool",
					"name": "",
					"type": "bool"
				}
			],
			"stateMutability": "nonpayable",
			"type": "function"
		},
		{
			"inputs": [
				{
					"internalType": "address",
					"name": "from",
					"type": "address"
				},
				{
					"internalType": "address",
					"name": "to",
					"type": "address"
				},
				{
					"internalType": "uint256",
					"name": "amount",
					"type": "uint256"
				}
			],
			"name": "transferFrom",
			"outputs": [
				{
					"internalType": "bool",
					"name": "",
					"type": "bool"
				}
			],
			"stateMutability": "nonpayable",
			"type": "function"
		},
		{
			"inputs": [
				{
					"internalType": "address",
					"name": "newOwner",
					"type": "address"
				}
			],
			"name": "transferOwnership",
			"outputs": [],
			"stateMutability": "nonpayable",
			"type": "function"
		},
		{
			"inputs": [],
			"name": "unpause",
			"outputs": [],
			"stateMutability": "nonpayable",
			"type": "function"
		}
	]
}